:020000040800F2
:1000000000000320215000088B2B00088D2B0008D6
:100010008F2B0008912B0008932B00080000000094
:10002000000000000000000000000000952B000808
:10003000972B000800000000992B00089B2B00085C
:10004000795000087950000879500008795000086C
:10005000795000087950000879500008795000085C
:10006000795000087950000879500008795000084C
:10007000795000087950000879500008795000083C
:10008000795000087950000879500008795000082C
:10009000A52B000879500008795000087950000815
:1000A000795000087950000879500008795000080C
:1000B00079500008795000087950000879500008FC
:1000C00079500008795000087950000879500008EC
:1000D00079500008795000087950000879500008DC
:1000E00079500008795000087950000879500008CC
:1000F00079500008795000087950000879500008BC
:1001000079500008795000087950000879500008AB
:10011000795000087950000879500008795000089B
:10012000795000087950000879500008795000088B
:0C01300079500008795000087950000850
:10013C0008B5064B1A783AB9054A1AB10548AFF317
:10014C000080024B01221A7008BD00BF0401002080
:10015C0000000000D450000808B5034B1BB1034944
:10016C000348AFF3008008BD000000000801002028
:10017C00D4500008F0B589B003AD00240394049466
:10018C000594069407944FF0B043DA6C42F00402E5
:10019C00DA64DA6C02F004020292029ADA6C42F02F
:1001AC000202DA64DA6C02F002020192019ADA6C51
:1001BC0042F00102DA64DB6C03F001030093009B54
:1001CC00124E22464FF40051304600F0DBFA4FF449
:1001DC00005303930127049705940694294630464F
:1001EC0000F0F6F903974FF4881704970594294605
:1001FC00304600F0EDF9C02303930497059429468B
:10020C00034800F0E5F909B0F0BD00BF0008004854
:10021C000004004872B6FEE708B51148114B0360A4
:10022C00114B4360002383600122C2600361436170
:10023C008361C361036200F0AAFA50B90146084811
:10024C0000F009FB38B90146054800F031FB20B934
:10025C0008BDFFF7DFFFFFF7DDFFFFF7DBFF00BF98
:10026C008401002000540040B57DB11008B50F4842
:10027C000F4B03604FF482734360002383604FF491
:10028C004072C260036143614FF400728261C361CA
:10029C000362436283620722C262036308234363DF
:1002AC0002F0FEFB00B908BDFFF7B4FF20010020EF
:1002BC000030014030B59BB008AD482200212846E3
:1002CC0004F0D5FE00240194029403940494059444
:1002DC000694079401F0A6FB4FF0B042D2F8903090
:1002EC0023F0180343F01003C2F8903002F580623B
:1002FC00136823F4C06343F400731360136803F4AE
:10030C00C0630093009B272308934FF48033099319
:10031C0001230A934FF480720B920F9340220C929C
:10032C00109460221192022213921493159420239C
:10033C0016934FF4003317934FF0005319934FF06B
:10034C0000731893284601F07DFC88B96F23019344
:10035C00032102910390049005908022069207904D
:10036C0001A801F0FDFF28B902F093FB1BB030BDD2
:10037C00FFF750FFFFF74EFF10B594B0502200214D
:10038C00684604F074FE4FF4405300934FF440431E
:10039C00119310231393684602F0F9F908B914B0BD
:1003AC0010BDFFF737FF000008B500F04DF8FFF760
:1003BC0081FFFFF7E1FFFFF7DDFEFFF72DFFFFF7F2
:1003CC0055FF03F063FB0B4C01224FF40051204608
:1003DC0000F0D8F94FF4FA7000F066F800224FF4F0
:1003EC000051204600F0CEF94FF4FA7000F05CF8A2
:1003FC00E9E700BF00080048114B1B780BB901203E
:10040C00704710B5044601F00DFC0D4B1A784FF4F3
:10041C007A73B3FBF2F3B0FBF3F000F0C5F868B9F4
:10042C000F2C01D901200AE0024621464FF0FF3083
:10043C0000F0A6F8034B1C60002000E0012010BD6A
:10044C00080000200C00002010B50A4A136843F481
:10045C0080731360032000F081F80F20FFF7CCFFAE
:10046C0018B101231C46204610BD044600F04BFA7F
:10047C00F9E700BF00400058034B1B78034A116892
:10048C000B441360704700BF08000020D801002007
:10049C00014B1868704700BFD8010020014B186849
:1004AC00704700BF0C00002038B50446FFF7F0FF82
:1004BC000546B4F1FF3F02D0044B1B781C44FFF7F8
:1004CC00E7FF401BA042FAD338BD00BF0800002054
:1004DC00002807DB00F01F02400901239340024A69
:1004EC0042F82030704700BF00E100E0002808DB34
:1004FC000901C9B200F1604000F5614080F80013B9
:10050C00704700F00F000901C9B2014B1954704734
:10051C0014ED00E000B500F00700A0F1030CBCF1F5
:10052C00040F07D8C0F1070E0430062806D84FF088
:10053C00000C03E04FF0040E4FF0000C4FF0FF33B3
:10054C0003FA0EF021EA000101FA0CF103FA0CF3A4
:10055C0022EA030241EA020000BD0000074AD36808
:10056C0023F4E0631B041B0C000200F4E060034363
:10057C0043F0BF6343F40033D360704700ED00E0F9
:10058C0010B50446054BD868C0F30220FFF7C2FF34
:10059C0001462046FFF7AAFF10BD00BF00ED00E0AA
:1005AC0008B5FFF795FF08BD0138B0F1807F0BD27D
:1005BC004FF0E0235861054AF02182F82310002007
:1005CC00986107221A6170470120704700ED00E026
:1005DC0070B58646002367E0DEF808405D00032016
:1005EC00A84024EA0004C868A8402043CEF80800BC
:1005FC00DEF8044024EA0C044868C0F3001098406C
:10060C002043CEF8040060E0DC0808345EF82400D7
:10061C0003F00705AD004FF00F0C0CFA05FC20EAB7
:10062C000C0C0869A84040EA0C004EF8240062E06B
:10063C00042000E0002000FA0CF0284302344E4D58
:10064C0045F824004D480468D04324EA02054E685E
:10065C0016F4801F01D042EA0405484C25606468FA
:10066C0000EA04054E6816F4001F01D042EA0405A6
:10067C00424C6560D4F8804000EA04054E6816F4DC
:10068C00803F01D042EA04053C4CC4F88050D4F8B9
:10069C00844020404D6815F4003F01D042EA04002C
:1006AC00364AC2F8840001330A6832FA03F061D08A
:1006BC004FF0010C0CFA03FC1CEA0202F3D0486860
:1006CC0000F003000138012886D9486800F00300C7
:1006DC0003280BD0DEF80C405D000320A84024EA70
:1006EC0000048868A8402043CEF80C00486800F04D
:1006FC000300022888D0DEF800005C004FF0030CE9
:10070C000CFA04FC20EA0C0C486800F00300A04032
:10071C0040EA0C00CEF80000486810F4403FC2D00C
:10072C009C08A51C144850F8255003F0030C4FEA04
:10073C008C0C0F2000FA0CF025EA0005BEF1904F4E
:10074C003FF478AF0E4886450ED000F580608645A4
:10075C000CD000F5806086450AD000F58060864597
:10076C003FF466AF072066E7012064E7022062E7EA
:10077C00032060E770BD00BF000001400008005876
:10078C00000400480AB181617047816270470028FB
:10079C005FD010B5044690F84130002B48D024238C
:1007AC0084F841302268136823F0010313606368F6
:1007BC00226823F0706313612268936823F400436A
:1007CC009360E368012B38D0A368226843F4044398
:1007DC009360E368022B36D02268536823F40063DD
:1007EC0053602268536843F0007343F40043536032
:1007FC002268D36823F40043D360236962691343EE
:10080C00A169226843EA0123D360E369216A226863
:10081C000B4313602268136843F00103136000203C
:10082C006064202384F84130206384F8420010BDBA
:10083C0080F8403000F06CF8B1E7A368226843F40C
:10084C0000439360C5E72268536843F40063536028
:10085C00C7E701207047034690F84120202A23D196
:10086C0090F84020012A21D0012280F84020242237
:10087C0080F841200068026822F0010202601868CA
:10088C00026822F480520260186802680A4302600F
:10089C0019680A6842F001020A60202283F841209C
:1008AC00002083F8400070470220704702207047F8
:1008BC00034690F84120202A21D190F84020012AAB
:1008CC001FD0012280F84020242280F841200068AB
:1008DC00026822F0010202601868026822F4706259
:1008EC0042EA0122026019680A6842F001020A60B9
:1008FC00202283F84120002083F84000704702201A
:10090C0070470220704708B501F09CF808BD000044
:10091C0010B59CB0044600211791189119911A91A9
:10092C001B91502203A804F0A2FB2268194B9A4297
:10093C0001D01CB010BD042303934FF440330B9330
:10094C0003A801F024FF10BB4FF0B044E36C43F05C
:10095C000203E364E36C03F002030293029B4FF483
:10096C004073179312231893002319931A9304239B
:10097C001B9317A90848FFF72BFEA36D43F4001334
:10098C00A365A36D03F400130193019BD1E7FFF75B
:10099C0041FCD9E7005400400004004800B589B080
:1009AC000023039304930593069307930268124B59
:1009BC009A4201D009B000BD4FF0B0431A6E42F418
:1009CC0080521A661A6E02F480520292029ADA6C03
:1009DC0042F00202DA64DB6C03F002030193019B28
:1009EC0038230393022304930523079303A9034895
:1009FC00FFF7EEFDDEE700BF0030014000040048C9
:100A0C0010B512F4804F45D00468B4F8503091F80A
:100A1C0000C04FEACC0E1EFA83F32344B3F8024411
:100A2C00C4F309048B69A3422AD31B1B8B618B690A
:100A3C0083B9D0F800E03EF82C309BB223F480430D
:100A4C0023F0700383F4005343F4004343F080031A
:100A5C002EF82C3012F0400F0FD0026891F800C025
:100A6C0032F82C309BB223F4E04323F0700343F4B0
:100A7C00004343F0C00322F82C3024B9204610BDAB
:100A8C0000238B61D3E723460A894969006802F089
:100A9C00B5FFF3E70468B4F8503091F800C04FEAA2
:100AAC00CC0E1EFA83F32344B3F80644C4F30904B2
:100ABC008B69A34230D31B1B8B618B6983B9D0F834
:100ACC0000E03EF82C309BB223F4804323F07003FB
:100ADC0083F4005343F4004343F080032EF82C308E
:100AEC0012F0400F0FD1026891F800C032F82C3090
:100AFC009BB223F4E04323F0700343F4004343F030
:100B0C00C00322F82C30002CB8D023464A894969FE
:100B1C00006802F073FFB1E700238B61CDE700287A
:100B2C0056D010B5044690F891323BB1032384F8AB
:100B3C009132206802F041F8002315E080F89032E1
:100B4C0003F064FAF2E703EB830204EBC202012127
:100B5C00517413740021D17411625162013303EB8F
:100B6C008302D200A150DBB220799842EBD800234B
:100B7C0016E003EB830204EBC202002182F8511150
:100B8C0082F8503182F85311C2F86011C2F8641126
:100B9C0003EB830204EBC202C2F868110133DBB22F
:100BAC009842E6D8234653F8040B93E8060002F06B
:100BBC000FF800232373012384F89132A37A012BBD
:100BCC0001D0002010BD204600F016FF0020F9E7F0
:100BDC000120704790F89032012B0ED010B50446CE
:100BEC00012380F89032006801F0DEFF206802F0EB
:100BFC001DFC002084F8900210BD0220704770B5D7
:100C0C0005460C46164612F0400F00F01F81026894
:100C1C00B2F8503009784FEAC10C1CFA83F3134434
:100C2C00B3F80224C2F30902A36993422CD99B1A8C
:100C3C00A361A06958B316F4804F0DD0286830F822
:100C4C0021309BB223F4E04323F0700343F4404380
:100C5C0043F0800320F8213094F82430012B00F06D
:100C6C008D802A68217832F821309BB223F4E0433E
:100C7C0023F0400383F0300343F4004343F080033C
:100C8C0022F82130002070BD0023A361D1E76378E6
:100C9C00002B48D12A68B2F8503012FA83F363441F
:100CAC00B3F80224C2F30902A3F80224B3F8022415
:100CBC006FEA42426FEA524292B2A3F802242A68C7
:100CCC006378002B3BD1B2F8503012FA83F32278C0
:100CDC0003EBC203B3F80624C2F30902A3F80624FB
:100CEC00B3F806246FEA42426FEA524292B2A3F87A
:100CFC000624E378022B2FD02178284603F0F6F94E
:100D0C0016F4804FBED02A68217832F821309BB27D
:100D1C0023F4E04323F0700343F4404343F0800397
:100D2C0022F82130AEE7012BC9D12A68B2F8503035
:100D3C0012FA83F363440022A3F80224BFE7012BC9
:100D4C00D7D1B2F8503012FA83F3227803EBC203F6
:100D5C000022A3F80624CCE72A68217832F8213047
:100D6C009BB223F4E04323F0400383F0200343F4CD
:100D7C00004343F0800322F82130BDE7636913443C
:100D8C006361E3691344E361216A236999421DD3CA
:100D9C00C91A21626278002A43D12968B1F850201F
:100DAC0011FA82F2217802EBC102B2F80214C1F3FB
:100DBC000901A2F80214A3B9B2F802146FEA414176
:100DCC006FEA514189B2A2F802142CE019B984F8E7
:100DDC0024101346DEE7002384F8243023620B46EC
:100DEC00D8E73E2B0DD8590813F0010F00D0013174
:100DFC00B2F8020480B2890289B20143A2F802144B
:100E0C0011E0580913F01F0F00D10138B2F8021489
:100E1C0089B2800280B2014341F40041A2F802146D
:100E2C0001E0012A06D09BB222896169286802F090
:100E3C000CFB16E72968B1F8502011FA82F22178E0
:100E4C0002EBC10299B2A2F80214ECE70268B2F804
:100E5C0050300978C80010FA83F31344B3F8062411
:100E6C00C2F30902A369934246D39B1AA361A369F7
:100E7C00002B44D016F4804F0DD1286830F8213067
:100E8C009BB223F4E04323F0700343F4404343F05C
:100E9C00800320F8213094F82430012B7FF4E1AE4C
:100EAC00636913446361E3691344E361216A236951
:100EBC009942C0F09C80C91A216229686278002A84
:100ECC0040F0C080B1F8502011FA82F2217802EB88
:100EDC00C102B2F80614C1F30901A2F80614002BE2
:100EEC0040F09080B2F806146FEA41416FEA51412C
:100EFC0089B2A2F80614A7E00023A361B7E76378D0
:100F0C00002B49D12A68B2F8503012FA83F303440B
:100F1C00B3F80224C2F30902A3F80224B3F80224A2
:100F2C006FEA42426FEA524292B2A3F802242A6854
:100F3C006378002B3CD1B2F8503012FA83F322784C
:100F4C0003EBC203B3F80624C2F30902A3F8062488
:100F5C00B3F806246FEA42426FEA524292B2A3F807
:100F6C000624E378022B30D02178284603F0BEF813
:100F7C0016F4804F7FF486AE2A68217832F821303F
:100F8C009BB223F4E04323F0700343F4404343F05B
:100F9C00800322F8213075E6012BC8D12A68B2F8FB
:100FAC00503012FA83F303440022A3F80224BEE764
:100FBC00012BD6D1B2F8503012FA83F3227803EB1E
:100FCC00C2030022A3F80624CBE72A68217832F862
:100FDC0021309BB223F4E04323F0400383F0200341
:100FEC0043F4004343F0800322F82130BCE719B9E5
:100FFC0084F82410134660E70023236284F824301D
:10100C000B465AE73E2B0DD8590813F0010F00D0B0
:10101C000131B2F8060480B2890289B20143A2F808
:10102C00061411E0580913F01F0F00D10138B2F863
:10103C00061489B2800280B2014341F40041A2F847
:10104C00061401E0012A06D09BB262896169286806
:10105C0002F0FBF905E6B1F8502011FA82F2217882
:10106C0002EBC10299B2A2F80614EDE72DE9F041AA
:10107C00054653E003889BB223F4E14323F070034D
:10108C006FEA43436FEA53439BB203802968B1F87C
:10109C0050302A7CD20012FA83F30B44B3F802349A
:1010AC00C3F30903EB626A6A1A446A620021284698
:1010BC0003F01CF82B7B8BB3AB6A7BBB2B7B2A68B6
:1010CC0043F08003A2F84C3000232B7326E00388F6
:1010DC009BB223F4804323F0700383F4805348F2D3
:1010EC0080010B4303802A6813889BB223F4E043EE
:1010FC0023F0400383F010030B4313802A681388FA
:10110C009BB223F070031B051B0D43F0800313806F
:10111C000020BDE8F08112F4004F37D12868B0F8F8
:10112C00443013F4004FF3D0B0F84440A3B214F0A1
:10113C000F0466D113F0100F9CD003889AB213F4ED
:10114C00006FE8D0B0F8503095F85021D20012FA68
:10115C0083F30344B3F80634C3F30903C5F86C31C5
:10116C00082BB4D1B5F8562105F5267102F046FCD2
:10117C002A6813889BB223F070031B051B0D43F0E8
:10118C0080031380284602F09DFFC7E703889BB2BB
:10119C0023F070031B051B0D43F0800303802868AC
:1011AC00B0F8503095F85021D20012FA83F3034472
:1011BC00B3F80634C3F30903C5F86C316BB9038873
:1011CC009BB223F4804323F0700383F4405343F425
:1011DC00004343F080030380A0E7D5F86411002995
:1011EC009CD0B5F8562102F009FCD5F86431D5F83D
:1011FC006C211344C5F864310021284602F06AFFC3
:10120C008CE730F824309EB213F4004F4DD116F019
:10121C00800F83D004EB8401C900103129442A6863
:10122C0032F824309BB223F4E14323F070036FEACD
:10123C0043436FEA53439BB222F8243004EB8403FC
:10124C0005EBC303DB7C012B00F0F18016F4807FEF
:10125C0040F088812868B0F8503004EB840205EB2C
:10126C00C202167CF20012FA83F30344B3F8023480
:10127C00C3F30903621C02EB820255F832209A4236
:10128C0040F25381671C07EB8707D21A45F83720C9
:10129C00621C02EB820255F83220002A40F04C818D
:1012AC003146284602F022FF38E730F824309BB252
:1012BC0023F070031B051B0D43F0800320F8243032
:1012CC0004EB8401C90001F5A87105EB010804EBDE
:1012DC00840305EBC30393F85C31DBBB2868B0F8DF
:1012EC00503004EB840205EBC20292F85021D2007C
:1012FC0012FA83F30344B3F80674C7F30907EFB982
:10130C0004EB840305EBC303D3F86C213A44C3F814
:10131C006C21D3F868313BB104EB840305EBC303B8
:10132C00D3F860319F4270D204EB840305EBC30306
:10133C0093F85011284602F0CDFE68E704EB8401C7
:10134C0005EBC1013B46B1F85621D1F8641102F00E
:10135C0055FBD5E704EB840305EBC30393F853313A
:10136C00022B33D0296804EB840205EBC20292F8FD
:10137C00500131F820309BB223F4E04323F070038A
:10138C0043F4004343F0C00321F82030286892F85E
:10139C00503130F8232012F4804F1ED0B0F850207A
:1013AC00DB0013FA82F30344B3F80274C7F30907A2
:1013BC00002FA5D004EB840105EBC1013B46B1F82D
:1013CC005821D1F8641102F019FB99E732464146D5
:1013DC002846FFF715FB074692E7B0F85020DB00D4
:1013EC0013FA82F30344B3F80674C7F30907002F0A
:1013FC0086D004EB840105EBC1013B46B1F85A21C0
:10140C00D1F8641102F0FAFA7AE704EB840305EBE5
:10141C00C303D3F8642104EB840305EBC3033A4400
:10142C00C3F864214146286802F021F8EFE6631CFA
:10143C0003EB8303DB000022EA5004EB840305EB8F
:10144C00C3031B7F1BB316F0400F3BD004EB84038C
:10145C0005EBC3035B7C1BBB2A68B2F8503012FA55
:10146C0083F304EB840205EBC202127C03EBC20390
:10147C00B3F80224C2F30902A3F80224B3F802243D
:10148C006FEA42426FEA524292B2A3F8022404EB92
:10149C00840405EBC404217C284602F027FE3DE6BB
:1014AC00012BF4D12A68B2F8503012FA83F304EB12
:1014BC00840205EBC202127C03EBC2030022A3F8E8
:1014CC000224E4E72A6804EB840305EBC3035B7C8A
:1014DC00D3B9B2F8503012FA83F304EB840205EB63
:1014EC00C202127C03EBC203B3F80624C2F3090256
:1014FC00A3F80624B3F806246FEA42426FEA52427C
:10150C0092B2A3F80624C2E7012BC0D1B2F8503036
:10151C0012FA83F304EB840205EBC202127C03EB98
:10152C00C2030022A3F80624B1E7621C02EB82027C
:10153C00D2000027AF50ABE604EB840205EBC202ED
:10154C00566A1E445662013404EB840205EBC20257
:10155C00526804EB840405EBC4041344636001F08B
:10156C0086FFDBE532462846FFF749FBD6E590F8C7
:10157C009032012B0CD010B50446012380F8903228
:10158C000173006801F04CFF002084F8900210BD3C
:10159C000220704710B50446006801F052FF10F4A9
:1015AC00004F23D110F4806F24D110F4804F32D12E
:1015BC0010F4005F39D110F4805F40D110F4006F4B
:1015CC0067D110F0800F40F0818010F4007F40F064
:1015DC00AD8010F4807F27D02268B2F844309BB2E3
:1015EC0023F480739BB2A2F844301DE02046FFF731
:1015FC003DFD19E02268B2F844309BB223F48063BD
:10160C009BB2A2F84430204602F081FD0021204616
:10161C00FFF7ADFF08E02268B2F844309BB223F428
:10162C0080439BB2A2F8443010BD2268B2F844301B
:10163C009BB223F400539BB2A2F84430F4E7226827
:10164C00B2F840309BB223F004039BB2A2F84030B6
:10165C002268B2F840309BB223F008039BB2A2F888
:10166C00403094F8C832012B0CD0204602F072FDA9
:10167C002268B2F844309BB223F480539BB2A2F898
:10168C004430D1E7002184F8C812204602F01EFE37
:10169C00EBE72268B2F840309BB243F00803A2F8A3
:1016AC0040302268B2F844309BB223F400639BB202
:1016BC00A2F844302268B2F840309BB243F00403E5
:1016CC00A2F84030204602F035FDADE72268B2F8B2
:1016DC0044309BB223F080039BB2A2F8443094F8C0
:1016EC00C832FBB92268B2F840309BB243F0040315
:1016FC00A2F840302268B2F840309BB243F00803A5
:10170C00A2F84030012184F8C8122368B3F8543091
:10171C00C3F38D0303F03C03C4F8CC32204602F033
:10172C00D5FD81E7204602F005FD7DE72268B2F881
:10173C0044309BB223F400739BB2A2F84430204691
:10174C0002F0DFFC70E710B50446084611F0800F7C
:10175C0027D101F0070C0CEB8C01C90001F5A87E18
:10176C0004EB0E010CEB8C0C04EBCC0C4FF0000ECC
:10177C008CF851E100F007000870C2F30A020A610C
:10178C00CB70022B1DD094F89032012B1CD001236E
:10179C0084F89032206801F02CFA002084F8900232
:1017AC0010BD01F0070C0CEB8C01C9001031214469
:1017BC000CEB8C0C04EBCC0C4FF0010E8CF811E004
:1017CC00D8E700230B71DEE70220E9E710B50446E9
:1017DC000A4611F0800F1FD101F0070000EB8003C7
:1017EC00DB0003F5A873E11800EB800004EBC000EC
:1017FC00002380F8513102F007020A7094F89032FD
:10180C00012B17D0012384F89032206801F0AAFC38
:10181C00002084F8900210BD01F0070000EB80035B
:10182C00DB001033E11800EB800004EBC000012357
:10183C004374E0E70220EEE710B501F0070C0CEB67
:10184C008C01C90001F5A8710CEB8C0E00EBCE0ECF
:10185C00CEF86421CEF868310024CEF86C418EF8B5
:10186C0051418EF850C10144006801F000FE204641
:10187C0010BD01F0070101EB810100EBC100D0F8B4
:10188C006C01704738B501F0070C0CEB8C01C900EA
:10189C0010310CEB8C0E00EBCE0ECEF824200CF19C
:1018AC00010202EB820440F8343001258EF83450EA
:1018BC00CEF8303000EBC402002454608EF8115086
:1018CC008EF810C00144006801F0D1FD204638BDEF
:1018DC000B4601F00702017991422ED310B5044654
:1018EC0013F0800F1DD103EB8301C90001F5A87122
:1018FC00014403EB830300EBC303002083F8510185
:10190C0001238B700A7094F89032012B17D00123AD
:10191C0084F89032206801F010FD002084F89002C9
:10192C0010BD02EB8201C9001031014402EB8203AD
:10193C0000EBC30301205874E2E70120704702203A
:10194C00EEE70B46017903F00F02914234D310B548
:10195C00044613F0800F21D103F0070202EB820141
:10196C00C90001F5A871014402EB820200EBC2022E
:10197C00002082F8510100228A7003F007030B70DB
:10198C0094F89032012B19D0012384F890322068FE
:10199C0001F0F8FC002084F8900210BD03F007025F
:1019AC0002EB8201C9001031014402EB820200EB10
:1019BC00C20201205074DEE7012070470220ECE7E0
:1019CC0011F0800F0BD001F0070101EB8101C90070
:1019DC001031084452B90273C3800020704701EBE8
:1019EC008101C90001F5A8710844F3E701220273D3
:1019FC0003811B0C4381F0E7034602680121C0F808
:101A0C00D012002083F8C802B2F854309BB20B43BA
:101A1C00A2F85430B2F854309BB243F00203A2F84F
:101A2C0054307047024A136843F480731360704754
:101A3C0000040058024B186800F4C060704700BFE7
:101A4C0000040058024A536843F4806353607047A3
:101A5C000004005830B58DB004468E46DFF8B0C097
:101A6C009CE80F000CAD05E90F0005AB0CF1100262
:101A7C0007CA83E8070001AD0CF11C0C9CE80F00B1
:101A8C0085E80F00BEF5007F07D0002314E00CAAF8
:101A9C0002EB830353F82C5C1EE00023032B08D8C5
:101AAC000CAA02EB830252F8102CA242EFD20133A3
:101ABC00F4E7002510E00133022B0CD80CAA02EB42
:101ACC00830252F81C2CA242F5D30CAA02EB83031E
:101ADC0053F82C5C00E000250C4A136823F0070334
:101AEC002B431360FEF7D4FC0446084B1B6803F031
:101AFC000703AB4206D0FEF7CBFC001B0228F4D93F
:101B0C00032000E000200DB030BD00BF00400058A5
:101B1C00EC50000810B5B02818D90F4BDB6A4FF009
:101B2C00B042D2F8082102F00F020C4951F82220E1
:101B3C00B3FBF2F30A4AA2FB03239B0C1C46FFF7F0
:101B4C0079FF01462046FFF785FF10BDC0F3031057
:101B5C00014B53F82030E2E71851000858510008A7
:101B6C0083DE1B434FF0B0439B6813F00C030DD185
:101B7C004FF0B0431B6803F0F003B02B04D81B09E3
:101B8C00254A52F823007047B023F8E7042B3ED0C7
:101B9C00082B10D04FF0B043DB6803F00303022B8B
:101BAC0031D0032B0FD14FF0B0431B6813F4801FBF
:101BBC002BD11A4812E04FF0B0431B6813F4801F6E
:101BCC0027D0174870474FF0B0431B6803F0F00361
:101BDC00B02B16D81B09104A52F823004FF0B04214
:101BEC00D368C3F3062303FB00F0D368C3F30213DB
:101BFC000133B0FBF3F0D3685B0F0133B0FBF3F0B0
:101C0C007047B023E6E70648E8E70548E6E70448EE
:101C1C0070470248704700BF185100080048E8019F
:101C2C000024F40008B5FFF79DFF4FF0B0439B680C
:101C3C00C3F30313024A52F82330B0FBF3F008BD90
:101C4C0058510008002800F0758338B50446036825
:101C5C0013F0200F2DD04FF0B0429368D26802F0F1
:101C6C00030213F00C0358D00C2B54D0E369002B57
:101C7C0000F0A0804FF0B042136843F001031360F2
:101C8C00FEF706FC05464FF0B0431B6813F0020F3D
:101C9C0000F08880636A4FF0B042116821F0F001C7
:101CAC000B431360216A536823F47F4343EA0123F7
:101CBC005360236813F0010F00F09A804FF0B0428C
:101CCC00936803F00C03D26802F00302082B00F0B7
:101CDC008B800C2B00F085806368B3F5803F00F09F
:101CEC00B0804FF0B042136823F480331360636804
:101CFC00002B00F0AD80FEF7CBFB05464FF0B04358
:101D0C001B6813F4003F73D1FEF7C2FB401B642821
:101D1C00F4D9032019E3012AA8D1E369002B00F0C0
:101D2C000B83606A4FF0B0431B6803F0F003B02BD9
:101D3C0021D8984221D9FFF7EDFE002840F0FE8211
:101D4C00636A4FF0B042116821F0F0010B4313604D
:101D5C00216A536823F47F4343EA01235360FFF75E
:101D6C0061FFBD4B1860BD4B1868FEF745FB0028A2
:101D7C009FD00120E9E2B023DBE74FF0B0421368BB
:101D8C0023F0F00318431060216A536823F47F4357
:101D9C0043EA01235360606AFFF7BCFE0028DED0E3
:101DAC000120D2E2FEF774FB401B02287FF66BAFDA
:101DBC000320CAE24FF0B042136823F00103136012
:101DCC00FEF766FB05464FF0B0431B6813F0020F9D
:101DDC003FF46FAFFEF75CFB401B0228F3D90320E6
:101DEC00B3E2032A7FF478AF6368002B00F0A8827B
:101DFC00236813F0020F54D04FF0B042936803F0F5
:101E0C000C03D26802F00302042B33D00C2B2FD01E
:101E1C00E368002B74D04FF0B042136843F4807326
:101E2C001360FEF735FB05464FF0B0431B6813F407
:101E3C00806F2DD1FEF72CFB401B0228F4D9032018
:101E4C0083E24FF0B042136843F4803313604EE7E3
:101E5C00FEF71EFB05464FF0B0431B6813F4003F22
:101E6C00C6D0FEF715FB401B6428F4D903206CE2A6
:101E7C00022ACDD1E368002B00F0648221694FF077
:101E8C00B042536823F0FE4343EA0163536008E019
:101E9C0021694FF0B042536823F0FE4343EA0163DB
:101EAC005360236813F0080F03D113F0100F00F0E8
:101EBC00DE806269002A00F0A38013F0100F70D04E
:101ECC004FF0B043D3F8943013F0020F2ED14FF0F3
:101EDC00B042D2F8943043F00103C2F89430FEF7CC
:101EEC00D7FA05464FF0B043D3F8943013F0020FF5
:101EFC001CD1FEF7CDFA401B0228F3D9032024E2B3
:101F0C004FF0B042136823F480731360FEF7C0FAED
:101F1C0005464FF0B0431B6813F4806FC1D0FEF739
:101F2C00B7FA401B0228F4D903200EE24FF0B0425E
:101F3C00D2F8943043F00403C2F89430FEF7A8FAB8
:101F4C0005464FF0B043D3F8943013F0080F06D188
:101F5C00FEF79EFA401B0328F3D90320F5E1A16993
:101F6C004FF0B042D2F8943023F4706343EA01236B
:101F7C00C2F89430D2F8943023F00103C2F89430B4
:101F8C00FEF786FA05464FF0B043D3F8943013F0C1
:101F9C00020F6CD0FEF77CFA401B0228F3D9032009
:101FAC00D3E14FF0B042D2F8943043F00103C2F8C1
:101FBC009430FEF76DFA05464FF0B043D3F89430E9
:101FCC0013F0020F06D1FEF763FA401B0228F3D977
:101FDC000320BAE14FF0B042D2F8943023F004035E
:101FEC00C2F894304FF0B043D3F8943013F0080F8C
:101FFC003DD0FEF74DFA401B0328F3D90320A4E192
:10200C004FF0B042D2F8943023F00403C2F894306D
:10201C00FEF73EFA05464FF0B043D3F8943013F078
:10202C00080F1DD14FF0B042D2F8943023F00103C9
:10203C00C2F89430FEF72CFA05464FF0B043D3F8B3
:10204C00943013F0020F12D0FEF722FA401B022834
:10205C00F3D9032079E100BF100000200C00002010
:10206C00FEF716FA401B0328D5D903206DE123682F
:10207C0013F0040F68D0B64B1B6813F4807F27D085
:10208C00A368012B35D0052B3CD04FF0B043D3F8CF
:10209C00902022F00102C3F89020D3F8902022F077
:1020AC000402C3F89020A368DBB3FEF7F1F90546F0
:1020BC004FF0B043D3F8903013F0020F44D1FEF739
:1020CC00E7F9401B41F288339842F1D903203CE1F7
:1020DC00FFF7A8FCFEF7DCF905469D4B1B6813F4D3
:1020EC00807FCDD1FEF7D4F9401B0228F5D903200F
:1020FC002BE14FF0B042D2F8903043F00103C2F81C
:10210C009030D0E74FF0B043D3F8902042F0040267
:10211C00C3F89020D3F8902042F00102C3F890202D
:10212C00C1E7FEF7B5F905464FF0B043D3F8903050
:10213C0013F0020F08D0FEF7ABF9401B41F28833C5
:10214C009842F1D9032000E1236813F0400F33D0FB
:10215C00A36AC3B14FF0B042D2F8983043F00103F8
:10216C00C2F89830FEF794F905464FF0B043D3F817
:10217C00983013F0020F1FD1FEF78AF9401B02288A
:10218C00F3D90320E1E04FF0B042D2F8983023F0BD
:10219C000103C2F89830FEF77BF905464FF0B043C7
:1021AC00D3F8983013F0020F06D0FEF771F9401BEC
:1021BC000228F3D90320C8E0E36A002B00F0C480A6
:1021CC004FF0B042916801F00C01D268022B19D08B
:1021DC000C2900F0C3804FF0B042136823F08073D9
:1021EC001360FEF755F904464FF0B0431B6813F02B
:1021FC00007F00F09780FEF74BF9001B0228F3D903
:10220C000320A2E002F00303206B83420AD00C29C6
:10221C0000F09C804FF0B0431B6813F0806F22D00D
:10222C00012092E002F07003606B8342EFD1C2F3A5
:10223C000623A06B8342EAD102F47813E06B83424D
:10224C00E5D102F06063206C8342E0D102F0604281
:10225C00636C9A42DBD14FF0B0431B6813F0007FE4
:10226C0044D0002071E04FF0B042136823F080732B
:10227C001360FEF70DF905464FF0B0431B6813F0E1
:10228C00007F06D0FEF704F9401B0228F4D9032086
:10229C005BE04FF0B042D3682E491940236B606B62
:1022AC000343A06B43EA0023E06B0343206C03431E
:1022BC00606C03431943D160136843F0807313605F
:1022CC00D36843F08053D360FEF7E2F804464FF036
:1022DC00B0431B6813F0007F06D1FEF7D9F8001B42
:1022EC000228F4D9032030E000202EE04FF0B04358
:1022FC001A6842F080721A60DA6842F08052DA6032
:10230C00FEF7C6F804464FF0B0431B6813F0007F8D
:10231C0006D1FEF7BDF8031B022BF4D9032014E001
:10232C00002012E04FF0B042D1680B4B0B40D36051
:10233C0000200AE001207047012006E0012004E0A3
:10234C00012002E0012000E0184638BD0120FCE726
:10235C00000400588C80C111FCFFFEEE0120F4E754
:10236C00002800F0278170B50C460546934B1B687E
:10237C0003F007038B422DD32B6813F0020F3FD1D0
:10238C002B6813F0200F53D12B6813F0400F6AD138
:10239C002B6813F0040F40F083802B6813F0080FA8
:1023AC0040F097802B6813F0010F00F0DE806B6813
:1023BC00022B00F0A880032B00F0AD80002B40F026
:1023CC00B2804FF0B042126812F0020F40F0B180B0
:1023DC000120EEE0794A136823F007030B431360E6
:1023EC00FEF756F80646754B1B6803F00703A3422D
:1023FC00C2D0FEF74DF8801B0228F4D90320D8E098
:10240C00AB684FF0B0418A6822F0F00213438B6046
:10241C00FEF73EF806464FF0B0439B6813F4803F3E
:10242C00AED1FEF735F8801B0228F4D90320C0E0AA
:10243C006B694FF0B041D1F8082122F0F002134340
:10244C00C1F80831FEF724F806464FF0B043D3F834
:10245C00083113F4003F97D1FEF71AF8801B0228BD
:10246C00F3D90320A5E0A9694FF0B042D2F80831A6
:10247C0023F00F0343EA1113C2F80831FEF708F8F2
:10248C0006464FF0B043D3F8083113F4803F7FF485
:10249C007FAFFDF7FDFF801B0228F2D9032088E0F7
:1024AC00EB684FF0B0418A6822F4E06213438B6012
:1024BC00FDF7EEFF06464FF0B0439B6813F4003F68
:1024CC007FF46BAFFDF7E4FF801B0228F3D90320E8
:1024DC006FE029694FF0B042936823F4605343EAEC
:1024EC00C1039360FDF7D4FF06464FF0B0439B68E1
:1024FC0013F4802F7FF456AFFDF7CAFF801B022820
:10250C00F3D9032055E04FF0B042126812F4003FAB
:10251C000FD101204DE04FF0B042126812F0007F55
:10252C0007D1012045E04FF0B042126812F4806FE1
:10253C0042D04FF0B0418A6822F0030213438B6003
:10254C00FDF7A6FF06464FF0B0439B6803F00C0363
:10255C006A68B3EB820F08D0FDF79AFF801B41F23B
:10256C0088339842EFD9032023E0144B1B6803F007
:10257C000703A34215D9114A136823F00703234319
:10258C001360FDF785FF05460C4B1B6803F0070332
:10259C00A34206D0FDF77CFF401B0228F4D9032090
:1025AC0007E0FFF73FFB064B1860FDF777FFFDF7E1
:1025BC0023FF70BD012070470120FAE7004000584E
:1025CC00100000204FF0B041D1F88830020902F41D
:1025DC007F2223EA0203000100F47F200343C1F8A9
:1025EC008830704770B505464FF0B042136823F041
:1025FC0080631360FDF74CFF04464FF0B0431B683B
:10260C0013F0006F06D0FDF743FF001B0228F4D92E
:10261C00032400E000240CB1204670BD4FF0B04301
:10262C001A6922F4FE42296842EA01221A611A69E7
:10263C0022F4781269680A431A611A6842F08062BF
:10264C001A60FDF725FF06464FF0B0431B6813F0E8
:10265C00006F05D1FDF71CFF801B0228F4D9032461
:10266C00002CD9D14FF0B042136929690B43136187
:10267C00D2E770B505464FF0B042136823F0806383
:10268C001360FDF705FF04464FF0B0431B6813F0D1
:10269C00006F06D0FDF7FCFE001B0228F4D90324C2
:1026AC0000E000240CB1204670BD4FF0B0431A6915
:1026BC0022F4FE42296842EA01221A611A6922F0C8
:1026CC006062A9680A431A611A6842F080621A6053
:1026DC00FDF7DEFE06464FF0B0431B6813F0006FAB
:1026EC0005D1FDF7D5FE801B0228F4D90324002C5C
:1026FC00D9D14FF0B042136929690B431361D2E76A
:10270C0070B505464FF0B042136823F08063136038
:10271C00FDF7BEFE04464FF0B0431B6813F0006F8C
:10272C0006D0FDF7B5FE001B0228F4D9032400E007
:10273C0000240CB1204670BD4FF0B0431A6922F44E
:10274C00FE42296842EA01221A611A6922F06042AB
:10275C00E9680A431A611A6842F080621A60FDF750
:10276C0097FE06464FF0B0431B6813F0006F05D17F
:10277C00FDF78EFE801B0228F4D90324002CD9D13E
:10278C004FF0B042136929690B431361D2E770B55E
:10279C000446036813F0400F35D0036BB3F5800F7C
:1027AC0016D00BD833B90430FFF71CFF0646B8B16E
:1027BC0005462BE001231D461E4627E0B3F5000F0E
:1027CC001BD0B3F5400F1BD001231D461E461DE048
:1027DC004FF0B042D36843F48033D36000231E46DD
:1027EC00236B4FF0B041D1F8882022F44002134300
:1027FC00C1F8883000231D4608E000231E46EFE791
:10280C0000231E46ECE700231D461E46236813F4E6
:10281C00006F0BD04FF0B043D3F8903003F44073FB
:10282C001D46236CAB4240F0B7803546236813F04D
:10283C00010F09D0A3694FF0B041D1F8882022F0E4
:10284C0003021343C1F88830236813F0020F09D038
:10285C00E3694FF0B041D1F8882022F44062134371
:10286C00C1F88830236813F0100F0CD0A16A4FF018
:10287C00B042D2F88830080C000423EA000343EA83
:10288C000143C2F88830236813F0200F0CD0E16AA2
:10289C004FF0B042D2F88830080C000423EA000351
:1028AC0043EA0143C2F88830236813F0040F40F068
:1028BC00B580236813F0080F40F0B480236813F43C
:1028CC00807F13D0636B4FF0B041D1F8882022F099
:1028DC0040621343C1F88830636BB3F1006F00F0B2
:1028EC00A580636BB3F1806F00F0A580236813F4AF
:1028FC00007F17D0A36BB3F1804F05D0B3F1004F1D
:10290C0002D0002B40F09F804FF0B041D1F88820CE
:10291C0022F040421343C1F88830A36BB3F1C05F7F
:10292C0000F0A380236813F4806F13D0E36B4FF097
:10293C00B041D1F8882022F040521343C1F88830BE
:10294C00E36BB3F1005F00F09780E36BB3F1805F52
:10295C0000F09780236813F4805F09D0636C4FF00C
:10296C00B041D1F8942022F440421343C1F8943082
:10297C00236813F4005F0DD0E26C4FF0B043596A3A
:10298C0021F030010A435A62A26C596A21F003010A
:10299C000A435A62284670BDFFF744F85DB9236CB0
:1029AC004FF0B041D1F8902022F440721343C1F89B
:1029BC00903035463AE74FF0B043D3F89020D3F837
:1029CC00901041F48031C3F89010D3F8901021F49A
:1029DC008031C3F8901022F44072216C0A43C3F882
:1029EC009020D3F8903013F0010F13D0FDF750FD69
:1029FC0005464FF0B043D3F8903013F0020F0BD1D3
:102A0C00FDF746FD401B41F288339842F1D9032370
:102A1C001D460BE7354609E7354607E7206AFFF701
:102A2C00D1FD46E7606AFFF7CDFD47E7CB6843F081
:102A3C008073CB6055E7201DFFF71BFE00283FF489
:102A4C0055AF054652E723F080534FF0B042D2F811
:102A5C00881021F04041C2F88810D2F8881021F07B
:102A6C0040610B43C2F8883057E74FF0B042D3684F
:102A7C0043F08073D36055E7CB6843F48033CB606D
:102A8C0063E7201DFFF73CFE00283FF463AF0546CB
:102A9C0060E74FF0B042136843F0040313607047D3
:102AAC0000286AD010B50446436A33B94368B3F5BD
:102ABC00827F05D00023C36102E0002303614361E0
:102ACC000023A36294F85D30002B4DD0022384F8D0
:102ADC005D302268136823F040031360E368B3F59C
:102AEC00E06F47D90022B3F5706F04D0B3F5E06FF7
:102AFC0001D00023A362636803F48273A16801F41C
:102B0C0004410B43216901F002010B43616901F09F
:102B1C0001010B43A16901F400710B43E16901F060
:102B2C0038010B43216A01F080010B43A16A01F4C7
:102B3C00005120680B430360638B03F00403616A4C
:102B4C0001F010010B43616B01F008010B43E168CC
:102B5C0001F470610B43216813434B600020206625
:102B6C00012384F85D3010BD84F85C302046FDF7FD
:102B7C0015FFABE74FF48052B5E701207047FEE735
:102B8C00FEE7FEE7FEE7FEE770477047704708B5C3
:102B9C00FDF772FC08BD000008B50248FEF7FAFC10
:102BAC0008BD00BFD816002003460020A3F844003F
:102BBC004BF68072A3F840207047B0F840309BB2BF
:102BCC0023F47E535B045B0CA0F84030002070476C
:102BDC0082B0034602A800E906000122A3F84020B7
:102BEC000020A3F84000A3F84400A3F8500002B062
:102BFC00704700B5034691F800C030F82C2092B213
:102C0C0022F4EC4222F0700292B2C878022867D00B
:102C1C0008D878B1012803D142F4806200200BE07F
:102C2C00012009E0032803D142F4C062002003E034
:102C3C00012001E042F4007248F2800E42EA0E02DA
:102C4C0023F82C2091F800C033F82C2092B222F4F7
:102C5C00E04222F070024CEA020242EA0E0223F831
:102C6C002C200A7B002A40F0DC804A78002A48D0CD
:102C7C00B3F8502013FA82F291F800C002EBCC02A8
:102C8C00B1F806C04FEA5C0C4FEA4C0CA2F800C439
:102C9C0091F800C033F82C2012F0400F0CD033F810
:102CAC002C2092B222F4E04222F0700242F4004254
:102CBC0042F0C00223F82C20CA78012A12D00978DD
:102CCC0033F8212092B222F4E04222F0400282F04A
:102CDC00200242F4004242F0800223F82120D8E185
:102CEC000020A9E7097833F8212092B222F4E042BF
:102CFC0022F0400242F4004242F0800223F82120EC
:102D0C00C7E1B3F8502013FA82F291F800C002EB3D
:102D1C00CC02B1F806C04FEA5C0C4FEA4C0CA2F89E
:102D2C0004C4B3F8502013FA82F291F800C002EBFD
:102D3C00CC02B2F806C4CCF3090CA2F806C4D1F844
:102D4C0010C0BCF1000F2FD1B2F806C46FEA4C4C86
:102D5C006FEA5C4C1FFA8CFCA2F806C491F800C018
:102D6C0033F82C2012F4804F0CD033F82C2092B274
:102D7C0022F4E04222F0700242F4404242F080021F
:102D8C0023F82C200978E1BB33F8212092B222F4ED
:102D9C00804222F0700282F4405242F4004242F02F
:102DAC00800223F8212074E1BCF13E0F13D84FEAC6
:102DBC005C0E1CF0010F01D00EF1010EB2F806C42E
:102DCC001FFA8CFC4FEA8E2E1FFA8EFE4CEA0E0C6C
:102DDC00A2F806C4C2E74FEA5C1E1CF01F0F01D11B
:102DEC000EF1FF3EB2F806C41FFA8CFC4FEA8E2E91
:102DFC001FFA8EFE4CEA0E0C4CF4004CA2F806C4E2
:102E0C00ACE733F8212092B222F4804222F0700217
:102E1C0082F4005242F4004242F0800223F8212056
:102E2C0037E1CA78022A7BD091F800C033F82C2005
:102E3C0092B222F4E24222F0700242F4004242F0DA
:102E4C00800223F82C20B3F8502013FA82F291F868
:102E5C0000C002EBCC02B1F808C04FEA5C0C4FEAA0
:102E6C004C0CA2F800C4B3F8502013FA82F291F87B
:102E7C0000C002EBCC02B1F80AC04FEA5C0C4FEA7E
:102E8C004C0CA2F804C44A78002A40F0108191F846
:102E9C0000C033F82C2012F4804F0CD033F82C20C7
:102EAC0092B222F4E04222F0700242F4404242F02C
:102EBC00800223F82C2091F800C033F82C2012F05B
:102ECC00400F0CD033F82C2092B222F4E04222F0C6
:102EDC00700242F4004242F0C00223F82C204A78DF
:102EEC00002A5AD1B3F8502013FA82F291F800C09C
:102EFC0002EBCC02B2F802C4CCF3090CA2F802C467
:102F0C00D1F810C0BCF1000F1AD1B2F802C46FEAAC
:102F1C004C4C6FEA5C4C1FFA8CFCA2F802C43EE0ED
:102F2C0091F800C033F82C2092B222F4E04222F047
:102F3C00700242F4014242F0800223F82C2082E716
:102F4C00BCF13E0F13D84FEA5C0E1CF0010F01D000
:102F5C000EF1010EB2F802C41FFA8CFC4FEA8E2E51
:102F6C001FFA8EFE4CEA0E0CA2F802C417E04FEAD0
:102F7C005C1E1CF01F0F01D10EF1FF3EB2F802C413
:102F8C001FFA8CFC4FEA8E2E1FFA8EFE4CEA0E0CAA
:102F9C004CF4004CA2F802C401E0012A20D04A787B
:102FAC00002A57D1B3F8502013FA82F291F800C0DE
:102FBC0002EBCC02B2F806C4CCF3090CA2F806C49E
:102FCC00D1F810C0BCF1000F17D1B2F806C46FEAEB
:102FDC004C4C6FEA5C4C1FFA8CFCA2F806C43BE02C
:102FEC00B3F8502013FA82F291F800C002EBCC0235
:102FFC00B1F810C0A2F802C4D1E7BCF13E0F13D84F
:10300C004FEA5C0E1CF0010F01D00EF1010EB2F86C
:10301C0006C41FFA8CFC4FEA8E2E1FFA8EFE4CEA69
:10302C000E0CA2F806C417E04FEA5C1E1CF01F0F32
:10303C0001D10EF1FF3EB2F806C41FFA8CFC4FEA28
:10304C008E2E1FFA8EFE4CEA0E0C4CF4004CA2F89D
:10305C0006C401E0012A1DD091F800E033F82E20BF
:10306C0092B222F4804222F0700282F4405248F272
:10307C00800C42EA0C0223F82E20097833F8212028
:10308C0092B222F4E04222F0400242EA0C0223F80F
:10309C00212000BDB3F8502013FA82F291F800C041
:1030AC0002EBCC02B1F810C0A2F806C4D4E791F838
:1030BC0000C033F82C2012F4804F0CD033F82C20A5
:1030CC0092B222F4E04222F0700242F4404242F00A
:1030DC00800223F82C2091F800C033F82C2012F039
:1030EC00400F0CD033F82C2092B222F4E04222F0A4
:1030FC00700242F4004242F0C00223F82C20CA783D
:10310C00012A1FD091F800C033F82C2092B222F47F
:10311C00E04222F0400282F0200242F4004242F0EF
:10312C00800223F82C20097833F8212092B222F463
:10313C00804222F0700242F4004242F0800223F8F6
:10314C002120A6E791F800C033F82C2092B222F48B
:10315C00E04222F0400242F4004242F0800223F8A6
:10316C002C20E0E70B7B002B46D14B7813B30A786D
:10317C0030F8223013F0400F0CD030F822309BB2D4
:10318C0023F4E04323F0700343F4004343F0C00303
:10319C0020F822300A7830F822309BB223F4E04336
:1031AC0023F0400343F4004343F0800320F8223023
:1031BC00002070470A7830F8223013F4804F0CD07E
:1031CC0030F822309BB223F4E04323F0700343F435
:1031DC00404343F0800320F822300A7830F8223044
:1031EC009BB223F4804323F0700343F4004343F079
:1031FC00800320F82230DBE74B78002B4ED10A7885
:10320C0030F8223013F4804F0CD030F822309BB2BF
:10321C0023F4E04323F0700343F4404343F0800372
:10322C0020F822300A7830F8223013F0400F0CD0FE
:10323C0030F822309BB223F4E04323F0700343F4C4
:10324C00004343F0C00320F822300A7830F82230D3
:10325C009BB223F4E04323F0700343F4004343F0A8
:10326C00C00320F822300A7830F822309BB223F4C5
:10327C00804323F0700348F2800C43EA0C0320F8DF
:10328C0022300A7830F822309BB223F4E04323F04A
:10329C00400343EA0C0320F8223089E70A7830F81F
:1032AC00223013F4804F0CD030F822309BB223F430
:1032BC00E04323F0700343F4404343F0800320F8D1
:1032CC0022300A7830F8223013F0400F0CD030F84E
:1032DC0022309BB223F4E04323F0700343F4004309
:1032EC0043F0C00320F822300A7830F822309BB229
:1032FC0023F4E04323F0700343F4404343F0800392
:10330C0020F822300A7830F822309BB223F4E043C4
:10331C0023F0400348F2800C43EA0C0320F82230DF
:10332C000A7830F822309BB223F4804323F07003E8
:10333C0043EA0C0320F822303AE74B788BB10A7839
:10334C0030F822309BB223F4E04323F0400383F0A7
:10335C00100343F4004343F0800320F82230002094
:10336C0070470A7830F822309BB223F4804323F064
:10337C00700383F4805343F4004343F0800320F83C
:10338C002230ECE74B7833B30A7830F8223013F064
:10339C00400F0CD030F822309BB223F4E04323F0E2
:1033AC00700343F4004343F0C00320F82230CB7881
:1033BC00012B33D00A7830F822309BB223F4E0434F
:1033CC0023F0400383F0200343F4004343F08003D5
:1033DC0020F8223022E00A7830F8223013F4804FA3
:1033EC000CD030F822309BB223F4E04323F070036E
:1033FC0043F4404343F0800320F822300A7830F83D
:10340C0022309BB223F4804323F0700383F44053A7
:10341C0043F4004343F0800320F82230002070472F
:10342C0011B98023A0F84C3000207047B0F8583008
:10343C006FEA43436FEA53439BB2A0F85830002025
:10344C007047B0F8440080B2704701335B081044F9
:10345C0000F5806008E00A7891F801C042EA0C227D
:10346C0020F8022B0231013B002BF4D1704770B5D0
:10347C0005460C464B78012B1AD00B7B002B40F0E9
:10348C0094828B69002B40F06782CB78002B40F044
:10349C0063820A7830F822309BB223F4E04323F0A5
:1034AC00700343F4014343F0800320F8223061E2BF
:1034BC008A69114616462269914200D91646217B2B
:1034CC0041B3E178022947D0226A921B226222780A
:1034DC0035F8221011F0400F00F0F681002B40F06F
:1034EC00E381B5F8503015FA83F303EBC202B2F85E
:1034FC000634C3F30903A2F80634002E40F0B4815D
:10350C00B2F806346FEA43436FEA53439BB2A2F816
:10351C000634D2E1B3B21E46E28861692846FFF751
:10352C0094FFB5F8503015FA83F3227803EBC203FD
:10353C00A3F80264227835F822309BB223F4E043DE
:10354C0023F0400383F0300343F4004343F0800343
:10355C0025F82230002024E2236A9A4280F066810A
:10356C00227835F822309BB223F4E04323F0700329
:10357C0043F4014343F0800325F82230236A9B1B5C
:10358C002362237835F8232012F0400F00F0A78037
:10359C006278B2BBB5F8502015FA82F202EBC30385
:1035AC00B3F80624C2F30902A3F806244EB9B3F803
:1035BC0006246FEA42426FEA524292B2A3F8062402
:1035CC0021E03E2E0DD8720816F0010F00D001320A
:1035DC00B3F8061489B2920292B20A43A3F80624F5
:1035EC0011E0710916F01F0F00D10139B3F8062450
:1035FC0092B2890289B20A4342F40042A3F806242B
:10360C0001E0012A29D0B3B2628961692846FFF72B
:10361C001CFF636933446361236A2269934226D990
:10362C009B1B23626378002B45D1B5F8503015FAFB
:10363C0083F3227803EBC203B3F80224C2F309022A
:10364C00A3F80224BEB9B3F802246FEA42426FEA2F
:10365C00524292B2A3F802242FE0B5F8502015FA8A
:10366C0082F202EBC303B2B2A3F80624CBE700222A
:10367C0022621E46D6E73E2E0DD8720816F0010FB8
:10368C0000D00132B3F8021489B2920292B20A430A
:10369C00A3F8022411E0710916F01F0F00D10139B3
:1036AC00B3F8022492B2890289B20A4342F400426E
:1036BC00A3F8022401E0012B06D0B3B22289616980
:1036CC002846FFF7C2FE35E7B5F8503015FA83F3FC
:1036DC00227803EBC203B2B2A3F80224EDE76278BE
:1036EC00B2BBB5F8502015FA82F202EBC303B3F863
:1036FC000224C2F30902A3F802244EB9B3F802243F
:10370C006FEA42426FEA524292B2A3F8022421E0DD
:10371C003E2E0DD8720816F0010F00D00132B3F80E
:10372C00021489B2920292B20A43A3F8022411E065
:10373C00710916F01F0F00D10139B3F8022492B2AF
:10374C00890289B20A4342F40042A3F8022401E040
:10375C00012A29D0B3B2228961692846FFF775FE88
:10376C00636933446361236A2269934226D99B1BA4
:10377C0023626378002B45D1B5F8503015FA83F3EA
:10378C00227803EBC203B3F80624C2F30902A3F8B0
:10379C000624BEB9B3F806246FEA42426FEA5242DD
:1037AC0092B2A3F806242FE0B5F8502015FA82F255
:1037BC0002EBC303B2B2A3F80224CBE700222262CD
:1037CC001E46D6E73E2E0DD8720816F0010F00D01B
:1037DC000132B3F8061489B2920292B20A43A3F8EA
:1037EC00062411E0710916F01F0F00D10139B3F84E
:1037FC00062492B2890289B20A4342F40042A3F829
:10380C00062401E0012B06D0B3B262896169284617
:10381C00FFF71BFE8EE6B5F8503015FA83F32278CD
:10382C0003EBC203B2B2A3F80624EDE7217835F816
:10383C00212092B222F4E24222F0700242F40042C1
:10384C0042F0800225F82120B5F8502015FA82F2BA
:10385C00217802EBC1029BB2A2F802342289616981
:10386C002846FFF7F2FD65E63E2E0DD8730816F0DC
:10387C00010F00D00133B2F8061489B29B029BB23F
:10388C000B43A2F8063418E0710916F01F0F00D193
:10389C000139B2F806349BB2890289B20B4343F466
:1038AC000043A2F8063408E0B5F8503015FA83F35B
:1038BC0003EBC203B2B2A3F80624B3B26289616906
:1038CC002846FFF7C2FD35E6B3BBB5F8503015FA04
:1038DC0083F303EBC202B2F80234C3F30903A2F878
:1038EC0002344EB9B2F802346FEA43436FEA5343E1
:1038FC009BB2A2F8023428E03E2E0DD8730816F0C5
:10390C00010F00D00133B2F8021489B29B029BB2B2
:10391C000B43A2F8023418E0710916F01F0F00D106
:10392C000139B2F802349BB2890289B20B4343F4D9
:10393C000043A2F8023408E0B5F8503015FA83F3CE
:10394C0003EBC203B2B2A3F80224B3B222896169B9
:10395C002846FFF77AFDEDE5227835F822309BB248
:10396C0023F4E24323F0700343F4004343F0800359
:10397C0025F82230A3692269934213D99B1AA361BB
:10398C00227835F822309BB223F4804323F0700365
:10399C0083F4405343F4004343F0800325F8223072
:1039AC00002070BD0023A361EAE7CB78022B04D082
:1039BC00012B21D100238B61E2E7CB69002BDFD0F7
:1039CC000A7830F8223099B213F4804F10D011F0ED
:1039DC00400FD5D035F822309BB223F4E04323F0CE
:1039EC00700343F4004343F0C00325F82230C7E7CB
:1039FC0011F0400FC4D1EDE70120D2E79C465B08E3
:103A0C00104400F5806007E030F8022B0A70C2F316
:103A1C0007224A700231013B002BF5D11CF0010F3B
:103A2C0001D003880B707047164AD2F8883043F4E3
:103A3C007003C2F888304FF0B0431A6842F00102AC
:103A4C001A604FF4E0229A601968A2F1A262A2F205
:103A5C0005120A401A60D3F8942022F00502C3F82C
:103A6C009420D3F8982022F00102C3F89820064A3B
:103A7C00DA601A611A6822F480221A6000229A61B4
:103A8C00704700BF00ED00E00010042208B50022D2
:103A9C000F49104800F041FC70B90F490D4800F077
:103AAC0053FC60B90D490B4800F037FA50B909487E
:103ABC0000F06AFC48B908BDFCF7ACFBEDE7FCF77D
:103ACC00A9FBEFE7FCF7A6FBF1E7FCF7A3FBF2E79A
:103ADC00E4000020DC010020580000209C000020A5
:103AEC0010B5D0F8D43203F1B00250F822408CB1AA
:103AFC0000EB820043687BB194F80002FF280DD0E4
:103B0C009B6894F8012221469847FF2384F80032E1
:103B1C00002010BD0320FCE71846FAE70020F8E768
:103B2C000A2303800048704790000020F8B5074630
:103B3C000F4D8221284600F0A2FD064601212846A1
:103B4C0000F09DFD04468121284600F098FD0EB141
:103B5C001022B2711CB1402222710022627118B184
:103B6C00402202710022427143233B800048F8BD81
:103B7C0014000020F8B507460F4D8221284600F0AE
:103B8C007EFD06460121284600F079FD0446812180
:103B9C00284600F074FD0EB11022B2711CB1402207
:103BAC0022710022627118B140220271002242710E
:103BBC0043233B800048F8BD14000020F8B50746AD
:103BCC000F4D8221284600F05AFD06460121284659
:103BDC0000F055FD04468121284600F050FD0EB141
:103BEC001022B2711CB1002222710222627118B132
:103BFC00002202710222427143233B800048F8BD2F
:103C0C001400002038B5D0F8D432B03350F823501B
:103C1C0095B1044600F053FBC5F80C02D4F8D4322D
:103C2C00B03304EB83046368DB6805F50371D5F8E6
:103C3C0004029847002038BD0320FCE710B5D0F8EB
:103C4C00C8E2D0F8D432B03350F823C0BCF1000F26
:103C5C002FD001F00F0303EB830200EB82025269B9
:103C6C0052B103EB83040EEBC40EDEF820E0B2FB82
:103C7C00FEF40EFB142292B10023CCF81432D0F8CF
:103C8C00D432B03300EB830043681B699BB10A4606
:103C9C000CF50471DCF808029847002010BD03EB0A
:103CAC00830300EB83035A61134600F0F8FA0020FB
:103CBC00F4E70320F2E71846F0E7F0B583B0D0F84C
:103CCC00D43203F1B00250F8227000228DF8072094
:103CDC00ADF80420002F76D004460D46097811F07B
:103CEC00600633D0202E67D1EA882AB311F0800FFA
:103CFC0007D16B7887F80032EA883F2A13D8D2B202
:103D0C0012E0B03300EB83035B689B68394668783C
:103D1C009847EA88072A28BF07223946204601F02F
:103D2C0027F900264CE0402287F80122394620462C
:103D3C0001F034F9002643E0B03300EB83035B68F9
:103D4C009B68294668789847002639E06F780A2FD7
:103D5C0023D008D897B1012F32D02946204600F045
:103D6C00CBFC03262CE00B2FF7D190F89C32032BC5
:103D7C0026D0294600F0C0FC032621E090F89C32A6
:103D8C00032B04D0294600F0B7FC032618E00222CE
:103D9C0001A901F0EDF83E4612E090F89C32032B9D
:103DAC0004D0294600F0A8FC032609E001220DF1FD
:103DBC00070101F0DDF803E0294600F09DFC032625
:103DCC00304603B0F0BD0326FAE738B5044681212E
:103DDC0000F02FFA002584F837500121204600F01E
:103DEC0028FA84F877518221204600F022FA84F8D0
:103DFC004B506564D4F8D43203F1B00254F822204D
:103E0C009AB1B03304EB83035B685B689847D4F8D2
:103E1C00D432B03354F8230000F07EFAD4F8D43204
:103E2C00B03344F82350C4F8BC52002038BD70B5F0
:103E3C0004464FF4077000F06BFA002849D0054691
:103E4C004FF40772002101F012F9D4F8D432B033D8
:103E5C0044F82350C4F8BC52237C002B40D14FF4BF
:103E6C00007302228121204600F0D8F9012684F843
:103E7C0037604FF4007302223146204600F0CEF931
:103E8C0084F877611023636408230322822120467F
:103E9C0000F0C4F9012384F84B300026C5F8046205
:103EAC00D4F8D432B03304EB83035B681B689847B7
:103EBC00C5F81462C5F81862D5F804225AB3257CEB
:103ECC0015BB4FF400730121204600F0F0F9284691
:103EDC0070BDD4F8D432B03344F823000225F6E791
:103EEC00402302228121204600F098F9012684F813
:103EFC003760402302223146204600F08FF984F8C7
:103F0C00776110236364BFE740230121204600F052
:103F1C00CEF90025DBE70225D9E739B1D0F8D43248
:103F2C00B03300EB830041600020704703207047E2
:103F3C00D0F8D432B03350F823302BB1C3F8081278
:103F4C00C3F810220020704703207047D0F8D432F9
:103F5C00B03350F823301BB1C3F804120020704763
:103F6C000320704710B5D0F8D432B03350F823206A
:103F7C0092B1047C44B94FF40073D2F804220121AD
:103F8C0000F095F9204610BD4023D2F804220121FF
:103F9C0000F08DF90024F5E70324F3E700207047C7
:103FAC00002070470020704710B50146044C204695
:103FBC00FFF7CCFF2046FFF7D5FF002010BD00BF58
:103FCC00DC01002010B5064C002206492046FFF704
:103FDC00AFFF05492046FFF7B9FF002010BD00BF19
:103FEC00DC010020B8040020B80C0020022804D00A
:103FFC0005D808B103207047704701207047032093
:10400C00704708B5FCF756F908BD000010B59CB018
:10401C00044600211791189119911A911B91502265
:10402C0003A801F024F82268254B9A4201D01CB059
:10403C0010BD4FF480730393182304934FF4003393
:10404C0005934FF0007306934FF0005307934FF016
:10405C00807308934FF08063109303A8FEF797FBCF
:10406C0058BB4FF0B044E36C43F00103E364E36CE2
:10407C0003F001030293029B4FF4C05317930223E6
:10408C001893002319931A930A231B9317A94FF023
:10409C009040FCF79DFAA36D43F08063A365A36D7C
:1040AC0003F080630193019B002211461420FCF75E
:1040BC0067FA1420FCF774FAB9E7FCF7ABF8D0E711
:1040CC000068004008B500F52671D0F8D80200F061
:1040DC0071F908BD08B501EB810300EBC303D3F8FC
:1040EC006421D0F8D80200F0F6F908BD08B501EB50
:1040FC00810300EBC3035A6AD0F8D80200F04EFAE1
:10410C0008BD08B5D0F8D80200F0D1F908BD10B53B
:10411C0004464379022B09D10121D4F8D80200F0CE
:10412C00A9F9D4F8D80200F071F910BDFCF772F8B7
:10413C00F2E7000010B50446D0F8D80200F09DF963
:10414C00637A23B1024A136943F00603136110BD6D
:10415C0000ED00E010B50446437A23B9D4F8D80238
:10416C0000F099F910BD044A136923F0060313619A
:10417C00FFF747FFF2E700BF00ED00E038B505465A
:10418C00204CC4F8D802C0F8C842FDF75BFC1E4BAB
:10419C0023600823237102236371E37100232372CC
:1041AC006372A372E3722046FCF7B9FC30BB182390
:1041BC0000221146D5F8C802FDF702FC5823002254
:1041CC008021D5F8C802FDF7FBFBC023002281211A
:1041DC00D5F8C802FDF7F4FB4FF4887300220121D7
:1041EC00D5F8C802FDF7ECFB4FF480730022822156
:1041FC00D5F8C802FDF7E4FB002038BDFCF70AF83F
:10420C00D5E700BFD81600200068004008B5D0F8EC
:10421C00C802FCF7DFFCFFF7E9FE08BD08B59446C1
:10422C001A466346D0F8C802FDF78DFAFFF7DEFE9A
:10423C0008BD08B5D0F8C802FDF7C8FAFFF7D6FEDE
:10424C0008BD08B5D0F8C802FDF742FBFFF7CEFE5B
:10425C0008BD08B5D0F8C802FDF773FBFFF7C6FE22
:10426C0008BDD0F8C83211F0800F08D101F07F01E1
:10427C0001EB810103EBC10393F85201704701F08C
:10428C007F0101EB810103EBC103987C704708B5FA
:10429C00D0F8C802FDF76BF9FFF7A8FE08BD08B50A
:1042AC00D0F8C802FDF7EEFAFFF7A0FE08BD08B57E
:1042BC00D0F8C802FDF7C0FAFFF798FE08BD08B5A4
:1042CC00D0F8C802FDF7D5FA08BD000010B50446B9
:1042DC0069B1012911D1D0F8D80200F0CEF8637A77
:1042EC005BB10A4A136943F00603136105E0437A94
:1042FC0023B9D4F8D80200F0CEF810BDFFF781FE38
:10430C00024A136923F006031361F2E700ED00E0A3
:10431C0000487047B8140020704798B108B50346A0
:10432C000020C3F8B802C3F8C402C3F8D00209B124
:10433C00C3F8B412012183F89C121A701846FFF7C7
:10434C001DFF08BD0320704710B582B00023ADF8E7
:10435C000630B9B10446C0F8B812D0F8D422CB6AF2
:10436C0043B1AE3250F82230DB6A0DF106009847AB
:10437C00C4F8D002D4F8D8320133C4F8D8320020B3
:10438C0002B010BD0320FBE708B5FFF73FFF08BDE7
:10439C0008B5D0F8B83213B11B68984708BD184659
:1043AC00FCE708B5D0F8B8325B68984700B908BD8F
:1043BC000320FCE738B5044600F2AA25284600F095
:1043CC0087F90123C4F89432B4F8B032C4F89832A7
:1043DC0094F8AA1201F01F03012B07D0022B0AD06C
:1043EC0073B92946204600F063FB38BD29462046A8
:1043FC0000F09FFBF9E72946204600F0E2FBF4E7CA
:10440C0001F080012046FFF71CFFEEE7F8B50446EB
:10441C00012380F89C320023C0F894324360C0F82A
:10442C00A43280F8A032D0F8B832E3B15B68E3B1C3
:10443C00002198470746D0B9402300221146204658
:10444C00FFF7ECFE012684F863614025A4F8605167
:10445C002B46002280212046FFF7E0FE84F82360E3
:10446C0025843846F8BD1F46E6E71F46E4E70323DC
:10447C001F46E1E701740020704790F89C32042B32
:10448C0004D090F89C32DBB280F89D32042380F883
:10449C009C320020704790F89C32042B01D00020F5
:1044AC00704790F89D32DBB280F89C32F7E708B584
:1044BC0090F89C32032B01D0002008BDD0F8B83204
:1044CC00002BF9D0DB69002BF6D09847F4E70020DD
:1044DC0070470020704738B504460D46002944D17A
:1044EC00D0F89432032B01D0084638BDD0F858319F
:1044FC00B0F86021934209D890F8AA3203F01F0358
:10450C00012B12D0022B1ED0084613E09B1AC0F8C8
:10451C005831D0F864111144C0F864119A4238BF74
:10452C001A4600F04CFD2846DFE790F8AE12FFF774
:10453C00CEFF18B994F89C32032B09D0204600F01A
:10454C0046FD2846D1E790F8AE12FFF7C2FFF0E720
:10455C0000F1AE0354F823301A69002AEED0C4F8E7
:10456C00D4021B6920469847E8E701F07F01FFF76A
:10457C00B0FF88B994F89C32032BB6D100F1AE038E
:10458C0054F823309A69002AAFD0C4F8D4029B693E
:10459C00294620469847A8E70020A6E738B50446E8
:1045AC000D4600294BD1D0F89432022B07D094F849
:1045BC00A00218B1002384F8A032284638BD8269C5
:1045CC00038C9A420DD89A4219D094F89C32032B42
:1045DC0029D080212046FFF734FE204600F002FD52
:1045EC00E5E7D21A8261416A1944416200F0CEFCBF
:1045FC0000231A4619462046FFF759FED7E74269B1
:10460C009342E2D8D0F898329A42DED20022114678
:10461C0000F0BCFC0021C4F898120B460A46204658
:10462C00FFF745FEC3E7D4F8B832DA68002AD0D0D9
:10463C000022C4F8D422DB6820469847C9E741F031
:10464C008001FFF746FF88B994F89C32032BB5D153
:10465C0000F1AE0354F823305A69002AAED0C4F8E6
:10466C00D4025B69294620469847A7E70020A5E7B6
:10467C000B88027813440B800378184470474288E7
:10468C0003789A4218D930B583B004460D46ADF87C
:10469C0006306388BDF806209A420AD20DF1060155
:1046AC00FFF7E6FF4378052BF3D18378AB42F0D1CB
:1046BC0000E0002003B030BD00207047034600200E
:1046CC0002E00130C0B201331A78002AF9D17047E8
:1046DC000B7803704B7843708B78CA7843EA0223CB
:1046EC0043800B794A7943EA022383808B79CA7918
:1046FC0043EA0223C380704710B504468021FFF7BC
:10470C00A0FD00212046FFF79CFD10BD30B583B005
:10471C0004460D460023ADF806304A88130A062BD2
:10472C0000F0A58021D8022B31D0032B43D0012BD4
:10473C0040F0B780D0F8B4321B680DF10601007C54
:10474C009847EA88002A00F0B680BDF80630002BA6
:10475C0000F0AC809A4228BF1A46ADF806200146FC
:10476C00204600F005FC03B030BD072B00F08B8019
:10477C000F2B40F09680D0F8B432DB6923B10DF1E9
:10478C000601007C9847DCE7FFF7B6FFEBE7037CFC
:10479C0043B9D0F8B8329B6A0DF106009847022352
:1047AC004370CEE7D0F8B832DB6A0DF106009847BB
:1047BC0002234370C5E7D2B2032A38D00ED8012A9F
:1047CC001DD0022A27D0002A4CD1D0F8B4325B6815
:1047DC0093B10DF10601007C9847B2E7042A32D060
:1047EC00052A3FD1D0F8B4329B69002B37D00DF19C
:1047FC000601007C9847A4E7FFF77EFFB3E7D0F8EB
:10480C00B4329B6823B10DF10601007C984798E700
:10481C00FFF772FFA7E7D0F8B432DB6823B10DF1D4
:10482C000601007C98478CE7FFF766FF9BE7D0F802
:10483C00B4321B6923B10DF10601007C984780E767
:10484C00FFF75AFF8FE7D0F8B4325B6923B10DF153
:10485C000601007C984774E7FFF74EFF83E7FFF7EC
:10486C004BFF80E729462046FFF746FF7BE7037C9A
:10487C0033B9D0F8B8325B6B0DF10600984760E79E
:10488C00FFF73AFF6FE7037C43B9D0F8B8321B6BE4
:10489C000DF1060098470723437052E7FFF72CFFF2
:1048AC0061E729462046FFF727FF5CE729462046AB
:1048BC00FFF722FF57E7204600F089FB53E738B596
:1048CC0004468B8803BBCB88F3B94B887F2B1BD852
:1048DC0003F07F031A4690F89C32032B0DD015463B
:1048EC0080F89E221146FFF7D2FC204600F06FFBA9
:1048FC0035B1022384F89C3209E0FFF7FDFE06E097
:10490C00012384F89C3202E02046FFF7F5FE38BD07
:10491C0070B504460E464B88DDB2324A1570012D37
:10492C0011D890F89C22D1B2022A10D0032928D099
:10493C003146FFF7E1FE2B4B19782046FFF731FD8E
:10494C000325284670BDFFF7D7FE0325F9E7ADB167
:10495C00DBB243602946FFF71BFD054638B13146F3
:10496C002046FFF7C9FE022384F89C32E9E7204673
:10497C0000F02DFB032384F89C32E2E700F027FBC8
:10498C00DFE7D5B1DBB241688B4226D0C9B2FFF765
:10499C0008FD144B197861602046FFF7F9FC0546B9
:1049AC00B8B131462046FFF7A7FE21792046FFF724
:1049BC00F8FC022384F89C32C3E7022280F89C2284
:1049CC00DBB243602946FFF7ECFC204600F0FFFA0F
:1049DC00B7E7204600F0FBFAB3E700F0F8FA002541
:1049EC00AFE700BFB419002008B5CB88012B0BD161
:1049FC0090F89C32DAB2022B09D9032A11D1012288
:104A0C00011D00F0B5FA01E0FFF776FE08BD52B2C9
:104A1C003AB10146002341F8083F012200F0A8FA00
:104A2C00F4E7FFF769FEF1E708B590F89C32013B1B
:104A3C00022B12D8CB88022B0CD10123C360D0F8E7
:104A4C00A4320BB10323C360022200F10C0100F06D
:104A5C008FFA08BDFFF750FEFBE7FFF74DFEF8E7B6
:104A6C0008B54B88012B04D0022B07D0FFF744FE6E
:104A7C0008BDC0F8A43200F0AAFAF9E78B881B0A2B
:104A8C0080F8A03200F0A3FAF2E708B590F89C3257
:104A9C00013B022B09D84B88012B00D008BD002309
:104AAC00C0F8A43200F093FAF8E7FFF725FEF5E71B
:104ABC0038B50C7804F06004202C06D0402C04D0BF
:104ACC006CB1FFF719FE002407E0D0F8D432AE33F6
:104ADC0050F823309B6898470446204638BD4B78E5
:104AEC001D46052B12D008D8012B1CD0032B17D038
:104AFC00E3B9FFF799FF2C46EFE7082B0DD0092BF4
:104B0C0007D0062B12D1FFF701FEE6E7FFF7D7FE21
:104B1C00E3E7FFF7FDFE0446DFE7FFF765FFDCE7A1
:104B2C00FFF79EFFD9E7FFF7B0FFD6E7FFF7E4FDED
:104B3C00D3E770B505460C460B7803F06003202BC9
:104B4C0008D0402B06D02BB1FFF7D6FD00231E4614
:104B5C00304670BD95F89C32013B022B2AD8217946
:104B6C00012906D921462846FFF7C6FD00231E461B
:104B7C00EEE72846FFF7ABFC034668B900F1AE023E
:104B8C00284655F82220916889B1C5F8D43293682B
:104B9C0021469847064601E003231E46E388002B76
:104BAC00D6D1002ED4D1284600F011FAD0E7032339
:104BBC001E46F3E721462846FFF79EFD00231E46BE
:104BCC00C6E72DE9F04106460D468B88DAB217464A
:104BDC000C7804F06004202C08D0402C06D0DCB1FA
:104BEC00FFF78AFD00242046BDE8F08139463046A7
:104BFC00FFF76FFC0446002840F0FB803046C6F8F7
:104C0C00D44204F1AE0356F823309B68002BEAD053
:104C1C00294698470446E6E74A789046012A2FD061
:104C2C00032A04D0002A69D0FFF766FDDBE790F871
:104C3C009C32DAB2022B04D0032A12D0FFF75CFDAF
:104C4C00D1E739460FB1802F04D129463046FFF702
:104C5C0053FDC8E7FFF7F5FA80213046FFF7F1FA6C
:104C6C00C1E74B8823B91FB1802F01D0CB881BB172
:104C7C00304600F0ACF9B6E73946FFF7E2FAF7E751
:104C8C0090F89C22D1B2022A05D0032913D02946D0
:104C9C00FFF732FDA7E739460FB1802F04D1294623
:104CAC003046FFF729FD9EE7FFF7CBFA802130460F
:104CBC00FFF7C7FA97E76A88002A94D113F07F0FA1
:104CCC0018D1304600F083F939463046FFF701FC25
:104CDC000346002887D13046C6F8D43203F1AE0221
:104CEC0056F822209268002A00F0858029469047C9
:104CFC00044678E73946FFF7ACFAE2E790F89C22D5
:104D0C00D1B2022A06D003292AD02946FFF7F4FC97
:104D1C00444668E70FB1802F14D113F0800F16D1E1
:104D2C0003F07F0303EB8303990001F5A871314471
:104D3C000431002301F80E3F0222304600F018F92E
:104D4C00444650E72946FFF7D7FC44464BE703F0AF
:104D5C007F0303EB83039900103131440431E8E7FE
:104D6C0059B2002920DB03F00F0202EB820200EBA8
:104D7C00820292F863412CB3002927DB03F07F03F6
:104D8C0003EB83039C0004F5A874344404340FB182
:104D9C00802F24D10023A373022204F10E0130468C
:104DAC0000F0E6F844461EE703F00F0202EB820225
:104DBC0000EB820292F82340002CDDD12946FFF74C
:104DCC009BFC10E72946FFF797FC0CE703F07F03E9
:104DDC0003EB83039C00103434440434D7E7394686
:104DEC003046FFF73EFA10B10123A373D4E7A0734A
:104DFC00D2E70024F7E61C46F5E600B370B50D4685
:104E0C0016460446FFF75AFC01304300B3F5007F09
:104E1C0006D89BB233802B7003236B7002230AE0FD
:104E2C004FF40073F6E7EA5401345A1CD2B2002155
:104E3C00A9540233DBB22278002AF4D170BD70473A
:104E4C0012230B8000487047D000002004230B80F5
:104E5C0000487047CC000020002393421DD200B5BF
:104E6C0010E00CF1370C01F813C000014FEA430CB1
:104E7C000CF1010C4FF0000E01F80CE00133DBB229
:104E8C00934209D24FEA107CB0F1204FE9D20CF1D9
:104E9C00300C01F813C0E8E700BD70470B4BD3F89A
:104EAC009005D3F89425D3F89835C01800D17047E5
:104EBC0010B5144608220649FFF7CEFF0422044B16
:104ECC0003F110012046FFF7C7FF10BD0070FF1F54
:104EDC00B200002008B51A230B80FFF7DFFF014852
:104EEC0008BD00BFB000002008B50A4628B9054926
:104EFC000548FFF782FF034808BD02490248FFF747
:104F0C007CFFF8E7B81900209851000810B50A4644
:104F1C00034C21460348FFF770FF204610BD00BF2D
:104F2C00B8190020B051000808B50A4628B905493F
:104F3C000548FFF762FF034808BD02490248FFF726
:104F4C005CFFF8E7B8190020C451000808B50A4600
:104F5C0028B905490548FFF750FF034808BD024929
:104F6C000248FFF74AFFF8E7B8190020D0510008B3
:104F7C0008B513460222C0F8942243614162836152
:104F8C000A460021FFF78BF9002008BD08B513462F
:104F9C000A460021FFF783F9002008BD08B5134627
:104FAC000322C0F89422C0F85431C0F86411C0F840
:104FBC0058310A460021FFF77AF9002008BD08B5E0
:104FCC0013460A460021FFF772F9002008BD08B508
:104FDC000422C0F8942200231A461946FFF75FF901
:104FEC00002008BD08B50522C0F8942200231A46FB
:104FFC001946FFF75CF9002008BDD458C45004339F
:10500C00C4188C42F9D37047036004308842FBD338
:10501C00704700000C488546FEF706FD0B480C490E
:10502C000C4A0023FFF7ECFF0B480C490C4A0023F9
:10503C00FFF7E6FF0B480C490023FFF7E7FF00F0F2
:10504C001FF8FBF7B1F9FEE7000003200800002071
:10505C0004010020E8510008000003200000032098
:10506C00E452000804010020B81B0020FEE70244B3
:10507C000346934200D1704703F8011BF9E7000087
:10508C0070B50D4B0D4C00261D1BB6EBA50F09D1B1
:10509C0000F01AF80A4C0B4B00261D1BB6EBA50FA3
:1050AC0005D170BD54F8043B98470136EDE754F830
:1050BC00043B98470136F1E7E0510008E051000845
:1050CC00E0510008E4510008F8B500BFF8BC08BC7A
:1050DC009E467047F8B500BFF8BC08BC9E467047AA
:1050EC001200000024000000360000004000000008
:1050FC00060000000C000000100000000000000082
:10510C00010000000200000003000000A086010066
:10511C00400D0300801A060000350C0040420F00C1
:10512C0080841E0000093D0000127A000024F40067
:10513C0000366E010048E801006CDC020000000043
:10514C000000000000000000000000000100000052
:10515C000300000005000000010000000100000039
:10516C00060000000A000000200000000200000001
:10517C0004000000080000001000000040000000C7
:10518C0080000000000100000002000053544D3369
:10519C0032205669727475616C20436F6D506F725A
:1051AC007400000053544D6963726F656C656374D1
:1051BC00726F6E696373000043444320436F6E66E5
:1051CC006967000043444320496E746572666163ED
:0451DC00650000006A
:0451E000650100085D
:0451E4003D01000881
:1051E800010000001000000000093D000902430012
:1051F800020100C032090400000102020100052476
:1052080000100105240100010424020205240600FF
:10521800010705820308001009040100020A0000C2
:105228000007050102400000070581024000000058
:105238003B3E0008D73D0008C73C000800000000BE
:10524800ED3A0008493C0008113C00080000000045
:105258000000000000000000C93B0008813B000876
:10526800393B00082D3B00080A06000200000040F8
:1052780001000000D13F0008A93F0008AD3F000829
:10528800B53F0008B13F00081A0300000000000005
:105298000000000000000000000000000000000006
:1052A8000000000004030904120100020202004089
:1052B8008304405700020102030100004D4E00081C
:1052C800594E0008194F0008F54E0008E14E000835
:0C52D800354F0008594F0008000000008E
:04000005080050217E
:00000001FF
