:020000040800F2
:1000000000000320F16800083D4300083F4300085A
:100010004143000843430008454300080000000036
:10002000000000000000000000000000474300083E
:1000300049430008000000004B4300084D430008FE
:1000400049690008496900084969000849690008C8
:1000500049690008496900084969000849690008B8
:1000600049690008496900084969000849690008A8
:100070004969000849690008496900084969000898
:100080004969000849690008496900084969000888
:100090005543000849690008496900084969000892
:1000A0004969000849690008496900084969000868
:1000B0004969000849690008496900084969000858
:1000C0004969000849690008496900084969000848
:1000D0004969000849690008496900084969000838
:1000E0004969000849690008496900084969000828
:1000F0004969000849690008496900084969000818
:100100004969000849690008496900084969000807
:1001100049690008496900084969000849690008F7
:1001200049690008496900084969000849690008E7
:0C01300049690008496900084969000895
:1001400001F0FF01102A2BDB10F0070F08D010F888
:10015000013B013A8B422DD010F0070F42B3F6D18C
:10016000F0B441EA012141EA014122F007047FF0A5
:1001700000070023F0E80256083C85EA010586EAFC
:10018000010685FA47F5A3FA87F586FA47F6A5FA38
:1001900087F68EB9EED1F0BC01F0FF0102F0070244
:1001A00032B110F8013B013A83EA010313B1F8D1EF
:1001B0000020704701387047002D06BF35460338D0
:1001C000073815F0010F07D1013015F4807F02BF09
:1001D000013015F4C03F0130F0BC0138704700BF5A
:1001E000034613F8012B002AFBD1181A0138704777
:1001F00081F0004102E000BF83F0004330B54FEAD8
:1002000041044FEA430594EA050F08BF90EA020F44
:100210001FBF54EA000C55EA020C7FEA645C7FEAD7
:10022000655C00F0E2804FEA5454D4EB5555B8BFFA
:100230006D420CDD2C4480EA020281EA030382EA6B
:10024000000083EA010180EA020281EA0303362DFD
:1002500088BF30BD11F0004F4FEA01314FF4801CD0
:100260004CEA113102D0404261EB410113F0004FE2
:100270004FEA03334CEA133302D0524263EB430399
:1002800094EA050F00F0A780A4F10104D5F1200E37
:100290000DDB02FA0EFC22FA05F2801841F1000192
:1002A00003FA0EF2801843FA05F359410EE0A5F166
:1002B00020050EF1200E012A03FA0EFC28BF4CF097
:1002C000020C43FA05F3C01851EBE37101F000454D
:1002D00007D54FF0000EDCF1000C7EEB00006EEB5A
:1002E0000101B1F5801F1BD3B1F5001F0CD34908E4
:1002F0005FEA30004FEA3C0C04F101044FEA44523B
:1003000012F5800F80F09A80BCF1004F08BF5FEAC1
:10031000500C50F1000041EB045141EA050130BDA1
:100320005FEA4C0C404141EB0101013C28BFB1F5B3
:10033000801FE9D291F0000F04BF01460020B1FAFE
:1003400081F308BF2033A3F10B03B3F120020CDAD1
:100350000C3208DD02F1140CC2F10C0201FA0CF0AF
:1003600021FA02F10CE002F11402D8BFC2F1200C14
:1003700001FA02F120FA0CFCDCBF41EA0C019040CA
:10038000E41AA2BF01EB0451294330BD6FEA040413
:100390001F3C1CDA0C340EDC04F11404C4F12002FE
:1003A00020FA04F001FA02F340EA030021FA04F310
:1003B00045EA030130BDC4F10C04C4F1200220FA67
:1003C00002F001FA04F340EA0300294630BD21FAA5
:1003D00004F0294630BD94F0000F83F4801306BF6B
:1003E00081F480110134013D4EE77FEA645C18BF5F
:1003F0007FEA655C29D094EA050F08BF90EA020FF6
:1004000005D054EA000C04BF1946104630BD91EAED
:10041000030F1EBF0021002030BD5FEA545C05D1F0
:100420004000494128BF41F0004130BD14F580042F
:100430003CBF01F5801130BD01F0004545F0FE41A3
:1004400041F470014FF0000030BD7FEA645C1ABFD8
:10045000194610467FEA655C1CBF0B46024650EA0F
:10046000013406BF52EA033591EA030F41F400213B
:1004700030BD00BF90F0000F04BF0021704730B5C1
:100480004FF4806404F132044FF000054FF0000196
:1004900050E700BF90F0000F04BF0021704730B557
:1004A0004FF4806404F1320410F0004548BF40422C
:1004B0004FF000013EE700BF42004FEAE2014FEA81
:1004C00031014FEA02701FBF12F07F4393F07F4F5C
:1004D00081F06051704732F07F4208BF704793F05F
:1004E0007F4F04BF41F40021704730B54FF4607472
:1004F00001F0004521F000411CE700BF50EA010275
:1005000008BF704730B54FF000050AE050EA01021D
:1005100008BF704730B511F0004502D5404261EB8D
:1005200041014FF4806404F132045FEA915C3FF4CE
:10053000D8AE4FF003025FEADC0C18BF03325FEA6B
:10054000DC0C18BF033202EBDC02C2F1200300FA1C
:1005500003FC20FA02F001FA03FE40EA0E0021FA41
:1005600002F11444BDE600BF70B54FF0FF0C4CF42F
:10057000E06C1CEA11541DBF1CEA135594EA0C0FE1
:1005800095EA0C0F00F0DEF82C4481EA030621EA1C
:100590004C5123EA4C5350EA013518BF52EA033557
:1005A00041F4801143F4801338D0A0FB02CE4FF009
:1005B0000005E1FB02E506F00042E0FB03E54FF039
:1005C0000006E1FB03569CF0000F18BF4EF0010E31
:1005D000A4F1FF04B6F5007F64F5407404D25FEA2D
:1005E0004E0E6D4146EB060642EAC62141EA5551E0
:1005F0004FEAC52040EA5E504FEACE2EB4F1FD0C22
:1006000088BFBCF5E06F1ED8BEF1004F08BF5FEA9F
:10061000500E50F1000041EB045170BD06F0004651
:1006200046EA010140EA020081EA0301B4EB5C04FE
:10063000C2BFD4EB0C0541EA045170BD41F48011F6
:100640004FF0000E013C00F3AB8014F1360FDEBF1B
:10065000002001F0004170BDC4F10004203C35DAF7
:100660000C341BDC04F11404C4F1200500FA05F37A
:1006700020FA04F001FA05F240EA020001F000421B
:1006800021F0004110EBD37021FA04F642EB060191
:100690005EEA430E08BF20EAD37070BDC4F10C04BB
:1006A000C4F1200500FA04F320FA05F001FA04F27F
:1006B00040EA020001F0004110EBD37041F100016B
:1006C0005EEA430E08BF20EAD37070BDC4F1200576
:1006D00000FA05F24EEA020E20FA04F301FA05F2DE
:1006E00043EA020321FA04F001F0004121FA04F286
:1006F00020EA020000EBD3705EEA430E08BF20EA56
:10070000D37070BD94F0000F0FD101F0004640008F
:1007100041EB010111F4801F08BF013CF7D041EA11
:10072000060195F0000F18BF704703F00046520015
:1007300043EB030313F4801F08BF013DF7D043EAE6
:100740000603704794EA0C0F0CEA135518BF95EA9C
:100750000C0F0CD050EA410618BF52EA4306D1D123
:1007600081EA030101F000414FF0000070BD50EA42
:10077000410606BF1046194652EA430619D094EACC
:100780000C0F02D150EA013613D195EA0C0F05D1B6
:1007900052EA03361CBF104619460AD181EA03010A
:1007A00001F0004141F0FE4141F470014FF00000C2
:1007B00070BD41F0FE4141F4780170BD70B54FF05D
:1007C000FF0C4CF4E06C1CEA11541DBF1CEA1355DD
:1007D00094EA0C0F95EA0C0F00F0A7F8A4EB0504BF
:1007E00081EA030E52EA03354FEA013100F08880B6
:1007F0004FEA03334FF0805545EA131343EA12637F
:100800004FEA022245EA111545EA10654FEA002633
:100810000EF000419D4208BF964244F1FD0404F5EC
:10082000407402D25B084FEA3202B61A65EB030548
:100830005B084FEA32024FF480104FF4002CB6EB05
:10084000020E75EB030E22BFB61A754640EA0C0085
:100850005B084FEA3202B6EB020E75EB030E22BFC5
:10086000B61A754640EA5C005B084FEA3202B6EB06
:10087000020E75EB030E22BFB61A754640EA9C00C5
:100880005B084FEA3202B6EB020E75EB030E22BF95
:10089000B61A754640EADC0055EA060E18D04FEA53
:1008A000051545EA16754FEA06164FEAC30343EAF3
:1008B00052734FEAC2025FEA1C1CC0D111F4801FC0
:1008C0000BD141EA00014FF000004FF0004CB6E7B9
:1008D00011F4801F04BF01430020B4F1FD0C88BF58
:1008E000BCF5E06F3FF6AFAEB5EB030C04BFB6EB63
:1008F000020C5FEA500C50F1000041EB045170BD56
:100900000EF0004E4EEA113114EB5C04C2BFD4EB82
:100910000C0541EA045170BD41F480114FF0000E06
:10092000013C90E645EA060E8DE60CEA135594EA82
:100930000C0F08BF95EA0C0F3FF43BAF94EA0C0F85
:100940000AD150EA01347FF434AF95EA0C0F7FF4FA
:1009500025AF104619462CE795EA0C0F06D152EA4E
:1009600003353FF4FDAE1046194622E750EA410632
:1009700018BF52EA43067FF4C5AE50EA41047FF443
:100980000DAF52EA43057FF4EBAE12E74FF0FF3CA8
:1009900006E000BF4FF0010C02E000BF4FF0010C79
:1009A0004DF804CD4FEA410C7FEA6C5C4FEA430CF2
:1009B00018BF7FEA6C5C1BD001B050EA410C0CBF41
:1009C00052EA430C91EA030F02BF90EA020F0020A3
:1009D000704710F1000F91EA030F58BF994208BF0A
:1009E00090422CBFD8176FEAE37040F001007047C7
:1009F0004FEA410C7FEA6C5C02D150EA013C07D11E
:100A00004FEA430C7FEA6C5CD6D152EA033CD3D068
:100A10005DF8040B704700BF8446104662468C4662
:100A20001946634600E000BF01B5FFF7B7FF002895
:100A300048BF10F1000F01BD4DF808EDFFF7F4FFBE
:100A40000CBF012000205DF808FB00BF4DF808ED49
:100A5000FFF7EAFF34BF012000205DF808FB00BF6C
:100A60004DF808EDFFF7E0FF94BF012000205DF88E
:100A700008FB00BF4DF808EDFFF7CEFF94BF012043
:100A800000205DF808FB00BF4DF808EDFFF7C4FF3C
:100A900034BF012000205DF808FB00BF4FEA410C85
:100AA0007FEA6C5C02D150EA013C0AD14FEA430C68
:100AB0007FEA6C5C02D152EA033C02D14FF00000A5
:100AC00070474FF0010070474FEA410212F50012E3
:100AD00015D211D56FF47873B3EB625212D94FEA85
:100AE000C12343F0004343EA505311F0004F23FA6F
:100AF00002F018BF404270474FF00000704750EAC4
:100B0000013005D111F0004008BF6FF00040704780
:100B10004FF00000704700BF08B5064B1A783AB98D
:100B2000054A1AB10548AFF30080024B01221A7042
:100B300008BD00BFCC020020000000008892000821
:100B400008B5034B1BB103490348AFF3008008BD50
:100B500000000000D002002088920008F0B587B0A5
:100B600004460D46164601F07F038DF814308DF8CB
:100B7000152000220189406800F040FE6423022213
:100B800005A9206803F04EF9074601222189606813
:100B900000F034FE2FBB0A2000F0C2FC65F07F0598
:100BA0008DF8105000228DF81120ADF80C2021890D
:100BB000606800F023FE64230093022303AA04A9C3
:100BC000206803F034FA054601222189606800F0AC
:100BD00015FE4DB99DF80D309E4208D1284607B04C
:100BE000F0BD4FF0FF30FAE76FF00100F7E76FF06C
:100BF0000200F4E708B5837A8B4205D00A46817279
:100C00007621FFF7ABFF08BD0020FCE70F2A2FD8A5
:100C10002DE9F0438BB004468846154699460132CB
:100C200006AE17460021304606F0F5FB68F07F025D
:100C30008DF8182000222189606800F0DFFD642310
:100C400000933B4602AA3146206803F0F0F90646BD
:100C500001222189606800F0D1FD66B92A460DF1B4
:100C60000901484606F057FC30460BB0BDE8F0835A
:100C70004FF0FF3070476FF00100F6E710B582B01B
:100C800004460021FFF7B6FF00238DF807300DF171
:100C90000703012275212046FFF7B8FF002803DB78
:100CA0009DF8070002B010BD0020FBE730B583B00F
:100CB00004460D460021FFF79DFF0DF107030122B9
:100CC00050212046FFF7A2FF002820DB9DF80720D7
:100CD00002F01F0242EA4512D2B28DF807205021DD
:100CE0002046FFF73BFF002814DBC5F10402012377
:100CF000934007EE903AF8EEE77A9FED087A67EEB8
:100D0000877AC4ED037A2575002003B030BD4FF01B
:100D1000FF30FAE76FF00100F7E700BF000000388E
:100D200030B583B004460D460021FFF763FF0DF197
:100D3000070301224F212046FFF768FF002822DB2E
:100D40009DF8072002F01F0242EA4512D2B28DF848
:100D500007204F212046FFF701FF002816DB012363
:100D6000AB4007EE903AF8EEE77ADFED0A6A86EEDE
:100D7000A77ADFED097A67EE277AC4ED047A657504
:100D8000002003B030BD4FF0FF30FAE76FF00100F4
:100D9000F7E700BF0000FA440000003830B583B028
:100DA00004460D460021FFF725FF0DF10703012240
:100DB00050212046FFF72AFF002810DB9DF807305E
:100DC00023F00F032A461A438DF8072050212046AE
:100DD000FFF7C4FE002805DB002003B030BD4FF054
:100DE000FF30FAE76FF00100F7E730B583B0044653
:100DF0000D460021FFF7FEFE0DF1070301224F21F2
:100E00002046FFF703FF002810DB9DF8073023F092
:100E10000F032A461A438DF807204F212046FFF77B
:100E20009DFE002805DB002003B030BD4FF0FF30F1
:100E3000FAE76FF00100F7E72DE9F04184B00446CE
:100E400001220189406800F0D9FC0025A5722368C1
:100E5000DA6990463022DA61206802F074FF2A468F
:100E60002189606800F0CAFC012000F059FB0122D2
:100E70002189606800F0C2FC012000F051FBF523DD
:100E8000ADF80830ADF80C502A462189606800F0B2
:100E9000B5FC03AE642700970223324602A92068FE
:100EA00003F0C5F801222189606800F0A7FC012049
:100EB00000F036FB40F21113ADF80C302A462189C0
:100EC000606800F09BFC3B4602223146206802F03D
:100ED000A9FF01222189606800F090FC322000F017
:100EE0001FFB2A462189606800F088FC012000F081
:100EF00017FB01222189606800F080FC012000F0CE
:100F00000FFBA5722E46042E0ADC2046FFF7B6FE24
:100F10000546472804D00A2000F002FB0136F2E71C
:100F2000472D41D10F224E212046FFF717FE002802
:100F30003DDB012000F0F4FA00212046FFF7B6FE69
:100F4000002837DB00212046FFF7EAFE002834DBCB
:100F500006212046FFF722FF002831DB062120462C
:100F6000FFF743FF00282EDB01212046FFF742FE5A
:100F700003220B212046FFF7F1FD02212046FFF757
:100F800039FE012203212046FFF7E8FD002120461B
:100F9000FFF730FE2368C3F81C80206802F0D3FE00
:100FA000002004B0BDE8F0814FF0FF30F9E76FF0AA
:100FB0000100F6E76FF00200F3E76FF00300F0E7DF
:100FC0006FF00400EDE76FF00500EAE770B584B05C
:100FD00004460E460021FFF70DFE00238DF80F306A
:100FE00000F092FA05469DF80F3013F0080F11D16A
:100FF0000DF10F0301222D212046FFF707FE0028E7
:10100000C0F28F8000F080FA401B0A28EBD96FF005
:10101000010084E06B460E221D212046FFF7F6FDFD
:101020000028C0F281809DF800301B021BB29DF8A1
:1010300001201A439DF802301B021BB29DF80310D9
:101040000B4305EE103A9DF804301B021BB29DF8CD
:1010500005100B4305EE903A9DF806301B021BB2BB
:101060009DF807100B4306EE103A9DF808301B025E
:101070001BB29DF809100B4306EE903A9DF80A301A
:101080001B021BB29DF80B100B4307EE103A9DF8A4
:101090000C301B021BB29DF80D100B4307EE903A6B
:1010A000D4ED034AB8EEC55A25EE245A86ED005A0F
:1010B00094ED035AF8EEE55A65EE855AC6ED015AED
:1010C000D4ED035AB8EEC66A26EE256A86ED026AAA
:1010D00094ED046AF8EEE66A66EE866AC6ED036A87
:1010E000D4ED046AB8EEC77A27EE267A86ED047A44
:1010F00094ED047AF8EEE77A67EE877AC6ED057A22
:1011000007EE902AF8EEE77ADFED096A87EEA67A15
:10111000F3EE097A77EE277AC6ED067A002004B05E
:1011200070BD4FF0FF30FAE76FF00200F7E700BF45
:10113000E17A04432DE9F0438BB005AD002405941A
:1011400006940794089409944FF0B043DA6C42F087
:101150000402DA64DA6C02F004020492049ADA6C93
:1011600042F00202DA64DA6C02F002020392039A9D
:10117000DA6C42F00102DA64DA6C02F001020292E7
:10118000029ADA6C42F00802DA64DB6C03F00803BE
:101190000193019B1B4F01224FF40051384600F090
:1011A0002DFBDFF8689001220221484600F026FB63
:1011B0004FF4005305930126069607960894294696
:1011C000384600F041FA05964FF48818CDF818809B
:1011D00007942946384600F037FA0223059306960D
:1011E000079408942946484600F02EFAC023059338
:1011F000CDF8188007942946034800F025FA0BB073
:10120000BDE8F0830008004800040048000C0048D6
:1012100072B6FEE708B51148114B0360114B4360ED
:10122000002383600122C260036143618361C36163
:10123000036200F0F1FA50B90146084800F050FB93
:1012400038B90146054800F078FB20B908BDFFF722
:10125000DFFFFFF7DDFFFFF7DBFF00BF80030020AC
:1012600000540040B57DB11008B51048104B036024
:101270004FF482734360002383604FF4E062C260E6
:1012800002220261012242614FF40072826108224F
:10129000C2610362436283620722C26203634363E3
:1012A00002F051FD00B908BDFFF7B2FF1C0300209A
:1012B0000030014030B59BB008AD482200212846DF
:1012C00006F0A9F800240194029403940494059470
:1012D0000694079401F0ECFB4FF0B042D2F8903046
:1012E00023F0180343F01003C2F8903002F5806237
:1012F000136823F4C06343F400731360136803F4AA
:10130000C0630093009B272308934FF48033099315
:1013100001230A934FF480720B920F9340220C9298
:101320001094602211920222139214931594202398
:1013300016934FF4003317934FF0005319934FF067
:1013400000731893284601F0C3FC88B96F230193FA
:101350000321029103900490059080220692079049
:1013600001A802F043F828B902F0D9FB1BB030BD48
:10137000FFF74EFFFFF74CFF10B594B0502200214D
:10138000684606F048F84FF4005300931023139377
:10139000684602F042FA08B914B010BDFFF738FFF2
:1013A00070B500F08DF8FFF785FFFFF7E5FFFFF759
:1013B000C1FEFFF72FFFFFF757FF03F0A5FF4FF424
:1013C0007A7000F0ADF82348234B0360234B436051
:1013D00002230381FFF730FD20B306460028B8BF83
:1013E000464210211E4804F05BFA0024B44204DB9C
:1013F00040F2DC5000F094F8F3E71A4D00224FF46D
:101400000051284600F0FAF9962000F089F80122F0
:101410004FF40051284600F0F1F9962000F080F8D2
:101420000134E3E74FF47A7000F07AF807E04FF404
:1014300000510C4800F0E7F9642000F071F80A4907
:101440000448FFF7C3FD0028F1D11621074804F036
:1014500027FAECE7040300201C030020000C0048DE
:10146000CC92000800080048E8020020E092000842
:10147000114B1B780BB90120704710B5044601F0E1
:1014800017FC0D4B1A784FF47A73B3FBF2F3B0FBF1
:10149000F3F000F0C5F868B90F2C01D901200AE07B
:1014A000024621464FF0FF3000F0A6F8034B1C60C7
:1014B000002000E0012010BD080000200C000020EA
:1014C00010B50A4A136843F480731360032000F0D8
:1014D00081F80F20FFF7CCFF18B101231C462046EE
:1014E00010BD044600F054FAF9E700BF0040005870
:1014F000034B1B78034A11680B441360704700BF0D
:1015000008000020D4030020014B1868704700BF7A
:10151000D4030020014B1868704700BF0C00002066
:1015200038B50446FFF7F0FF0546B4F1FF3F02D09F
:10153000044B1B781C44FFF7E7FF401BA042FAD383
:1015400038BD00BF08000020002807DB00F01F02A4
:10155000400901239340024A42F82030704700BFFF
:1015600000E100E0002808DB0901C9B200F1604099
:1015700000F5614080F80013704700F00F0009018A
:10158000C9B2014B1954704714ED00E000B500F0EA
:101590000700A0F1030CBCF1040F07D8C0F1070E3F
:1015A0000430062806D84FF0000C03E04FF0040E7C
:1015B0004FF0000C4FF0FF3303FA0EF021EA000168
:1015C00001FA0CF103FA0CF322EA030241EA0200E9
:1015D00000BD0000074AD36823F4E0631B041B0C22
:1015E000000200F4E060034343F0BF6343F40033C0
:1015F000D360704700ED00E010B50446054BD86895
:10160000C0F30220FFF7C2FF01462046FFF7AAFF02
:1016100010BD00BF00ED00E008B5FFF795FF08BD65
:101620000138B0F1807F0BD24FF0E0235861054ABA
:10163000F02182F823100020986107221A61704778
:101640000120704700ED00E070B58646002367E09A
:10165000DEF808405D000320A84024EA0004C868C2
:10166000A8402043CEF80800DEF8044024EA0C0429
:101670004868C0F3001098402043CEF8040060E0B2
:10168000DC0808345EF8240003F00705AD004FF0D5
:101690000F0C0CFA05FC20EA0C0C0869A84040EA83
:1016A0000C004EF8240062E0042000E0002000FA64
:1016B0000CF0284302344E4D45F824004D48046890
:1016C000D04324EA02054E6816F4801F01D042EA96
:1016D0000405484C2560646800EA04054E6816F469
:1016E000001F01D042EA0405424C6560D4F88040F6
:1016F00000EA04054E6816F4803F01D042EA040572
:101700003C4CC4F88050D4F8844020404D6815F417
:10171000003F01D042EA0400364AC2F88400013397
:101720000A6832FA03F061D04FF0010C0CFA03FCA6
:101730001CEA0202F3D0486800F0030001380128D7
:1017400086D9486800F0030003280BD0DEF80C406F
:101750005D000320A84024EA00048868A8402043D4
:10176000CEF80C00486800F00300022888D0DEF8AC
:1017700000005C004FF0030C0CFA04FC20EA0C0C97
:10178000486800F00300A04040EA0C00CEF80000DA
:10179000486810F4403FC2D09C08A51C144850F87B
:1017A000255003F0030C4FEA8C0C0F2000FA0CF0CC
:1017B00025EA0005BEF1904F3FF478AF0E4886450C
:1017C0000ED000F5806086450CD000F5806086451F
:1017D0000AD000F5806086453FF466AF072066E7D3
:1017E000012064E7022062E7032060E770BD00BFCC
:1017F0000000014000080058000400480AB181615F
:10180000704781627047436901EA030221EA0301DC
:1018100041EA02418161704700285FD010B504465B
:1018200090F84130002B48D0242384F841302268BE
:10183000136823F0010313606368226823F0706368
:1018400013612268936823F400439360E368012BDB
:1018500038D0A368226843F404439360E368022B02
:1018600036D02268536823F40063536022685368BB
:1018700043F0007343F4004353602268D36823F4B9
:101880000043D360236962691343A169226843EA74
:101890000123D360E369216A22680B431360226845
:1018A000136843F00103136000206064202384F870
:1018B0004130206384F8420010BD80F8403000F0D1
:1018C0006BF8B1E7A368226843F400439360C5E76F
:1018D0002268536843F400635360C7E701207047F0
:1018E000034690F84120202A23D190F84020012A75
:1018F00021D0012280F84020242280F84120006875
:10190000026822F0010202601868026822F4805224
:101910000260186802680A43026019680A6842F0A7
:1019200001020A60202283F84120002083F8400051
:1019300070470220704702207047034690F841200C
:10194000202A21D190F84020012A1FD0012280F8BE
:101950004020242280F841200068026822F0010221
:1019600002601868026822F4706242EA0122026092
:1019700019680A6842F001020A60202283F84120B7
:10198000002083F840007047022070470220704713
:1019900008B501F09DF808BD10B59CB004460021C3
:1019A0001791189119911A911B91502203A805F0D3
:1019B00032FD2268194B9A4201D01CB010BD04239D
:1019C00003934FF440330B9303A801F026FF10BBA1
:1019D0004FF0B044E36C43F00203E364E36C03F0C4
:1019E00002030293029B4FF4407317931223189340
:1019F000002319931A9304231B9317A90848FFF790
:101A000023FEA36D43F40013A365A36D03F4001339
:101A10000193019BD1E7FFF7FBFBD9E7005400409E
:101A20000004004800B589B0002303930493059394
:101A3000069307930268134B9A4201D009B000BD88
:101A40004FF0B0431A6E42F480521A661A6E02F4D6
:101A500080520292029ADA6C42F00202DA64DB6C83
:101A600003F002030193019B3823039302230493A1
:101A7000032306930523079303A90348FFF7E4FD17
:101A8000DCE700BF003001400004004810B512F44C
:101A9000804F45D00468B4F8503091F800C04FEA48
:101AA000CC0E1EFA83F32344B3F80244C4F30904B2
:101AB0008B69A3422AD31B1B8B618B6983B9D0F836
:101AC00000E03EF82C309BB223F4804323F07003F7
:101AD00083F4005343F4004343F080032EF82C308A
:101AE00012F0400F0FD0026891F800C032F82C308D
:101AF0009BB223F4E04323F0700343F4004343F02C
:101B0000C00322F82C3024B9204610BD00238B617D
:101B1000D3E723460A894969006803F04DFBF3E7E0
:101B20000468B4F8503091F800C04FEACC0E1EFAA9
:101B300083F32344B3F80644C4F309048B69A34236
:101B400030D31B1B8B618B6983B9D0F800E03EF862
:101B50002C309BB223F4804323F0700383F40053B2
:101B600043F4004343F080032EF82C3012F0400F72
:101B70000FD1026891F800C032F82C309BB223F4E8
:101B8000E04323F0700343F4004343F0C00322F822
:101B90002C30002CB8D023464A894969006803F0EC
:101BA0000BFBB1E700238B61CDE7002856D010B5C1
:101BB000044690F891323BB1032384F891322068B7
:101BC00002F0D9FB002315E080F8903203F08CFE80
:101BD000F2E703EB830204EBC20201215174137498
:101BE0000021D17411625162013303EB8302D200F0
:101BF000A150DBB220799842EBD8002316E003EB2A
:101C0000830204EBC202002182F8511182F85031A4
:101C100082F85311C2F86011C2F8641103EB830219
:101C200004EBC202C2F868110133DBB29842E6D875
:101C3000234653F8040B93E8060002F0A7FB0023A9
:101C40002373012384F89132A37A012B01D0002061
:101C500010BD204600F016FF0020F9E70120704774
:101C600090F89032012B0ED010B50446012380F875
:101C70009032006802F076FB206802F0B5FF002089
:101C800084F8900210BD0220704770B505460C46DE
:101C9000164612F0400F00F01F810268B2F8503073
:101CA00009784FEAC10C1CFA83F31344B3F80224F9
:101CB000C2F30902A36993422CD99B1AA361A069BC
:101CC00058B316F4804F0DD0286830F821309BB2FD
:101CD00023F4E04323F0700343F4404343F08003D4
:101CE00020F8213094F82430012B00F08D802A68F0
:101CF000217832F821309BB223F4E04323F04003F3
:101D000083F0300343F4004343F0800322F8213092
:101D1000002070BD0023A361D1E76378002B48D178
:101D20002A68B2F8503012FA83F36344B3F80224FD
:101D3000C2F30902A3F80224B3F802246FEA424274
:101D40006FEA524292B2A3F802242A686378002B09
:101D50003BD1B2F8503012FA83F3227803EBC2037E
:101D6000B3F80624C2F30902A3F80624B3F8062444
:101D70006FEA42426FEA524292B2A3F80624E37835
:101D8000022B2FD02178284603F01EFE16F4804F38
:101D9000BED02A68217832F821309BB223F4E04388
:101DA00023F0700343F4404343F0800322F82130D2
:101DB000AEE7012BC9D12A68B2F8503012FA83F38A
:101DC00063440022A3F80224BFE7012BD7D1B2F865
:101DD000503012FA83F3227803EBC2030022A3F8F7
:101DE0000624CCE72A68217832F821309BB223F40C
:101DF000E04323F0400383F0200343F4004343F027
:101E0000800322F82130BDE7636913446361E3690D
:101E10001344E361216A236999421DD3C91A2162DF
:101E20006278002A43D12968B1F8502011FA82F271
:101E3000217802EBC102B2F80214C1F30901A2F841
:101E40000214A3B9B2F802146FEA41416FEA51419A
:101E500089B2A2F802142CE019B984F824101346B0
:101E6000DEE7002384F8243023620B46D8E73E2BBC
:101E70000DD8590813F0010F00D00131B2F8020457
:101E800080B2890289B20143A2F8021411E0580914
:101E900013F01F0F00D10138B2F8021489B280028A
:101EA00080B2014341F40041A2F8021401E0012A8A
:101EB00006D09BB222896169286802F0A4FE16E769
:101EC0002968B1F8502011FA82F2217802EBC102A0
:101ED00099B2A2F80214ECE70268B2F8503009781F
:101EE000C80010FA83F31344B3F80624C2F30902BE
:101EF000A369934246D39B1AA361A369002B44D0E4
:101F000016F4804F0DD1286830F821309BB223F4AD
:101F1000E04323F0700343F4404343F0800320F890
:101F2000213094F82430012B7FF4E1AE636913442F
:101F30006361E3691344E361216A23699942C0F054
:101F40009C80C91A216229686278002A40F0C0800A
:101F5000B1F8502011FA82F2217802EBC102B2F8F6
:101F60000614C1F30901A2F80614002B40F090807A
:101F7000B2F806146FEA41416FEA514189B2A2F802
:101F80000614A7E00023A361B7E76378002B49D1CB
:101F90002A68B2F8503012FA83F30344B3F80224EB
:101FA000C2F30902A3F80224B3F802246FEA424202
:101FB0006FEA524292B2A3F802242A686378002B97
:101FC0003CD1B2F8503012FA83F3227803EBC2030B
:101FD000B3F80624C2F30902A3F80624B3F80624D2
:101FE0006FEA42426FEA524292B2A3F80624E378C3
:101FF000022B30D02178284603F0E6FC16F4804FFF
:102000007FF486AE2A68217832F821309BB223F41F
:10201000E04323F0700343F4404343F0800322F88D
:10202000213075E6012BC8D12A68B2F8503012FA77
:1020300083F303440022A3F80224BEE7012BD6D188
:10204000B2F8503012FA83F3227803EBC203002275
:10205000A3F80624CBE72A68217832F821309BB216
:1020600023F4E04323F0400383F0200343F40043D0
:1020700043F0800322F82130BCE719B984F824101A
:10208000134660E70023236284F824300B465AE7A6
:102090003E2B0DD8590813F0010F00D00131B2F8D2
:1020A000060480B2890289B20143A2F8061411E045
:1020B000580913F01F0F00D10138B2F8061489B285
:1020C000800280B2014341F40041A2F8061401E00D
:1020D000012A06D09BB262896169286802F093FDEB
:1020E00005E6B1F8502011FA82F2217802EBC10224
:1020F00099B2A2F80614EDE72DE9F041054653E048
:1021000003889BB223F4E14323F070036FEA434357
:102110006FEA53439BB203802968B1F850302A7CA0
:10212000D20012FA83F30B44B3F80234C3F3090369
:10213000EB626A6A1A446A620021284603F044FC92
:102140002B7B8BB3AB6A7BBB2B7B2A6843F0800372
:10215000A2F84C3000232B7326E003889BB223F4B3
:10216000804323F0700383F4805348F280010B43D3
:1021700003802A6813889BB223F4E04323F04003D2
:1021800083F010030B4313802A6813889BB223F05B
:1021900070031B051B0D43F0800313800020BDE876
:1021A000F08112F4004F37D12868B0F8443013F4AE
:1021B000004FF3D0B0F84440A3B214F00F0466D13E
:1021C00013F0100F9CD003889AB213F4006FE8D07C
:1021D000B0F8503095F85021D20012FA83F303443E
:1021E000B3F80634C3F30903C5F86C31082BB4D136
:1021F000B5F8562105F5267102F0DEFF2A6813882E
:102200009BB223F070031B051B0D43F0800313806A
:10221000284603F0C5FBC7E703889BB223F0700391
:102220001B051B0D43F0800303802868B0F8503075
:1022300095F85021D20012FA83F30344B3F8063420
:10224000C3F30903C5F86C316BB903889BB223F45F
:10225000804323F0700383F4405343F4004343F07E
:1022600080030380A0E7D5F8641100299CD0B5F85D
:10227000562102F0A1FFD5F86431D5F86C21134442
:10228000C5F864310021284603F092FB8CE730F852
:1022900024309EB213F4004F4DD116F0800F83D03E
:1022A00004EB8401C900103129442A6832F8243033
:1022B0009BB223F4E14323F070036FEA43436FEAD8
:1022C00053439BB222F8243004EB840305EBC30391
:1022D000DB7C012B00F0F18016F4807F40F08881D8
:1022E0002868B0F8503004EB840205EBC202167C7B
:1022F000F20012FA83F30344B3F80234C3F3090380
:10230000621C02EB820255F832209A4240F253815D
:10231000671C07EB8707D21A45F83720621C02EBCF
:10232000820255F83220002A40F04C81314628467E
:1023300003F04AFB38E730F824309BB223F07003F7
:102340001B051B0D43F0800320F8243004EB8401AF
:10235000C90001F5A87105EB010804EB840305EB46
:10236000C30393F85C31DBBB2868B0F8503004EB52
:10237000840205EBC20292F85021D20012FA83F3D4
:102380000344B3F80674C7F30907EFB904EB8403F9
:1023900005EBC303D3F86C213A44C3F86C21D3F89E
:1023A00068313BB104EB840305EBC303D3F8603120
:1023B0009F4270D204EB840305EBC30393F85011E2
:1023C000284603F0F5FA68E704EB840105EBC10148
:1023D0003B46B1F85621D1F8641102F0EDFED5E785
:1023E00004EB840305EBC30393F85331022B33D082
:1023F000296804EB840205EBC20292F8500131F81F
:1024000020309BB223F4E04323F0700343F40043F5
:1024100043F0C00321F82030286892F8503130F89A
:10242000232012F4804F1ED0B0F85020DB0013FAA6
:1024300082F30344B3F80274C7F30907002FA5D051
:1024400004EB840105EBC1013B46B1F85821D1F8FA
:10245000641102F0B1FE99E7324641462846FFF783
:1024600015FB074692E7B0F85020DB0013FA82F321
:102470000344B3F80674C7F30907002F86D004EBB2
:10248000840105EBC1013B46B1F85A21D1F8641132
:1024900002F092FE7AE704EB840305EBC303D3F862
:1024A000642104EB840305EBC3033A44C3F86421BD
:1024B0004146286802F0B9FBEFE6631C03EB830397
:1024C000DB000022EA5004EB840305EBC3031B7F0F
:1024D0001BB316F0400F3BD004EB840305EBC303A2
:1024E0005B7C1BBB2A68B2F8503012FA83F304EB12
:1024F000840205EBC202127C03EBC203B3F8022490
:10250000C2F30902A3F80224B3F802246FEA42429C
:102510006FEA524292B2A3F8022404EB840405EB62
:10252000C404217C284603F04FFA3DE6012BF4D188
:102530002A68B2F8503012FA83F304EB840205EBF8
:10254000C202127C03EBC2030022A3F80224E4E7D8
:102550002A6804EB840305EBC3035B7CD3B9B2F8B0
:10256000503012FA83F304EB840205EBC202127CB2
:1025700003EBC203B3F80624C2F30902A3F806244E
:10258000B3F806246FEA42426FEA524292B2A3F8CD
:102590000624C2E7012BC0D1B2F8503012FA83F3FF
:1025A00004EB840205EBC202127C03EBC20300229F
:1025B000A3F80624B1E7621C02EB8202D2000027D6
:1025C000AF50ABE604EB840205EBC202566A1E4430
:1025D0005662013404EB840205EBC202526804EB3C
:1025E000840405EBC4041344636002F01EFBDBE5C6
:1025F00032462846FFF749FBD6E590F89032012B8A
:102600000CD010B50446012380F8903201730068A5
:1026100002F0E4FA002084F8900210BD0220704716
:1026200010B50446006802F0EAFA10F4004F23D116
:1026300010F4806F24D110F4804F32D110F4005F79
:1026400039D110F4805F40D110F4006F67D110F0E1
:10265000800F40F0818010F4007F40F0AD8010F4D6
:10266000807F27D02268B2F844309BB223F4807375
:102670009BB2A2F844301DE02046FFF73DFD19E073
:102680002268B2F844309BB223F480639BB2A2F874
:102690004430204603F0A9F900212046FFF7ADFFA2
:1026A00008E02268B2F844309BB223F480439BB226
:1026B000A2F8443010BD2268B2F844309BB223F433
:1026C00000539BB2A2F84430F4E72268B2F84030DD
:1026D0009BB223F004039BB2A2F840302268B2F808
:1026E00040309BB223F008039BB2A2F8403094F82C
:1026F000C832012B0CD0204603F09AF92268B2F8B8
:1027000044309BB223F480539BB2A2F84430D1E70B
:10271000002184F8C812204603F046FAEBE722684D
:10272000B2F840309BB243F00803A2F84030226870
:10273000B2F844309BB223F400639BB2A2F8443059
:102740002268B2F840309BB243F00403A2F8403054
:10275000204603F05DF9ADE72268B2F844309BB241
:1027600023F080039BB2A2F8443094F8C832FBB93E
:102770002268B2F840309BB243F00403A2F8403024
:102780002268B2F840309BB243F00803A2F8403010
:10279000012184F8C8122368B3F85430C3F38D03C1
:1027A00003F03C03C4F8CC32204603F0FDF981E786
:1027B000204603F02DF97DE72268B2F844309BB241
:1027C00023F400739BB2A2F84430204603F007F9CB
:1027D00070E710B50446084611F0800F27D101F0CC
:1027E000070C0CEB8C01C90001F5A87E04EB0E016F
:1027F0000CEB8C0C04EBCC0C4FF0000E8CF851E180
:1028000000F007000870C2F30A020A61CB70022BC5
:102810001DD094F89032012B1CD0012384F8903203
:10282000206801F0C4FD002084F8900210BD01F082
:10283000070C0CEB8C01C900103121440CEB8C0C03
:1028400004EBCC0C4FF0010E8CF811E0D8E700231C
:102850000B71DEE70220E9E710B504460A4611F0E5
:10286000800F1FD101F0070000EB8003DB0003F5B0
:10287000A873E11800EB800004EBC000002380F88F
:10288000513102F007020A7094F89032012B17D0F0
:10289000012384F89032206802F042F8002084F886
:1028A000900210BD01F0070000EB8003DB00103345
:1028B000E11800EB800004EBC00001234374E0E763
:1028C0000220EEE710B501F0070C0CEB8C01C900FB
:1028D00001F5A8710CEB8C0E00EBCE0ECEF8642146
:1028E000CEF868310024CEF86C418EF851418EF854
:1028F00050C10144006802F098F9204610BD01F073
:10290000070101EB810100EBC100D0F86C017047B9
:1029100038B501F0070C0CEB8C01C90010310CEB41
:102920008C0E00EBCE0ECEF824200CF1010202EB4F
:10293000820440F8343001258EF83450CEF830301F
:1029400000EBC402002454608EF811508EF810C0C1
:102950000144006802F069F9204638BD0B4601F0D9
:102960000702017991422ED310B5044613F0800F6F
:102970001DD103EB8301C90001F5A871014403EBEC
:10298000830300EBC303002083F8510101238B7004
:102990000A7094F89032012B17D0012384F89032FA
:1029A000206802F0A8F8002084F8900210BD02EB25
:1029B0008201C9001031014402EB820300EBC30322
:1029C00001205874E2E7012070470220EEE70B4631
:1029D000017903F00F02914234D310B5044613F08D
:1029E000800F21D103F0070202EB8201C90001F53B
:1029F000A871014402EB820200EBC202002082F8BF
:102A0000510100228A7003F007030B7094F8903292
:102A1000012B19D0012384F89032206802F090F83D
:102A2000002084F8900210BD03F0070202EB82013F
:102A3000C9001031014402EB820200EBC202012006
:102A40005074DEE7012070470220ECE711F0800FA0
:102A50000BD001F0070101EB8101C90010310844DE
:102A600052B90273C3800020704701EB8101C90095
:102A700001F5A8710844F3E70122027303811B0CDE
:102A80004381F0E7034602680121C0F8D01200201C
:102A900083F8C802B2F854309BB20B43A2F854300A
:102AA000B2F854309BB243F00203A2F8543070479E
:102AB000024A136843F4807313607047000400589F
:102AC000024B186800F4C060704700BF0004005853
:102AD000024A536843F4806353607047000400580F
:102AE00030B58DB004468E46DFF8B0C09CE80F00CC
:102AF0000CAD05E90F0005AB0CF1100207CA83E825
:102B0000070001AD0CF11C0C9CE80F0085E80F00DC
:102B1000BEF5007F07D0002314E00CAA02EB83036C
:102B200053F82C5C1EE00023032B08D80CAA02EB00
:102B3000830252F8102CA242EFD20133F4E70025B1
:102B400010E00133022B0CD80CAA02EB830252F8DE
:102B50001C2CA242F5D30CAA02EB830353F82C5C85
:102B600000E000250C4A136823F007032B43136091
:102B7000FEF7CAFC0446084B1B6803F00703AB4290
:102B800006D0FEF7C1FC001B0228F4D9032000E0A8
:102B900000200DB030BD00BF00400058A0920008DA
:102BA00010B5B02818D90F4BDB6A4FF0B042D2F8FD
:102BB000082102F00F020C4951F82220B3FBF2F376
:102BC0000A4AA2FB03239B0C1C46FFF779FF014630
:102BD0002046FFF785FF10BDC0F30310014B53F8EB
:102BE0002030E2E7409300088093000883DE1B4317
:102BF0004FF0B0439B6813F00C030DD14FF0B0437E
:102C00001B6803F0F003B02B04D81B09254A52F8C7
:102C100023007047B023F8E7042B3ED0082B10D0D8
:102C20004FF0B043DB6803F00303022B31D0032BDA
:102C30000FD14FF0B0431B6813F4801F2BD11A48FB
:102C400012E04FF0B0431B6813F4801F27D01748E1
:102C500070474FF0B0431B6803F0F003B02B16D859
:102C60001B09104A52F823004FF0B042D368C3F357
:102C7000062303FB00F0D368C3F302130133B0FB58
:102C8000F3F0D3685B0F0133B0FBF3F07047B02370
:102C9000E6E70648E8E70548E6E7044870470248E3
:102CA000704700BF409300080048E8010024F4008A
:102CB00008B5FFF79DFF4FF0B0439B68C3F30313C4
:102CC000024A52F82330B0FBF3F008BD80930008AD
:102CD000002800F0758338B50446036813F0200F10
:102CE0002DD04FF0B0429368D26802F0030213F087
:102CF0000C0358D00C2B54D0E369002B00F0A080BB
:102D00004FF0B042136843F001031360FEF7FCFB81
:102D100005464FF0B0431B6813F0020F00F08880A7
:102D2000636A4FF0B042116821F0F0010B43136069
:102D3000216A536823F47F4343EA012353602368E5
:102D400013F0010F00F09A804FF0B042936803F047
:102D50000C03D26802F00302082B00F08B800C2BCE
:102D600000F085806368B3F5803F00F0B0804FF0DD
:102D7000B042136823F4803313606368002B00F0C3
:102D8000AD80FEF7C1FB05464FF0B0431B6813F45E
:102D9000003F73D1FEF7B8FB401B6428F4D9032031
:102DA00019E3012AA8D1E369002B00F00B83606AC4
:102DB0004FF0B0431B6803F0F003B02B21D89842CA
:102DC00021D9FFF7EDFE002840F0FE82636A4FF044
:102DD000B042116821F0F0010B431360216A53687F
:102DE00023F47F4343EA01235360FFF761FFBD4BA8
:102DF0001860BD4B1868FEF73BFB00289FD00120F0
:102E0000E9E2B023DBE74FF0B042136823F0F003B0
:102E100018431060216A536823F47F4343EA012377
:102E20005360606AFFF7BCFE0028DED00120D2E2CA
:102E3000FEF76AFB401B02287FF66BAF0320CAE255
:102E40004FF0B042136823F001031360FEF75CFB00
:102E500005464FF0B0431B6813F0020F3FF46FAF0D
:102E6000FEF752FB401B0228F3D90320B3E2032AEA
:102E70007FF478AF6368002B00F0A882236813F01A
:102E8000020F54D04FF0B042936803F00C03D268A5
:102E900002F00302042B33D00C2B2FD0E368002B5D
:102EA00074D04FF0B042136843F480731360FEF7A0
:102EB0002BFB05464FF0B0431B6813F4806F2DD1F8
:102EC000FEF722FB401B0228F4D9032083E24FF0D7
:102ED000B042136843F4803313604EE7FEF714FBEF
:102EE00005464FF0B0431B6813F4003FC6D0FEF711
:102EF0000BFB401B6428F4D903206CE2022ACDD1DD
:102F0000E368002B00F0648221694FF0B0425368FF
:102F100023F0FE4343EA0163536008E021694FF068
:102F2000B042536823F0FE4343EA016353602368D1
:102F300013F0080F03D113F0100F00F0DE80626968
:102F4000002A00F0A38013F0100F70D04FF0B043B0
:102F5000D3F8943013F0020F2ED14FF0B042D2F8D4
:102F6000943043F00103C2F89430FEF7CDFA0546E1
:102F70004FF0B043D3F8943013F0020F1CD1FEF79A
:102F8000C3FA401B0228F3D9032024E24FF0B042D9
:102F9000136823F480731360FEF7B6FA05464FF00A
:102FA000B0431B6813F4806FC1D0FEF7ADFA401B2D
:102FB0000228F4D903200EE24FF0B042D2F8943048
:102FC00043F00403C2F89430FEF79EFA05464FF032
:102FD000B043D3F8943013F0080F06D1FEF794FAFB
:102FE000401B0328F3D90320F5E1A1694FF0B0425B
:102FF000D2F8943023F4706343EA0123C2F894308A
:10300000D2F8943023F00103C2F89430FEF77CFA32
:1030100005464FF0B043D3F8943013F0020F6CD054
:10302000FEF772FA401B0228F3D90320D3E14FF0D8
:10303000B042D2F8943043F00103C2F89430FEF766
:1030400063FA05464FF0B043D3F8943013F0020F03
:1030500006D1FEF759FA401B0228F3D90320BAE142
:103060004FF0B042D2F8943023F00403C2F8943009
:103070004FF0B043D3F8943013F0080F3DD0FEF773
:1030800043FA401B0328F3D90320A4E14FF0B042D8
:10309000D2F8943023F00403C2F89430FEF734FAE7
:1030A00005464FF0B043D3F8943013F0080F1DD10C
:1030B0004FF0B042D2F8943023F00103C2F89430BC
:1030C000FEF722FA05464FF0B043D3F8943013F0E0
:1030D000020F12D0FEF718FA401B0228F3D9032082
:1030E00079E100BF100000200C000020FEF70CFA70
:1030F000401B0328D5D903206DE1236813F0040F8A
:1031000068D0B64B1B6813F4807F27D0A368012BCF
:1031100035D0052B3CD04FF0B043D3F8902022F0AF
:103120000102C3F89020D3F8902022F00402C3F8E3
:103130009020A368DBB3FEF7E7F905464FF0B043F4
:10314000D3F8903013F0020F44D1FEF7DDF9401BA5
:1031500041F288339842F1D903203CE1FFF7A8FC03
:10316000FEF7D2F905469D4B1B6813F4807FCDD145
:10317000FEF7CAF9401B0228F5D903202BE14FF0D6
:10318000B042D2F8903043F00103C2F89030D0E75B
:103190004FF0B043D3F8902042F00402C3F89020DF
:1031A000D3F8902042F00102C3F89020C1E7FEF767
:1031B000ABF905464FF0B043D3F8903013F0020F4F
:1031C00008D0FEF7A1F9401B41F288339842F1D9AB
:1031D000032000E1236813F0400F33D0A36AC3B18A
:1031E0004FF0B042D2F8983043F00103C2F8983063
:1031F000FEF78AF905464FF0B043D3F8983013F044
:10320000020F1FD1FEF780F9401B0228F3D90320DB
:10321000E1E04FF0B042D2F8983023F00103C2F859
:103220009830FEF771F905464FF0B043D3F8983067
:1032300013F0020F06D0FEF767F9401B0228F3D9FE
:103240000320C8E0E36A002B00F0C4804FF0B042D6
:10325000916801F00C01D268022B19D00C2900F002
:10326000C3804FF0B042136823F080731360FEF701
:103270004BF904464FF0B0431B6813F0007F00F099
:103280009780FEF741F9001B0228F3D90320A2E042
:1032900002F00303206B83420AD00C2900F09C80CB
:1032A0004FF0B0431B6813F0806F22D0012092E0F2
:1032B00002F07003606B8342EFD1C2F30623A06B70
:1032C0008342EAD102F47813E06B8342E5D102F045
:1032D0006063206C8342E0D102F06042636C9A42EA
:1032E000DBD14FF0B0431B6813F0007F44D00020C7
:1032F00071E04FF0B042136823F080731360FEF763
:1033000003F905464FF0B0431B6813F0007F06D069
:10331000FEF7FAF8401B0228F4D903205BE04FF0D7
:10332000B042D3682E491940236B606B0343A06BF6
:1033300043EA0023E06B0343206C0343606C0343C8
:103340001943D160136843F080731360D36843F06E
:103350008053D360FEF7D8F804464FF0B0431B68A3
:1033600013F0007F06D1FEF7CFF8001B0228F4D936
:10337000032030E000202EE04FF0B0431A6842F006
:1033800080721A60DA6842F08052DA60FEF7BCF8A8
:1033900004464FF0B0431B6813F0007F06D1FEF7E0
:1033A000B3F8031B022BF4D9032014E0002012E031
:1033B0004FF0B042D1680B4B0B40D36000200AE0C5
:1033C00001207047012006E0012004E0012002E016
:1033D000012000E0184638BD0120FCE70004005839
:1033E0008C80C111FCFFFEEE0120F4E7002800F004
:1033F000278170B50C460546934B1B6803F0070305
:103400008B422DD32B6813F0020F3FD12B6813F0A2
:10341000200F53D12B6813F0400F6AD12B6813F0A3
:10342000040F40F083802B6813F0080F40F0978062
:103430002B6813F0010F00F0DE806B68022B00F0A8
:10344000A880032B00F0AD80002B40F0B2804FF03D
:10345000B042126812F0020F40F0B1800120EEE09D
:10346000794A136823F007030B431360FEF74CF807
:103470000646754B1B6803F00703A342C2D0FEF754
:1034800043F8801B0228F4D90320D8E0AB684FF042
:10349000B0418A6822F0F00213438B60FEF734F8E3
:1034A00006464FF0B0439B6813F4803FAED1FEF761
:1034B0002BF8801B0228F4D90320C0E06B694FF081
:1034C000B041D1F8082122F0F0021343C1F80831CD
:1034D000FEF71AF806464FF0B043D3F8083113F45C
:1034E000003F97D1FEF710F8801B0228F3D9032084
:1034F000A5E0A9694FF0B042D2F8083123F00F03DC
:1035000043EA1113C2F80831FDF7FEFF06464FF0FB
:10351000B043D3F8083113F4803F7FF47FAFFDF759
:10352000F3FF801B0228F2D9032088E0EB684FF0FC
:10353000B0418A6822F4E06213438B60FDF7E4FF38
:1035400006464FF0B0439B6813F4003F7FF46BAF27
:10355000FDF7DAFF801B0228F3D903206FE0296909
:103560004FF0B042936823F4605343EAC103936081
:10357000FDF7CAFF06464FF0B0439B6813F4802F57
:103580007FF456AFFDF7C0FF801B0228F3D903205C
:1035900055E04FF0B042126812F4003F0FD1012005
:1035A0004DE04FF0B042126812F0007F07D10120C9
:1035B00045E04FF0B042126812F4806F42D04FF0F5
:1035C000B0418A6822F0030213438B60FDF79CFF31
:1035D00006464FF0B0439B6803F00C036A68B3EBF8
:1035E000820F08D0FDF790FF801B41F2883398428C
:1035F000EFD9032023E0144B1B6803F00703A34219
:1036000015D9114A136823F0070323431360FDF70C
:103610007BFF05460C4B1B6803F00703A34206D053
:10362000FDF772FF401B0228F4D9032007E0FFF7E3
:103630003FFB064B1860FDF76DFFFDF719FF70BDEE
:10364000012070470120FAE70040005810000020D8
:103650004FF0B041D1F88830020902F47F2223EA0A
:103660000203000100F47F200343C1F88830704753
:1036700070B505464FF0B042136823F080631360C5
:10368000FDF742FF04464FF0B0431B6813F0006F94
:1036900006D0FDF739FF001B0228F4D9032400E00F
:1036A00000240CB1204670BD4FF0B0431A6922F4DB
:1036B000FE42296842EA01221A611A6922F478124C
:1036C00069680A431A611A6842F080621A60FDF75D
:1036D0001BFF06464FF0B0431B6813F0006F05D187
:1036E000FDF712FF801B0228F4D90324002CD9D146
:1036F0004FF0B042136929690B431361D2E770B5EB
:1037000005464FF0B042136823F080631360FDF765
:10371000FBFE04464FF0B0431B6813F0006F06D069
:10372000FDF7F2FE001B0228F4D9032400E0002478
:103730000CB1204670BD4FF0B0431A6922F4FE422E
:10374000296842EA01221A611A6922F06062A968B6
:103750000A431A611A6842F080621A60FDF7D4FECB
:1037600006464FF0B0431B6813F0006F05D1FDF71C
:10377000CBFE801B0228F4D90324002CD9D14FF0B2
:10378000B042136929690B431361D2E770B505464E
:103790004FF0B042136823F080631360FDF7B4FE6E
:1037A00004464FF0B0431B6813F0006F06D0FDF7DE
:1037B000ABFE001B0228F4D9032400E000240CB166
:1037C000204670BD4FF0B0431A6922F4FE422968CA
:1037D00042EA01221A611A6922F06042E9680A434A
:1037E0001A611A6842F080621A60FDF78DFE064683
:1037F0004FF0B0431B6813F0006F05D1FDF784FE56
:10380000801B0228F4D90324002CD9D14FF0B042F8
:10381000136929690B431361D2E770B50446036845
:1038200013F0400F35D0036BB3F5800F16D00BD8D3
:1038300033B90430FFF71CFF0646B8B105462BE04C
:1038400001231D461E4627E0B3F5000F1BD0B3F53C
:10385000400F1BD001231D461E461DE04FF0B04215
:10386000D36843F48033D36000231E46236B4FF0AC
:10387000B041D1F8882022F440021343C1F88830C7
:1038800000231D4608E000231E46EFE700231E46E6
:10389000ECE700231D461E46236813F4006F0BD08F
:1038A0004FF0B043D3F8903003F440731D46236CBF
:1038B000AB4240F0B7803546236813F0010F09D0C2
:1038C000A3694FF0B041D1F8882022F003021343DE
:1038D000C1F88830236813F0020F09D0E3694FF074
:1038E000B041D1F8882022F440621343C1F88830F7
:1038F000236813F0100F0CD0A16A4FF0B042D2F839
:103900008830080C000423EA000343EA0143C2F8AC
:103910008830236813F0200F0CD0E16A4FF0B042DA
:10392000D2F88830080C000423EA000343EA01437C
:10393000C2F88830236813F0040F40F0B580236884
:1039400013F0080F40F0B480236813F4807F13D085
:10395000636B4FF0B041D1F8882022F040621343EE
:10396000C1F88830636BB3F1006F00F0A580636B22
:10397000B3F1806F00F0A580236813F4007F17D0A7
:10398000A36BB3F1804F05D0B3F1004F02D0002BF1
:1039900040F09F804FF0B041D1F8882022F04042A3
:1039A0001343C1F88830A36BB3F1C05F00F0A3806C
:1039B000236813F4806F13D0E36B4FF0B041D1F85C
:1039C000882022F040521343C1F88830E36BB3F1F2
:1039D000005F00F09780E36BB3F1805F00F09780A9
:1039E000236813F4805F09D0636C4FF0B041D1F8C5
:1039F000942022F440421343C1F89430236813F416
:103A0000005F0DD0E26C4FF0B043596A21F03001F5
:103A10000A435A62A26C596A21F003010A435A62AE
:103A2000284670BDFFF744F85DB9236C4FF0B041F4
:103A3000D1F8902022F440721343C1F890303546FB
:103A40003AE74FF0B043D3F89020D3F8901041F408
:103A50008031C3F89010D3F8901021F48031C3F86E
:103A6000901022F44072216C0A43C3F89020D3F8DE
:103A7000903013F0010F13D0FDF746FD05464FF0CF
:103A8000B043D3F8903013F0020F0BD1FDF73CFD9B
:103A9000401B41F288339842F1D903231D460BE7BE
:103AA000354609E7354607E7206AFFF7D1FD46E7C7
:103AB000606AFFF7CDFD47E7CB6843F08073CB60CA
:103AC00055E7201DFFF71BFE00283FF455AF0546C4
:103AD00052E723F080534FF0B042D2F8881021F023
:103AE0004041C2F88810D2F8881021F040610B43A1
:103AF000C2F8883057E74FF0B042D36843F0807384
:103B0000D36055E7CB6843F48033CB6063E7201D77
:103B1000FFF73CFE00283FF463AF054660E74FF037
:103B2000B042136843F00403136070472DE9F0437B
:103B300083B004460F4616461D46FDF7E5FC0A9B7A
:103B40001B1A03EB0508FDF7DFFC8146284B1B68B9
:103B5000C3F3CB3308FB03F3019323689B6837EA75
:103B600003030CBF01230023B3423DD0B5F1FF3F57
:103B7000F3D0FDF7C9FC4B46C01A404503D2019B68
:103B800073BB9846E9E72268536823F0E00353606B
:103B90006368B3F5827F0BD0A36AB3F5005F14D0DE
:103BA000012384F85D30002384F85C3003201CE09E
:103BB000A368B3F5004F02D0B3F5806FECD1226853
:103BC000136823F040031360E6E72268136823F4C8
:103BD000005313602268136843F400531360DFE757
:103BE000019B013B0193B8E7002003B0BDE8F083DF
:103BF000100000202DE9F04782B006460C4615461D
:103C00001F4600238DF80330FDF77EFC0A9B1B1A2C
:103C100003EB0708FDF778FC8246D6F80090304B9E
:103C20001B6803EB8303C3EBC3031B0D08FB03F308
:103C3000019302E0B7F1FF3F12D133689B6803EABA
:103C4000040CAC4547D0B4F5C06FF3D1002DF1D1D1
:103C500099F80C30DBB28DF803309DF80330E9E7BA
:103C6000FDF752FC5346C01A404503D2019B73BB7B
:103C70009846E2E73268536823F0E00353607368C4
:103C8000B3F5827F0BD0B36AB3F5005F14D0012384
:103C900086F85D30002386F85C3003201CE0B368B2
:103CA000B3F5004F02D0B3F5806FECD132681368E2
:103CB00023F040031360E6E73268136823F40053EF
:103CC00013603268136843F400531360DFE7019B0D
:103CD000013B0193B1E7002002B0BDE8F08700BFCF
:103CE0001000002070B582B004460B460E46154603
:103CF000009200224FF4C051FFF77CFFB0B900954D
:103D00003346024680212046FFF710FFA8B90095F0
:103D1000334602464FF4C0612046FFF76BFF50B1B7
:103D2000236E43F020032366032004E0236E43F058
:103D300020032366032002B070BD236E43F02003EE
:103D400023660320F7E700286AD010B50446436ACB
:103D500033B94368B3F5827F05D00023C36102E025
:103D60000023036143610023A36294F85D30002BBC
:103D70004DD0022384F85D302268136823F040039D
:103D80001360E368B3F5E06F47D90022B3F5706FB5
:103D900004D0B3F5E06F01D00023A362636803F49D
:103DA0008273A16801F404410B43216901F002010F
:103DB0000B43616901F001010B43A16901F400713A
:103DC0000B43E16901F038010B43216A01F08001E6
:103DD0000B43A16A01F4005120680B430360638B1D
:103DE00003F00403616A01F010010B43616B01F001
:103DF00008010B43E16801F470610B432168134330
:103E00004B6000202066012384F85D3010BD84F8EB
:103E10005C302046FDF706FEABE74FF48052B5E775
:103E2000012070472DE9F04383B00446894690464F
:103E30001D46FDF769FB94F85D30012B40F0F080E2
:103E40000646DFB24946002900F0EB804246002AD0
:103E500000F0E78094F85C30012B00F0E68001234D
:103E600084F85C30032384F85D3000232366C4F8B3
:103E70003890A4F83C80A4F83E802364A4F8443031
:103E8000A4F846302365E364A368B3F5004F1ED061
:103E900023681A6812F0400F03D11A6842F04002FA
:103EA0001A60E368B3F5E06F47D9636813B143461E
:103EB000012B20D1A26B23681288DA60A36B023336
:103EC000A363E38F9BB2013B9BB2E38713E02268BD
:103ED000136823F0400313602268136843F480439F
:103EE0001360D5E7FDF710FB801BA84202D3B5F1A4
:103EF000FF3F1AD1CDB1E38F9BB2002B75D0236861
:103F00009A6812F0020FEDD0A26B1288DA60A36BF0
:103F10000233A363B4F83EC01FFA8CFC0CF1FF3CE3
:103F20001FFA8CFCA4F83EC0E5E7012384F85D305D
:103F3000002384F85C30032773E0636813B14346C1
:103F4000012B28D1E38F9BB2012B0CD9A26B2368E4
:103F50001288DA60A36B0233A363E38F9BB2023B48
:103F60009BB2E38717E0A26B236812781A73A36BE6
:103F70000133A363E38F9BB2013B9BB2E3870AE06B
:103F8000A36B1B88D360A36B0233A363E38F9BB245
:103F9000023B9BB2E387E38F9BB233B32268936803
:103FA00013F0020F0FD0E38F9BB2012BE8D8A36B65
:103FB0001B781373A36B0133A363E38F9BB2013BA5
:103FC0009BB2E387E7E7FDF79FFA801BA84202D385
:103FD000B5F1FF3F01D1002DDDD1012384F85D3023
:103FE000002384F85C3003271BE032462946204634
:103FF000FFF778FE08B120232366A36833B9019345
:104000002368DA6801929B680193019B012384F87D
:104010005D30002384F85C30236E13B91F4600E046
:104020000227384603B0BDE8F0830227F9E72DE9FF
:10403000F84304460F4691469846089DFDF764FAFA
:10404000064694F85D306268012B0BD0D9B2B2F508
:10405000827F40F06481A368002B40F063810429D3
:1040600040F06281002F00F061814B46002B00F090
:104070005F814346002B00F05D8194F85C30012B9A
:1040800000F05A81012384F85C3094F85D30042BF1
:1040900002D0052384F85D3000232366C4F84090E5
:1040A0004246A4F84680A4F84480A763A4F83E8062
:1040B000A4F83C80E3642365E368B3F5E06F01D8BE
:1040C000012A25D92268536823F48053536023685A
:1040D0001A6812F0400F03D11A6842F040021A60C9
:1040E000E368B3F5E06F62D9636813B14346012B0F
:1040F0000BD1A26B23681288DA60A36B0233A3632F
:10410000E38F9BB2013B9BB2E38701231F4631E063
:104110002268536843F480535360D8E7A26B128837
:10412000DA60A36B0233A363E38F9BB2013B9BB2C4
:10413000E38700231F462268936813F0010311D020
:10414000B4F8461089B269B1D168226C1180226C32
:1041500002322264B4F8462092B2013A92B2A4F834
:1041600046201F46FDF7D0F9831BAB4202D3B5F1C1
:10417000FF3F14D1E38F9BB22BB9B4F846309BB20A
:10418000002B00F0B58023689A6812F0020FD2D09D
:10419000E28F92B2002ACED0002FCCD0BEE701230E
:1041A00084F85D30002384F85C300320B8E0636855
:1041B00013B14346012B0FD1E38F9BB2012B0ED9D4
:1041C000A26B23681288DA60A36B0233A363E38FC8
:1041D0009BB2023B9BB2E38701231F464BE0A26BDD
:1041E000236812781A73A36B0133A363E38F9BB226
:1041F000013B9BB2E387EFE7E28F92B2012A0DD930
:10420000A26B1288DA60A36B0233A363E38F9BB2C5
:10421000023B9BB2E38700231F463EE0A26B12786D
:104220001A73A36B0133A363E38F9BB2013B9BB271
:10423000E38700231F4630E021684A6842F4805239
:104240004A601F460DE0216C127B0A70226C01321D
:104250002264B4F8462092B2013A92B2A4F8462001
:104260001F46FDF751F9801BA84202D3B5F1FF3F6D
:1042700036D1002D34D0E38F9BB223B9B4F8463049
:104280009BB2002B34D023689A6812F0020F04D03E
:10429000E28F92B20AB1002FAED12268936813F078
:1042A0000103DED0B4F8461089B20029D9D0B4F8A1
:1042B000461089B20129C6D9D168226C1180226CBE
:1042C00002322264B4F8462092B2023A92B2A4F8C2
:1042D0004620B4F8462092B2012AADD91F46C0E765
:1042E000012384F85D30002384F85C30032017E05C
:1042F000324629462046FFF7F5FC48B9012384F8E9
:104300005D30002384F85C30236E4BB1012007E060
:1043100020232366002384F85C30012000E0022083
:10432000BDE8F8830220FBE70220F9E70120F7E768
:104330000120F5E70120F3E70220F1E7FEE7FEE7C1
:10434000FEE7FEE7FEE770477047704708B5FDF7E8
:10435000CFF808BD08B50248FEF762F908BD00BFF6
:10436000D818002003460020A3F844004BF68072C2
:10437000A3F840207047B0F840309BB223F47E533E
:104380005B045B0CA0F840300020704782B003460D
:1043900002A800E906000122A3F840200020A3F8AB
:1043A0004000A3F84400A3F8500002B0704700B5E5
:1043B000034691F800C030F82C2092B222F4EC426F
:1043C00022F0700292B2C878022867D008D878B17B
:1043D000012803D142F4806200200BE0012009E0B3
:1043E000032803D142F4C062002003E0012001E071
:1043F00042F4007248F2800E42EA0E0223F82C20AA
:1044000091F800C033F82C2092B222F4E04222F05E
:1044100070024CEA020242EA0E0223F82C200A7BC8
:10442000002A40F0DC804A78002A48D0B3F85020B7
:1044300013FA82F291F800C002EBCC02B1F806C088
:104440004FEA5C0C4FEA4C0CA2F800C491F800C093
:1044500033F82C2012F0400F0CD033F82C2092B2FD
:1044600022F4E04222F0700242F4004242F0C00224
:1044700023F82C20CA78012A12D0097833F8212099
:1044800092B222F4E04222F0400282F0200242F492
:10449000004242F0800223F82120D8E10020A9E761
:1044A000097833F8212092B222F4E04222F040024F
:1044B00042F4004242F0800223F82120C7E1B3F821
:1044C000502013FA82F291F800C002EBCC02B1F84E
:1044D00006C04FEA5C0C4FEA4C0CA2F804C4B3F8D7
:1044E000502013FA82F291F800C002EBCC02B2F82D
:1044F00006C4CCF3090CA2F806C4D1F810C0BCF174
:10450000000F2FD1B2F806C46FEA4C4C6FEA5C4C36
:104510001FFA8CFCA2F806C491F800C033F82C20D6
:1045200012F4804F0CD033F82C2092B222F4E042E7
:1045300022F0700242F4404242F0800223F82C2024
:104540000978E1BB33F8212092B222F4804222F0B4
:10455000700282F4405242F4004242F0800223F89A
:10456000212074E1BCF13E0F13D84FEA5C0E1CF021
:10457000010F01D00EF1010EB2F806C41FFA8CFC37
:104580004FEA8E2E1FFA8EFE4CEA0E0CA2F806C4DD
:10459000C2E74FEA5C1E1CF01F0F01D10EF1FF3E77
:1045A000B2F806C41FFA8CFC4FEA8E2E1FFA8EFE5C
:1045B0004CEA0E0C4CF4004CA2F806C4ACE733F8FD
:1045C000212092B222F4804222F0700282F4005242
:1045D00042F4004242F0800223F8212037E1CA78F9
:1045E000022A7BD091F800C033F82C2092B222F43A
:1045F000E24222F0700242F4004242F0800223F8CC
:104600002C20B3F8502013FA82F291F800C002EB8C
:10461000CC02B1F808C04FEA5C0C4FEA4C0CA2F88F
:1046200000C4B3F8502013FA82F291F800C002EBF4
:10463000CC02B1F80AC04FEA5C0C4FEA4C0CA2F86D
:1046400004C44A78002A40F0108191F800C033F881
:104650002C2012F4804F0CD033F82C2092B222F48C
:10466000E04222F0700242F4404242F0800223F81D
:104670002C2091F800C033F82C2012F0400F0CD001
:1046800033F82C2092B222F4E04222F0700242F47D
:10469000004242F0C00223F82C204A78002A5AD166
:1046A000B3F8502013FA82F291F800C002EBCC026A
:1046B000B2F802C4CCF3090CA2F802C4D1F810C0BD
:1046C000BCF1000F1AD1B2F802C46FEA4C4C6FEA89
:1046D0005C4C1FFA8CFCA2F802C43EE091F800C0CA
:1046E00033F82C2092B222F4E04222F0700242F41D
:1046F000014242F0800223F82C2082E7BCF13E0FF9
:1047000013D84FEA5C0E1CF0010F01D00EF1010E20
:10471000B2F802C41FFA8CFC4FEA8E2E1FFA8EFEEE
:104720004CEA0E0CA2F802C417E04FEA5C1E1CF023
:104730001F0F01D10EF1FF3EB2F802C41FFA8CFC2C
:104740004FEA8E2E1FFA8EFE4CEA0E0C4CF4004CF3
:10475000A2F802C401E0012A20D04A78002A57D1E9
:10476000B3F8502013FA82F291F800C002EBCC02A9
:10477000B2F806C4CCF3090CA2F806C4D1F810C0F4
:10478000BCF1000F17D1B2F806C46FEA4C4C6FEAC7
:104790005C4C1FFA8CFCA2F806C43BE0B3F8502036
:1047A00013FA82F291F800C002EBCC02B1F810C00B
:1047B000A2F802C4D1E7BCF13E0F13D84FEA5C0E59
:1047C0001CF0010F01D00EF1010EB2F806C41FFA61
:1047D0008CFC4FEA8E2E1FFA8EFE4CEA0E0CA2F8CD
:1047E00006C417E04FEA5C1E1CF01F0F01D10EF14A
:1047F000FF3EB2F806C41FFA8CFC4FEA8E2E1FFA59
:104800008EFE4CEA0E0C4CF4004CA2F806C401E0FB
:10481000012A1DD091F800E033F82E2092B222F444
:10482000804222F0700282F4405248F2800C42EA48
:104830000C0223F82E20097833F8212092B222F4BA
:10484000E04222F0400242EA0C0223F8212000BD9F
:10485000B3F8502013FA82F291F800C002EBCC02B8
:10486000B1F810C0A2F806C4D4E791F800C033F83C
:104870002C2012F4804F0CD033F82C2092B222F46A
:10488000E04222F0700242F4404242F0800223F8FB
:104890002C2091F800C033F82C2012F0400F0CD0DF
:1048A00033F82C2092B222F4E04222F0700242F45B
:1048B000004242F0C00223F82C20CA78012A1FD0FF
:1048C00091F800C033F82C2092B222F4E04222F09A
:1048D000400282F0200242F4004242F0800223F8BB
:1048E0002C20097833F8212092B222F4804222F061
:1048F000700242F4004242F0800223F82120A6E731
:1049000091F800C033F82C2092B222F4E04222F059
:10491000400242F4004242F0800223F82C20E0E7FB
:104920000B7B002B46D14B7813B30A7830F822303A
:1049300013F0400F0CD030F822309BB223F4E04348
:1049400023F0700343F4004343F0C00320F8223007
:104950000A7830F822309BB223F4E04323F040037E
:1049600043F4004343F0800320F8223000207047D6
:104970000A7830F8223013F4804F0CD030F822300F
:104980009BB223F4E04323F0700343F4404343F02D
:10499000800320F822300A7830F822309BB223F4CA
:1049A000804323F0700343F4004343F0800320F876
:1049B0002230DBE74B78002B4ED10A7830F82230DA
:1049C00013F4804F0CD030F822309BB223F4E04334
:1049D00023F0700343F4404343F0800320F8223077
:1049E0000A7830F8223013F0400F0CD030F8223023
:1049F0009BB223F4E04323F0700343F4004343F0FD
:104A0000C00320F822300A7830F822309BB223F419
:104A1000E04323F0700343F4004343F0C00320F865
:104A200022300A7830F822309BB223F4804323F0FE
:104A3000700348F2800C43EA0C0320F822300A7815
:104A400030F822309BB223F4E04323F0400343EAE2
:104A50000C0320F8223089E70A7830F8223013F46A
:104A6000804F0CD030F822309BB223F4E04323F087
:104A7000700343F4404343F0800320F822300A7867
:104A800030F8223013F0400F0CD030F822309BB2B7
:104A900023F4E04323F0700343F4004343F0C003E6
:104AA00020F822300A7830F822309BB223F4E04319
:104AB00023F0700343F4404343F0800320F8223096
:104AC0000A7830F822309BB223F4E04323F040030D
:104AD00048F2800C43EA0C0320F822300A7830F8C0
:104AE00022309BB223F4804323F0700343EA0C038B
:104AF00020F822303AE74B788BB10A7830F8223030
:104B00009BB223F4E04323F0400383F0100343F40B
:104B1000004343F0800320F82230002070470A78D9
:104B200030F822309BB223F4804323F0700383F4E7
:104B3000805343F4004343F0800320F82230ECE735
:104B40004B7833B30A7830F8223013F0400F0CD092
:104B500030F822309BB223F4E04323F0700343F497
:104B6000004343F0C00320F82230CB78012B33D030
:104B70000A7830F822309BB223F4E04323F040035C
:104B800083F0200343F4004343F0800320F82230F5
:104B900022E00A7830F8223013F4804F0CD030F83D
:104BA00022309BB223F4E04323F0700343F44043EC
:104BB00043F0800320F822300A7830F822309BB28C
:104BC00023F4804323F0700383F4405343F4004301
:104BD00043F0800320F822300020704711B9802371
:104BE000A0F84C3000207047B0F858306FEA4343CB
:104BF0006FEA53439BB2A0F8583000207047B0F8DA
:104C0000440080B2704701335B08104400F58060B7
:104C100008E00A7891F801C042EA0C2220F8022B41
:104C20000231013B002BF4D1704770B505460C46AC
:104C30004B78012B1AD00B7B002B40F094828B69B0
:104C4000002B40F06782CB78002B40F063820A781B
:104C500030F822309BB223F4E04323F0700343F496
:104C6000014343F0800320F8223061E28A69114653
:104C700016462269914200D91646217B41B3E1785C
:104C8000022947D0226A921B2262227835F822102C
:104C900011F0400F00F0F681002B40F0E381B5F8F1
:104CA000503015FA83F303EBC202B2F80634C3F3B3
:104CB0000903A2F80634002E40F0B481B2F806349D
:104CC0006FEA43436FEA53439BB2A2F80634D2E142
:104CD000B3B21E46E28861692846FFF794FFB5F833
:104CE000503015FA83F3227803EBC203A3F8026471
:104CF000227835F822309BB223F4E04323F04003BE
:104D000083F0300343F4004343F0800325F822305E
:104D1000002024E2236A9A4280F06681227835F8E6
:104D200022309BB223F4E04323F0700343F40143A9
:104D300043F0800325F82230236A9B1B23622378EB
:104D400035F8232012F0400F00F0A7806278B2BB44
:104D5000B5F8502015FA82F202EBC303B3F806242B
:104D6000C2F30902A3F806244EB9B3F806246FEA89
:104D700042426FEA524292B2A3F8062421E03E2E4C
:104D80000DD8720816F0010F00D00132B3F80614E6
:104D900089B2920292B20A43A3F8062411E0710983
:104DA00016F01F0F00D10139B3F8062492B2890220
:104DB00089B20A4342F40042A3F8062401E0012A22
:104DC00029D0B3B2628961692846FFF71CFF636985
:104DD00033446361236A2269934226D99B1B236271
:104DE0006378002B45D1B5F8503015FA83F322785B
:104DF00003EBC203B3F80224C2F30902A3F80224AE
:104E0000BEB9B3F802246FEA42426FEA524292B24C
:104E1000A3F802242FE0B5F8502015FA82F202EB35
:104E2000C303B2B2A3F80624CBE7002222621E46D7
:104E3000D6E73E2E0DD8720816F0010F00D00132D1
:104E4000B3F8021489B2920292B20A43A3F8022480
:104E500011E0710916F01F0F00D10139B3F80224D7
:104E600092B2890289B20A4342F40042A3F80224B2
:104E700001E0012B06D0B3B2228961692846FFF711
:104E8000C2FE35E7B5F8503015FA83F3227803EB0C
:104E9000C203B2B2A3F80224EDE76278B2BBB5F860
:104EA000502015FA82F202EBC303B3F80224C2F3D6
:104EB0000902A3F802244EB9B3F802246FEA424271
:104EC0006FEA524292B2A3F8022421E03E2E0DD89E
:104ED000720816F0010F00D00132B3F8021489B243
:104EE000920292B20A43A3F8022411E0710916F06B
:104EF0001F0F00D10139B3F8022492B2890289B29E
:104F00000A4342F40042A3F8022401E0012A29D016
:104F1000B3B2228961692846FFF775FE636933449D
:104F20006361236A2269934226D99B1B23626378BB
:104F3000002B45D1B5F8503015FA83F3227803EBF6
:104F4000C203B3F80624C2F30902A3F80624BEB9CB
:104F5000B3F806246FEA42426FEA524292B2A3F8D3
:104F600006242FE0B5F8502015FA82F202EBC303B5
:104F7000B2B2A3F80224CBE7002222621E46D6E793
:104F80003E2E0DD8720816F0010F00D00132B3F892
:104F9000061489B2920292B20A43A3F8062411E0E1
:104FA000710916F01F0F00D10139B3F8062492B22F
:104FB000890289B20A4342F40042A3F8062401E0C0
:104FC000012B06D0B3B2628961692846FFF71BFE48
:104FD0008EE6B5F8503015FA83F3227803EBC2035E
:104FE000B2B2A3F80624EDE7217835F8212092B279
:104FF00022F4E24222F0700242F4004242F08002C7
:1050000025F82120B5F8502015FA82F2217802EB1C
:10501000C1029BB2A2F80234228961692846FFF7D7
:10502000F2FD65E63E2E0DD8730816F0010F00D094
:105030000133B2F8061489B29B029BB20B43A2F86B
:10504000063418E0710916F01F0F00D10139B2F8CB
:1050500006349BB2890289B20B4343F40043A2F8A1
:10506000063408E0B5F8503015FA83F303EBC203B9
:10507000B2B2A3F80624B3B2628961692846FFF789
:10508000C2FD35E6B3BBB5F8503015FA83F303EB38
:10509000C202B2F80234C3F30903A2F802344EB9D3
:1050A000B2F802346FEA43436FEA53439BB2A2F86B
:1050B000023428E03E2E0DD8730816F0010F00D000
:1050C0000133B2F8021489B29B029BB20B43A2F8DF
:1050D000023418E0710916F01F0F00D10139B2F83F
:1050E00002349BB2890289B20B4343F40043A2F815
:1050F000023408E0B5F8503015FA83F303EBC2032D
:10510000B2B2A3F80224B3B2228961692846FFF73C
:105110007AFDEDE5227835F822309BB223F4E243A4
:1051200023F0700343F4004343F0800325F822305A
:10513000A3692269934213D99B1AA361227835F897
:1051400022309BB223F4804323F0700383F4405356
:1051500043F4004343F0800325F82230002070BD63
:105160000023A361EAE7CB78022B04D0012B21D1E5
:1051700000238B61E2E7CB69002BDFD00A7830F89F
:10518000223099B213F4804F10D011F0400FD5D0D7
:1051900035F822309BB223F4E04323F0700343F44C
:1051A000004343F0C00325F82230C7E711F0400F59
:1051B000C4D1EDE70120D2E79C465B08104400F51E
:1051C000806007E030F8022B0A70C2F307224A70B1
:1051D0000231013B002BF5D11CF0010F01D00388F7
:1051E0000B7070470120704708B502F067F916236D
:1051F00003604FF0FF3008BD08B54FF0FF31FFF7F7
:10520000F3FFFEE770B50E461546002406E0AFF347
:105210000080314601F8010B01340E46AC42F6DB4A
:10522000284670BD70B50C461646002504E014F8FB
:10523000010BAFF300800135B542F8DB304670BD9D
:105240004FF0FF3070474FF400534B600020704721
:10525000012070470020704708B503460D4A0E49EB
:105260000E48006840B10D4800680344521A93424A
:1052700008D80A4A136008BD0848DFF824C0C0F8FF
:1052800000C0F0E702F01AF90C2303604FF0FF3082
:10529000F1E700BF00000320000C0000D80300204D
:1052A000081F0020164AD2F8883043F47003C2F871
:1052B00088304FF0B0431A6842F001021A604FF490
:1052C000E0229A601968A2F1A262A2F205120A40D5
:1052D0001A60D3F8942022F00502C3F89420D3F882
:1052E000982022F00102C3F89820064ADA601A6179
:1052F0001A6822F480221A6000229A61704700BF67
:1053000000ED00E00010042208B500220F4910480B
:1053100000F071FC70B90F490D4800F083FC60B9D2
:105320000D490B4800F037FA50B9094800F09AFCD3
:1053300048B908BDFBF76CFFEDE7FBF769FFEFE746
:10534000FBF766FFF1E7FBF763FFF2E7E4000020FD
:10535000DC030020580000209C00002010B5D0F88D
:10536000D43203F1B00250F822408CB100EB82003D
:1053700043687BB194F80002FF280DD09B6894F835
:10538000012221469847FF2384F80032002010BDF7
:105390000320FCE71846FAE70020F8E70A23038019
:1053A0000048704790000020F8B507460F4D822155
:1053B000284600F0D2FD06460121284600F0CDFD2A
:1053C00004468121284600F0C8FD0EB11022B271BA
:1053D0001CB1402222710022627118B14022027178
:1053E0000022427143233B800048F8BD1400002096
:1053F000F8B507460F4D8221284600F0AEFD06465F
:105400000121284600F0A9FD04468121284600F02C
:10541000A4FD0EB11022B2711CB1402222710022F3
:10542000627118B1402202710022427143233B8015
:105430000048F8BD14000020F8B507460F4D822142
:10544000284600F08AFD06460121284600F085FD29
:1054500004468121284600F080FD0EB11022B27171
:105460001CB1002222710222627118B10022027165
:105470000222427143233B800048F8BD1400002003
:1054800038B5D0F8D432B03350F8235095B1044633
:1054900000F083FBC5F80C02D4F8D432B03304EB2F
:1054A00083046368DB6805F50371D5F80402984747
:1054B000002038BD0320FCE710B5D0F8C8E2D0F8D2
:1054C000D432B03350F823C0BCF1000F2FD001F01C
:1054D0000F0303EB830200EB8202526952B103EB2C
:1054E00083040EEBC40EDEF820E0B2FBFEF40EFBEC
:1054F000142292B10023CCF81432D0F8D432B03355
:1055000000EB830043681B699BB10A460CF50471EC
:10551000DCF808029847002010BD03EB830300EB82
:1055200083035A61134600F028FB0020F4E70320B0
:10553000F2E71846F0E7F0B583B0D0F8D43203F1C3
:10554000B00250F8227000228DF80720ADF8042038
:10555000002F76D004460D46097811F0600633D04E
:10556000202E67D1EA882AB311F0800F07D16B781B
:1055700087F80032EA883F2A13D8D2B212E0B0335B
:1055800000EB83035B689B68394668789847EA8834
:10559000072A28BF07223946204601F057F900267E
:1055A0004CE0402287F801223946204601F064F998
:1055B000002643E0B03300EB83035B689B68294619
:1055C00068789847002639E06F780A2F23D008D8EA
:1055D00097B1012F32D02946204600F0FBFC03266C
:1055E0002CE00B2FF7D190F89C32032B26D02946C4
:1055F00000F0F0FC032621E090F89C32032B04D04D
:10560000294600F0E7FC032618E0022201A901F078
:105610001DF93E4612E090F89C32032B04D0294637
:1056200000F0D8FC032609E001220DF1070101F08A
:105630000DF903E0294600F0CDFC0326304603B007
:10564000F0BD0326FAE738B50446812100F05FFA81
:10565000002584F837500121204600F058FA84F8DC
:1056600077518221204600F052FA84F84B5065644D
:10567000D4F8D43203F1B00254F822209AB1B033F6
:1056800004EB83035B685B689847D4F8D432B0338B
:1056900054F8230000F0AEFAD4F8D432B03344F812
:1056A0002350C4F8BC52002038BD70B504464FF4F6
:1056B000077000F09BFA002849D005464FF40772A6
:1056C000002101F0A8FED4F8D432B03344F82350BE
:1056D000C4F8BC52237C002B40D14FF4007302224B
:1056E0008121204600F008FA012684F837604FF443
:1056F000007302223146204600F0FEF984F87761FB
:1057000010236364082303228221204600F0F4F969
:10571000012384F84B300026C5F80462D4F8D43253
:10572000B03304EB83035B681B689847C5F81462C9
:10573000C5F81862D5F804225AB3257C15BB4FF47E
:1057400000730121204600F020FA284670BDD4F8ED
:10575000D432B03344F823000225F6E74023022276
:105760008121204600F0C8F9012684F837604023E3
:1057700002223146204600F0BFF984F877611023F9
:105780006364BFE740230121204600F0FEF90025B5
:10579000DBE70225D9E739B1D0F8D432B03300EBDA
:1057A000830041600020704703207047D0F8D43256
:1057B000B03350F823302BB1C3F80812C3F81022CD
:1057C0000020704703207047D0F8D432B03350F82F
:1057D00023301BB1C3F80412002070470320704728
:1057E00008B5D0F8D432B03350F823208AB1D2F8BB
:1057F00014320BB1012008BD0123C2F81432D2F8D3
:1058000010328362D2F80822812100F0B6F900201C
:10581000F1E70320EFE710B5D0F8D432B03350F8F9
:10582000232092B1047C44B94FF40073D2F80422CF
:10583000012100F0AAF9204610BD4023D2F804222D
:10584000012100F0A2F90024F5E70324F3E700208A
:1058500070470020704700207047000010B50146D7
:10586000044C2046FFF7B0FF2046FFF7D4FF00208E
:1058700010BD00BFDC03002010B5064C0022064915
:105880002046FFF793FF05492046FFF79DFF0020C4
:1058900010BD00BFDC030020B8060020B80E0020B9
:1058A00008B5084BD3F8BC32D3F814320BB1012041
:1058B00008BD0A4601460348FFF778FF0148FFF795
:1058C0008FFFF5E7DC030020022804D005D808B1DB
:1058D000032070477047012070470320704708B5C8
:1058E000FBF7E8FC08BD000010B59CB004460021A1
:1058F0001791189119911A911B91502203A801F048
:105900008AFD2268254B9A4201D01CB010BD4FF48D
:1059100080730393182304934FF4003305934FF0DF
:10592000007306934FF0005307934FF08073089372
:105930004FF08063109303A8FDF76FFF58BB4FF043
:10594000B044E36C43F00103E364E36C03F0010350
:105950000293029B4FF4C053179302231893002322
:1059600019931A930A231B9317A94FF09040FBF742
:105970006BFEA36D43F08063A365A36D03F08063AA
:105980000193019B002211461420FBF735FE1420E1
:10599000FBF742FEB9E7FBF73BFCD0E700680040AD
:1059A00008B500F52671D0F8D80200F071F908BDED
:1059B00008B501EB810300EBC303D3F86421D0F8F1
:1059C000D80200F0F6F908BD08B501EB810300EB41
:1059D000C3035A6AD0F8D80200F04EFA08BD08B5E1
:1059E000D0F8D80200F0D1F908BD10B504464379CB
:1059F000022B09D10121D4F8D80200F0A9F9D4F87A
:105A0000D80200F071F910BDFBF702FCF2E70000CC
:105A100010B50446D0F8D80200F09DF9637A23B19E
:105A2000024A136943F00603136110BD00ED00E064
:105A300010B50446437A23B9D4F8D80200F099F996
:105A400010BD044A136923F006031361FFF747FFF3
:105A5000F2E700BF00ED00E038B50546204CC4F881
:105A6000D802C0F8C842FDF733F81E4B2360082364
:105A7000237102236371E371002323726372A372A3
:105A8000E3722046FCF791F830BB18230022114640
:105A9000D5F8C802FCF7DAFF582300228021D5F898
:105AA000C802FCF7D3FFC02300228121D5F8C80229
:105AB000FCF7CCFF4FF4887300220121D5F8C8020F
:105AC000FCF7C4FF4FF4807300228221D5F8C8028E
:105AD000FCF7BCFF002038BDFBF79AFBD5E700BF01
