:020000040800F2
:100000000000032079A100089B7700089D77000875
:100010009F770008A1770008A37700080000000080
:10002000000000000000000000000000A5770008AC
:10003000A777000800000000A9770008AB77000848
:10004000D1A10008D1A10008D1A10008D1A10008C8
:10005000D1A10008D1A10008D1A10008D1A10008B8
:10006000D1A10008D1A10008D1A10008D1A10008A8
:10007000D1A10008D1A10008D1A10008D1A1000898
:10008000D1A10008D1A10008D1A10008D1A1000888
:10009000B5770008D1A10008D1A10008D1A10008BE
:1000A000D1A10008D1A10008D1A10008D1A1000868
:1000B000D1A10008D1A10008D1A10008D1A1000858
:1000C000D1A10008D1A10008D1A10008D1A1000848
:1000D000D1A10008D1A10008D1A10008D1A1000838
:1000E000D1A10008D1A10008D1A10008D1A1000828
:1000F000CD770008E1770008C5770008D1A1000896
:10010000D1A10008D1A10008D1A10008D1A1000807
:10011000D1A10008D1A10008D1A10008D1A10008F7
:10012000D1A10008D1A10008D1A10008D1A10008E7
:0C013000D1A10008D1A10008D1A1000855
:1001400001F0FF01102A2BDB10F0070F08D010F888
:10015000013B013A8B422DD010F0070F42B3F6D18C
:10016000F0B441EA012141EA014122F007047FF0A5
:1001700000070023F0E80256083C85EA010586EAFC
:10018000010685FA47F5A3FA87F586FA47F6A5FA38
:1001900087F68EB9EED1F0BC01F0FF0102F0070244
:1001A00032B110F8013B013A83EA010313B1F8D1EF
:1001B0000020704701387047002D06BF35460338D0
:1001C000073815F0010F07D1013015F4807F02BF09
:1001D000013015F4C03F0130F0BC0138704700BF5A
:1001E000034613F8012B002AFBD1181A0138704777
:1001F00081F0004102E000BF83F0004330B54FEAD8
:1002000041044FEA430594EA050F08BF90EA020F44
:100210001FBF54EA000C55EA020C7FEA645C7FEAD7
:10022000655C00F0E2804FEA5454D4EB5555B8BFFA
:100230006D420CDD2C4480EA020281EA030382EA6B
:10024000000083EA010180EA020281EA0303362DFD
:1002500088BF30BD11F0004F4FEA01314FF4801CD0
:100260004CEA113102D0404261EB410113F0004FE2
:100270004FEA03334CEA133302D0524263EB430399
:1002800094EA050F00F0A780A4F10104D5F1200E37
:100290000DDB02FA0EFC22FA05F2801841F1000192
:1002A00003FA0EF2801843FA05F359410EE0A5F166
:1002B00020050EF1200E012A03FA0EFC28BF4CF097
:1002C000020C43FA05F3C01851EBE37101F000454D
:1002D00007D54FF0000EDCF1000C7EEB00006EEB5A
:1002E0000101B1F5801F1BD3B1F5001F0CD34908E4
:1002F0005FEA30004FEA3C0C04F101044FEA44523B
:1003000012F5800F80F09A80BCF1004F08BF5FEAC1
:10031000500C50F1000041EB045141EA050130BDA1
:100320005FEA4C0C404141EB0101013C28BFB1F5B3
:10033000801FE9D291F0000F04BF01460020B1FAFE
:1003400081F308BF2033A3F10B03B3F120020CDAD1
:100350000C3208DD02F1140CC2F10C0201FA0CF0AF
:1003600021FA02F10CE002F11402D8BFC2F1200C14
:1003700001FA02F120FA0CFCDCBF41EA0C019040CA
:10038000E41AA2BF01EB0451294330BD6FEA040413
:100390001F3C1CDA0C340EDC04F11404C4F12002FE
:1003A00020FA04F001FA02F340EA030021FA04F310
:1003B00045EA030130BDC4F10C04C4F1200220FA67
:1003C00002F001FA04F340EA0300294630BD21FAA5
:1003D00004F0294630BD94F0000F83F4801306BF6B
:1003E00081F480110134013D4EE77FEA645C18BF5F
:1003F0007FEA655C29D094EA050F08BF90EA020FF6
:1004000005D054EA000C04BF1946104630BD91EAED
:10041000030F1EBF0021002030BD5FEA545C05D1F0
:100420004000494128BF41F0004130BD14F580042F
:100430003CBF01F5801130BD01F0004545F0FE41A3
:1004400041F470014FF0000030BD7FEA645C1ABFD8
:10045000194610467FEA655C1CBF0B46024650EA0F
:10046000013406BF52EA033591EA030F41F400213B
:1004700030BD00BF90F0000F04BF0021704730B5C1
:100480004FF4806404F132044FF000054FF0000196
:1004900050E700BF90F0000F04BF0021704730B557
:1004A0004FF4806404F1320410F0004548BF40422C
:1004B0004FF000013EE700BF42004FEAE2014FEA81
:1004C00031014FEA02701FBF12F07F4393F07F4F5C
:1004D00081F06051704732F07F4208BF704793F05F
:1004E0007F4F04BF41F40021704730B54FF4607472
:1004F00001F0004521F000411CE700BF50EA010275
:1005000008BF704730B54FF000050AE050EA01021D
:1005100008BF704730B511F0004502D5404261EB8D
:1005200041014FF4806404F132045FEA915C3FF4CE
:10053000D8AE4FF003025FEADC0C18BF03325FEA6B
:10054000DC0C18BF033202EBDC02C2F1200300FA1C
:1005500003FC20FA02F001FA03FE40EA0E0021FA41
:1005600002F11444BDE600BF70B54FF0FF0C4CF42F
:10057000E06C1CEA11541DBF1CEA135594EA0C0FE1
:1005800095EA0C0F00F0DEF82C4481EA030621EA1C
:100590004C5123EA4C5350EA013518BF52EA033557
:1005A00041F4801143F4801338D0A0FB02CE4FF009
:1005B0000005E1FB02E506F00042E0FB03E54FF039
:1005C0000006E1FB03569CF0000F18BF4EF0010E31
:1005D000A4F1FF04B6F5007F64F5407404D25FEA2D
:1005E0004E0E6D4146EB060642EAC62141EA5551E0
:1005F0004FEAC52040EA5E504FEACE2EB4F1FD0C22
:1006000088BFBCF5E06F1ED8BEF1004F08BF5FEA9F
:10061000500E50F1000041EB045170BD06F0004651
:1006200046EA010140EA020081EA0301B4EB5C04FE
:10063000C2BFD4EB0C0541EA045170BD41F48011F6
:100640004FF0000E013C00F3AB8014F1360FDEBF1B
:10065000002001F0004170BDC4F10004203C35DAF7
:100660000C341BDC04F11404C4F1200500FA05F37A
:1006700020FA04F001FA05F240EA020001F000421B
:1006800021F0004110EBD37021FA04F642EB060191
:100690005EEA430E08BF20EAD37070BDC4F10C04BB
:1006A000C4F1200500FA04F320FA05F001FA04F27F
:1006B00040EA020001F0004110EBD37041F100016B
:1006C0005EEA430E08BF20EAD37070BDC4F1200576
:1006D00000FA05F24EEA020E20FA04F301FA05F2DE
:1006E00043EA020321FA04F001F0004121FA04F286
:1006F00020EA020000EBD3705EEA430E08BF20EA56
:10070000D37070BD94F0000F0FD101F0004640008F
:1007100041EB010111F4801F08BF013CF7D041EA11
:10072000060195F0000F18BF704703F00046520015
:1007300043EB030313F4801F08BF013DF7D043EAE6
:100740000603704794EA0C0F0CEA135518BF95EA9C
:100750000C0F0CD050EA410618BF52EA4306D1D123
:1007600081EA030101F000414FF0000070BD50EA42
:10077000410606BF1046194652EA430619D094EACC
:100780000C0F02D150EA013613D195EA0C0F05D1B6
:1007900052EA03361CBF104619460AD181EA03010A
:1007A00001F0004141F0FE4141F470014FF00000C2
:1007B00070BD41F0FE4141F4780170BD70B54FF05D
:1007C000FF0C4CF4E06C1CEA11541DBF1CEA1355DD
:1007D00094EA0C0F95EA0C0F00F0A7F8A4EB0504BF
:1007E00081EA030E52EA03354FEA013100F08880B6
:1007F0004FEA03334FF0805545EA131343EA12637F
:100800004FEA022245EA111545EA10654FEA002633
:100810000EF000419D4208BF964244F1FD0404F5EC
:10082000407402D25B084FEA3202B61A65EB030548
:100830005B084FEA32024FF480104FF4002CB6EB05
:10084000020E75EB030E22BFB61A754640EA0C0085
:100850005B084FEA3202B6EB020E75EB030E22BFC5
:10086000B61A754640EA5C005B084FEA3202B6EB06
:10087000020E75EB030E22BFB61A754640EA9C00C5
:100880005B084FEA3202B6EB020E75EB030E22BF95
:10089000B61A754640EADC0055EA060E18D04FEA53
:1008A000051545EA16754FEA06164FEAC30343EAF3
:1008B00052734FEAC2025FEA1C1CC0D111F4801FC0
:1008C0000BD141EA00014FF000004FF0004CB6E7B9
:1008D00011F4801F04BF01430020B4F1FD0C88BF58
:1008E000BCF5E06F3FF6AFAEB5EB030C04BFB6EB63
:1008F000020C5FEA500C50F1000041EB045170BD56
:100900000EF0004E4EEA113114EB5C04C2BFD4EB82
:100910000C0541EA045170BD41F480114FF0000E06
:10092000013C90E645EA060E8DE60CEA135594EA82
:100930000C0F08BF95EA0C0F3FF43BAF94EA0C0F85
:100940000AD150EA01347FF434AF95EA0C0F7FF4FA
:1009500025AF104619462CE795EA0C0F06D152EA4E
:1009600003353FF4FDAE1046194622E750EA410632
:1009700018BF52EA43067FF4C5AE50EA41047FF443
:100980000DAF52EA43057FF4EBAE12E74FF0FF3CA8
:1009900006E000BF4FF0010C02E000BF4FF0010C79
:1009A0004DF804CD4FEA410C7FEA6C5C4FEA430CF2
:1009B00018BF7FEA6C5C1BD001B050EA410C0CBF41
:1009C00052EA430C91EA030F02BF90EA020F0020A3
:1009D000704710F1000F91EA030F58BF994208BF0A
:1009E00090422CBFD8176FEAE37040F001007047C7
:1009F0004FEA410C7FEA6C5C02D150EA013C07D11E
:100A00004FEA430C7FEA6C5CD6D152EA033CD3D068
:100A10005DF8040B704700BF8446104662468C4662
:100A20001946634600E000BF01B5FFF7B7FF002895
:100A300048BF10F1000F01BD4DF808EDFFF7F4FFBE
:100A40000CBF012000205DF808FB00BF4DF808ED49
:100A5000FFF7EAFF34BF012000205DF808FB00BF6C
:100A60004DF808EDFFF7E0FF94BF012000205DF88E
:100A700008FB00BF4DF808EDFFF7CEFF94BF012043
:100A800000205DF808FB00BF4DF808EDFFF7C4FF3C
:100A900034BF012000205DF808FB00BF4FEA410C85
:100AA0007FEA6C5C02D150EA013C0AD14FEA430C68
:100AB0007FEA6C5C02D152EA033C02D14FF00000A5
:100AC00070474FF0010070474FEA410212F50012E3
:100AD00015D211D56FF47873B3EB625212D94FEA85
:100AE000C12343F0004343EA505311F0004F23FA6F
:100AF00002F018BF404270474FF00000704750EAC4
:100B0000013005D111F0004008BF6FF00040704780
:100B10004FF00000704700BF4FEA4102B2F1E043DE
:100B200024BFB3F5001CDCF1FE5C0DD901F0004CD4
:100B30004FEAC0024CEA5070B2F1004F40EB830024
:100B400008BF20F00100704711F0804F21D113F150
:100B50003872BCBF01F00040704741F480114FEA89
:100B60005252C2F11802C2F1200C10FA0CF320FA12
:100B700002F018BF40F001004FEAC1234FEAD3232F
:100B800003FA0CFC40EA0C0023FA02F34FEA430399
:100B9000CCE77FEA625307D150EA01331EBF4FF022
:100BA000FE4040F44000704701F0004040F0FE403D
:100BB00040F40000704700BF08B5064B1A783AB9F8
:100BC000054A1AB10548AFF30080024B01221A70A2
:100BD00008BD00BF30030020000000002CD2000838
:100BE00008B5034B1BB103490348AFF3008008BDB0
:100BF00000000000340300202CD200080F2A2FD858
:100C00002DE9F0438BB004468846154699460132DB
:100C100006AE1746002130460AF074F868F07F02ED
:100C20008DF8182000222189606803F06FFC64238E
:100C300000933B4602AA3146206806F027FC064690
:100C400001222189606803F061FC66B92A460DF132
:100C5000090148460AF0D5F830460BB0BDE8F083EC
:100C60004FF0FF3070476FF00100F6E700B583B03A
:100C700000238DF807300DF107030122FFF7BEFFB7
:100C80009DF8070003B000BD30B585B0044601F003
:100C90007F018DF80C108DF80D200022018940682D
:100CA00003F034FC64230093022302AA03A9206802
:100CB00006F0ECFB054601222189606803F026FC62
:100CC00015B9284605B030BD4FF0FF30FAE708B53A
:100CD0000021FFF7CBFF08BD10B5044601220189B2
:100CE000406803F013FC00222189606803F00EFCC9
:100CF000012000F0A3FB01222189606803F006FCBB
:100D0000012000F09BFB00212046FFF7AFFF0120F0
:100D100000F094FB682202212046FFF7B5FF012076
:100D200000F08CFB332203212046FFF7ADFF732236
:100D300004212046FFF7A8FF002206212046FFF7E6
:100D4000A3FF032208212046FFF79EFFC82000F0E2
:100D500075FB4FF06853E3604FF07653236100203A
:100D600010BD000070B584B004460E4600238DF817
:100D70000F3003F043FA05469DF80F3003F00303EC
:100D8000032B11D00DF10F0301222E212046FFF776
:100D900035FF0028C0F28A8003F030FA401B0A2891
:100DA000EAD96FF001007FE06B460E223321204626
:100DB000FFF724FF00287CDB9DF801301B021BB2EB
:100DC0009DF80020134307EE903A9DF803301B0274
:100DD0001BB29DF80220134304EE903A9DF80530B3
:100DE0001B021BB29DF80420134305EE103A9DF838
:100DF00007301B021BB29DF80620134305EE903A04
:100E00009DF809301B021BB29DF80820134306EE23
:100E1000103A9DF80B301B021BB29DF80A201343B9
:100E200006EE903A9DF80D301B021BB29DF80C2087
:100E3000134307EE103A94ED034AF8EEE44A64EEE9
:100E4000844AC6ED004AD4ED034AB8EEC55A25EEF1
:100E5000245A86ED015A94ED035AF8EEE55A65EEF0
:100E6000855AC6ED025AD4ED045AB8EEC66A26EE8B
:100E7000256A86ED036A94ED046AF8EEE66A66EE8A
:100E8000866AC6ED046AD4ED046AB8EEC77A27EE26
:100E9000267A86ED057AF8EEE77A9FED077A67EE17
:100EA000877AC6ED067A002004B070BD4FF0FF309F
:100EB000FAE76FF00200F7E70000803B08B5064B49
:100EC00093F87430052B00D108BD00F0E8FA024B0E
:100ED000002283F87420F7E75003002000B583B0A8
:100EE000044B0093044B01936946044801F088FDCC
:100EF00003B000BD28000320190F0008010F0008EF
:100F000010B504464068083007F042FC10B10123D8
:100F1000237010BD2070FCE708B528B1012806D168
:100F2000032002F0BFFF02E0032002F0ADFF08BD86
:100F300008B50F4BD3F88025B2F1FF3F10D0D3F89E
:100F400084350C480270C2F3072242708370C3F3E9
:100F50000722C270C3F3074202711B0E437108BD22
:100F6000002002F055FD0028F9D10348F7E700BF43
:100F70000070FF1FC8030020D8D5000870B588B0E6
:100F80000024ADF8184000F03FFEFFF7D1FF024605
:100F90000621204600F0B4FD2A4A1021182000F056
:100FA000AFFD294A1021082000F0AAFD18210120D8
:100FB00000F0DAFD00F03BFC0DF11A03019307ABE2
:100FC00000930DF11E030A222146012000F073FB5D
:100FD0001E4B00930A232246BDF81C10BDF81E00CC
:100FE00000F0FFFC06AB009302232246BDF81A1066
:100FF000BDF81E0000F0F5FC02221146204600F06C
:1010000024FE134D01262E70304600F0C5FA6E7096
:101010000823EB7010222A714FF00001A97004948C
:1010200003940296019200932346324631462046AD
:1010300000F0D8FAAB780BB908B070BD00F0ACFB8B
:10104000FAE700BFC8D50008B8D5000890D200085C
:101050005003002000B589B00A4B83F874000020CB
:101060000690059004900390029001900090034632
:10107000A022802100F035FA03490C2000F05BFB30
:1010800009B000BD500300200800002070B592B0E8
:1010900001AE43220021304609F034FE4423ADF86E
:1010A00018300823ADF81A304FF4A863ADF81C309F
:1010B00002248DF81E4001258DF81F5012238DF853
:1010C000203029238DF821309C23ADF822304FF4B5
:1010D000FA73ADF8243004238DF827304FF0FF3237
:1010E0000A924FF4A472ADF82C208DF82E502022D5
:1010F0008DF8312003228DF8352040F27262ADF870
:1011000036200D228DF83C208DF83E30FFF7E6FEAC
:101110002946204602F08EFE134A0021204603F0A5
:1011200011F8304602F0D6FCD8B9FFF727FF07F0D8
:1011300017FB0E4C002584F874504FF6FF73A38103
:101140000B4A2946012002F0FDFF062000F035FD84
:1011500001F014FAE573A5730120FFF77BFF12B0CD
:1011600070BD02F003F9E0E7252A000850030020D3
:10117000BD0E000808B543783E2B1BD0FF2B35D0A1
:10118000052B0FD18288294B9B899A420CD00120D4
:10119000FFF760FF264801230370244B9B8943809F
:1011A00001F0EBF9012008BD204B00229A8183F861
:1011B0007420ECE7C378012BF4D11C4B93F8743006
:1011C000042B0ED0194B052283F87420B0F805309B
:1011D000164A9381164800220270438001F0CDF92F
:1011E000E0E7124B062283F87420EFE7B0F80330F3
:1011F00040F2094293420DD040F60E4293420FD086
:1012000040F202429342CDD10A49084B988900F03E
:1012100029FAC7E70121054B988900F0DFFAC1E7F9
:10122000024B988900F016FCBCE700BF5003002079
:101230004C03002007B2010008B50021022002F093
:101240000FFE08BD08B5012002F038FE08BD08B544
:10125000012002F04BFF08BD00B589B00DF1040C70
:10126000DFF828E0BEE80F00ACE80F009EE80700BA
:10127000ACE803002CF8022B120C8CF8002007F0CD
:1012800061FC01A802F034FC09B000BD48D200089E
:10129000054BCA225A6253225A629A6822F0070208
:1012A0009A60FF225A627047002800407047000091
:1012B00008B5002002F0ACFB68B181794FF0B04274
:1012C000054BC2F89C30D2F89C3023F47C5343EA9F
:1012D0000123C2F89C3008BDFECAFECA08B54FF013
:1012E000B042936843F40043936002F099FD054ACD
:1012F000D2F8803023F0070343F00403C2F88030B3
:1013000008BD00BF0004005800B589B007F018FB05
:101310000E4A0021042002F015FF0D4B00930D4BE7
:10132000019369460C4802F091FC0C4B02930C4B64
:1013300003930C4B049340F23C53059302A807F02F
:10134000CFFB07F0F9FA09B000BD00BF713C0008FF
:1013500010040320AD120008C9130008F80103208F
:10136000040303201C05032000B585B0002300936F
:1013700001930293039343685B7B1BB1012B1DD048
:1013800005B000BDFFF768FF0F238DF800307F2305
:101390008DF802300B4A13681B0CADF80C30136843
:1013A000C3F30B03ADF80E30684602F0AFFBFFF756
:1013B0006DFE0021012002F03DFDE1E700230370F6
:1013C000DEE700BF002004E04368B3F80B30B3F55C
:1013D000124F00D0704710B584B00446684602F042
:1013E000A3FB2046FFF7C0FF04B010BD08B5034BB8
:1013F0004FF400421A61FFF75BFF08BD0040005840
:10140000034AD2F8903043F05003C2F8903070474E
:101410000008005808B5FFF7F3FFFFF739FF08BDD4
:1014200008B5FFF7F7FFFFF759FF0349002001F068
:1014300005FDFFF769FF08BDEC06002038B504463E
:1014400002F0DCFE0546B4F1FF3F09D002F0E2FEF7
:10145000044405E0054A136923F00403136130BF17
:1014600002F0CCFE401BA042F4D338BD00ED00E0FA
:1014700008B54FF0FF3002F03BFD08BD704708B5DE
:101480000021042002F0ECFC08BD08B5022002F0A7
:1014900015FD08BD08B5022002F028FE08BD30B5D4
:1014A00089B000248DF8074002AD18222146284655
:1014B00002F0AAFA3F23ADF808308123ADF80A30D4
:1014C0000DF107030693012307932146284601F0F7
:1014D000E7FAA04203DB9DF8070009B030BDFF200A
:1014E000FBE72DE9F04FCBB09C469DF854619DF889
:1014F0005C5106F1080A04AC04EB0A0B77190937B2
:10150000E31901930DF10F094FF000088DF80F80DA
:101510008DF81000ADF81110ADF813208DF815C03E
:101520009DF850318DF816308DF817603246569977
:1015300006A802F065FA04F80A5009362A465899B6
:101540000BF1010002F05CFA3544BDF86431E3535D
:10155000BDF86831019A5380043544AE18224146E3
:10156000304602F051FA3F23ADF810318323ADF835
:10157000123146944795CDF8209101234993414675
:10158000304601F08DFA404504DB99F800004BB07D
:10159000BDE8F08FFF20FAE7F0B5C9B00DF10706FE
:1015A00000248DF8074002AF8DF8080042AD1822E4
:1015B0002146284602F028FA3F23ADF8083185235A
:1015C000ADF80A3144970123459346964793214647
:1015D000284601F065FAA04202DB307849B0F0BD40
:1015E000FF20FBE7F0B5C9B00DF1070700258DF826
:1015F000075002AC8DF808008DF809108DF80A200C
:101600008DF80B309DF838318DF80C309DF83C3159
:101610008DF80D309DF840318DF80E30519BCDF88E
:101620000F309DF848318DF8133042AE182229460C
:10163000304602F0E9F93F23ADF808318623ADF8D2
:101640000A3144940C234593469701234793294636
:10165000304601F025FAA84202DB387849B0F0BDE7
:10166000FF20FBE7F0B5C9B00DF1070700248DF8A6
:10167000074002ADADF80800CDF80A1042AE1822BE
:101680002146304602F0C0F93F23ADF808318823E7
:10169000ADF80A31449506234593469701234793B5
:1016A0002146304601F0FCF9A04202DB387849B00F
:1016B000F0BDFF20FBE72DE9F043C9B080460F469F
:1016C0001546994607220021684602F09DF902ACB2
:1016D0008DF808808DF809708DF80A5042AD1822F7
:1016E0000021284602F090F93F23ADF808318A2303
:1016F000ADF80A31449403234593CDF818D107235C
:1017000047930021284601F0CBF9002811DB9DF812
:10171000000058B9BDF80120A9F80020BDF8031059
:10172000509A1180BDF80520519B1A8049B0BDE840
:10173000F083FF20FAE72DE9F041C8B004460DF12F
:10174000070700258DF807500DF108088DF80800EF
:1017500002460DF1090002F053F9013442AE18229D
:101760002946304602F050F93F23ADF808318E2368
:10177000ADF80A31CDF8108145944697012347937F
:101780002946304601F08CF9A84203DB387848B08E
:10179000BDE8F081FF20FAE730B589B000248DF86C
:1017A000074002AD18222146284602F02DF93F23BA
:1017B000ADF808309223ADF80A300DF10703069317
:1017C000012307932146284601F06AF9A04203DB72
:1017D0009DF8070009B030BDFF20FBE7F0B5C9B0A8
:1017E0000DF1070700248DF8074002ADADF80800A1
:1017F0008DF80A1042AE18222146304602F004F954
:101800003F23ADF80831A523ADF80A3144950323F1
:1018100045934697012347932146304601F040F90E
:10182000A04202DB387849B0F0BDFF20FBE730B5BD
:1018300089B000248DF8074002AD182221462846C1
:1018400002F0E2F83F23ADF8083040F20113ADF8A2
:101850000A300DF10703069301230793214628461A
:1018600001F01EF9A04203DB9DF8070009B030BD6E
:10187000FF20FBE72DE9F043C9B004460F46904630
:101880009946012813D002280FD0012502AE354415
:101890000322002101A802F0B7F88DF80840012CBE
:1018A00007D0022C36D1102404E01125EEE70325E1
:1018B000ECE70224224639460DF1090002F0A0F8B7
:1018C00085F8008085F80190033442AD182200218C
:1018D000284602F099F83F23ADF808314FF48173A0
:1018E000ADF80A3102AB4493459401AB4693032310
:1018F00047930021284601F0D3F800280CDB01AB08
:101900009DF8040018B9B3F80120509B1A8049B023
:10191000BDE8F0839720FAE7FF20F8E72DE9F043D0
:10192000C9B007460C4690469946012915D00229B0
:1019300011D0032502AE35440322002101A802F094
:1019400063F8ADF808708DF80A40012C07D0022C1E
:1019500043D1102404E01325ECE70525EAE702242F
:10196000224641460DF10B0002F04AF84B462B800F
:101970009DF84031AB709DF84431EB709DF84831D3
:101980002B719DF84C316B719DF85031AB710A345D
:1019900042AD18220021284602F036F83F23ADF868
:1019A00008314FF48273ADF80A3102AB4493459489
:1019B00001AB4693032347930021284601F070F8BA
:1019C00000280CDB01AB9DF8040018B9B3F8012026
:1019D000559B1A8049B0BDE8F0839720FAE7FF20B5
:1019E000F8E72DE9F041C8B01C460DF107080026C4
:1019F0008DF8076002ADADF80800ADF80A108DF85B
:101A00000C208DF80D301A464E990DF10E0001F0A4
:101A1000F7FF063442AF18223146384601F0F4FF92
:101A20003F23ADF808314FF48373ADF80A31449584
:101A30004594CDF81881012347933146384601F08B
:101A40002FF8B04204DB98F8000048B0BDE8F08100
:101A5000FF20FAE7F0B5C9B00DF1070600248DF8B4
:101A6000074002AFADF8080042AD182221462846D3
:101A700001F0CAFF3F23ADF8083140F22513ADF85D
:101A80000A31449702234593469601234793214602
:101A9000284601F005F8A04202DB307849B0F0BDDD
:101AA000FF20FBE7F0B5C9B00DF1070700258DF861
:101AB000075002ACADF808008DF80A108DF80B2025
:101AC000ADF80C3042AE18222946304601F09CFF9A
:101AD0003F23ADF8083140F22713ADF80A314494A2
:101AE000062345934697012347932946304600F045
:101AF000D7FFA84202DB387849B0F0BDFF20FBE7F2
:101B00002DE9F041C8B00C4611460DF1070800253B
:101B10008DF8075002AE8DF808008DF80940224676
:101B20000DF10A0001F06CFF023442AF1822294681
:101B3000384601F069FF3F23ADF808310C23ADF8BA
:101B40000A3144964594CDF81881012347932946DC
:101B5000384600F0A5FFA84204DB98F8000048B022
:101B6000BDE8F081FF20FAE7F0B5C9B00DF1070735
:101B700000248DF8074002AD8DF808008DF809109B
:101B800042AE18222146304601F03EFF3F23ADF819
:101B900008310F23ADF80A31449502234593469747
:101BA000012347932146304600F07AFFA04202DB32
:101BB000387849B0F0BDFF20FBE7F0B5C9B00DF1B2
:101BC000070600248DF8074002AFADF8080042ADCB
:101BD00018222146284601F017FF3F23ADF80831AF
:101BE0001823ADF80A314497022345934696012302
:101BF00047932146284600F053FFA04202DB30788D
:101C000049B0F0BDFF20FBE730B589B000248DF866
:101C1000074002AD18222146284601F0F5FE0323B5
:101C2000ADF80830ADF80A300DF107030693012333
:101C300007932146284600F033FFA04203DB9DF8BE
:101C4000070009B030BDFF20FBE7F0B5C9B00DF1CA
:101C5000070700258DF8075002AC8DF808008DF8B5
:101C600009108DF80A2042AE18222946304601F0AC
:101C7000CBFE0823ADF808313123ADF80A31449486
:101C8000032345934697012347932946304600F0A6
:101C900007FFA84202DB387849B0F0BDFF20FBE720
:101CA00050B182685AB1C26862B103690BB10020B9
:101CB00070474FF0FF3070474FF0FF3070474FF0E4
:101CC000FF3070474FF0FF307047A0F15003DBB298
:101CD000012B02D80870002070476FF00200704797
:101CE0002DE9F04106460D4690461C461846FFF782
:101CF000D7FF88B907469DB1637D13B946F08003CD
:101D00001E466368424629463046A568A8472075A6
:101D100050B93846BDE8F0814FF0FF331F46F8E771
:101D20004FF0FF331F46F4E76FF001031F46F0E763
:101D300038B108B50B46014601222820FFF7D0FF35
:101D400008BD4FF0FF3070472DE9F04781460E4641
:101D500090461D461846FFF7A3FF28BB82463EB3B8
:101D60006C7D7CB904EB09006B6801223119C0B2AB
:101D7000EF68B84728750134E4B2444506D200281C
:101D8000F0D003E0013CE4B2012C05D995F9143000
:101D900093B95046BDE8F087EC686B68424631461F
:101DA0004846A0472875F1E74FF0FF339A46F0E721
:101DB0004FF0FF339A46ECE76FF001039A46E8E7ED
:101DC00010B582B00346044601220DF10701372009
:101DD000FFF786FF08B102B010BD9DF8073003F091
:101DE0007F028DF8072003F0030343F070038DF8A2
:101DF0000730234601220DF107013720FFF7A4FF2A
:101E00000028E8D1234601220DF107013120FFF718
:101E100067FF0028DFD19DF8073003F0C0038DF87D
:101E20000730234601220DF107013120FFF78CFF17
:101E30000028D0D1234601220DF107011820FFF719
:101E40004FFF0028C7D19DF8073003F0FC038DF841
:101E50000730234601220DF107011820FFF774FF18
:101E6000B9E730B583B004460B460D4601220DF1AB
:101E700007013720FFF734FF08B103B030BD9DF8EC
:101E8000073043F080028DF8072023F0030363F04E
:101E90007F0304F0030018438DF807002B4601224E
:101EA0000DF107013720FFF74FFFE6E730B583B0AC
:101EB00004460B460D46022201A93020FFF710FF11
:101EC00008B103B030BD9DF80420A378DB0003F017
:101ED000080322F008021A438DF80420E3785B011E
:101EE00003F0200322F020021A438DF80420237906
:101EF0009B0003F0040322F004021A438DF804202F
:101F000023788DF805306278D20002F0380223F091
:101F1000380313438DF805302B46022201A93020E7
:101F2000FFF712FFCDE738B108B50B460146012295
:101F30002720FFF7D5FE08BD4FF0FF30704710B5E2
:101F400082B0044601460DF10700FFF7F1FE90B99B
:101F50009DF8073013F0020F0FD013F0040F0FD1CC
:101F600021460DF10600FFF7DEFF20B99DF806308F
:101F700013F0100F07D002B010BD6FF00400FAE7A5
:101F80006FF00400F7E76FF00400F4E710B582B0DB
:101F90000446FFF785FE034618B92070627D1AB12A
:101FA0005BB1184602B010BD234601220DF10701B6
:101FB0001046FFF795FE0346F2E7234601220DF196
:101FC00006011046FFF78CFE03460028E9D19DF874
:101FD000063063B12046FFF7B2FF03460028E0D188
:101FE00021469DF80600FFF770FE0346D9E76FF023
:101FF0000303D6E770B582B004460D461346694622
:1020000000200090ADF8040006221D20FFF768FEB6
:102010000646C8B99DF802309DF80100000240EA6A
:1020200003409DF80030184340F31700FEF732FAE2
:102030000022114BFEF798FAFEF76EFD6060AB7858
:10204000012B04D000232360304602B070BD9DF800
:1020500005209DF804301B0243EA02439DF803006B
:102060001843FEF707FA0022044BFEF77DFAFEF74D
:1020700053FD2060E8E700BF0000F03E0000903F05
:1020800000283AD030B583B00D4604460B460122F5
:102090000DF107011520FFF723FE08B103B030BD95
:1020A0009DF80730227802F0010223F001031A4361
:1020B0008DF8072063785B0003F0020322F0020230
:1020C0001A438DF80720A3789B0003F0040322F045
:1020D00004021A438DF80720E378DB0003F00803BD
:1020E00022F008021A438DF807202B4601220DF139
:1020F00007011520FFF728FED0E74FF0FF307047AB
:10210000F0B583B004460D4616461F464FF0000C4E
:102110008DF807C08DF806C08DF805C0089B012218
:102120000DF107011420FFF7DBFD08B103B0F0BD8E
:10213000089B01220DF106011520FFF705FE00287E
:10214000F4D1089B01220DF105012720FFF7C8FDFE
:102150000028EBD19DF8072022F0010204F00103D2
:102160001A438DF807206B0003F0020322F00202ED
:102170001A438DF80720B30003F0040322F0040291
:102180001A438DF80720FB0003F0080322F0080231
:102190001A438DF80720089B01220DF10701142036
:1021A000FFF7D2FDC2E7D8B110B582B00B460446A6
:1021B000022201A93620FFF793FD78B99DF804307B
:1021C00003F007022270C3F3C2026270C3F38013EC
:1021D000A3709DF80530C3F38403E37002B010BD13
:1021E0004FF0FF307047E8B110B582B00B4604469F
:1021F000022201A93020FFF773FD9DF80430C3F3DC
:10220000C002A270C3F34012E270C3F380032371D3
:102210009DF8053003F007022270C3F3C203637018
:1022200002B010BD4FF0FF30704730B585B00546A5
:102230000C46002302938DF80C3001930B460122CB
:102240000DF10F011820FFF74BFD9DF80F3003F043
:1022500003038DF80F3080B19DF80730182B0AD991
:102260009DF80F303BB99DF8083023B99DF809302F
:102270000BB904232B7005B030BD214601A8FFF730
:1022800092FF0028E8D1214602A8FFF7ACFFE3E760
:1022900088B330B583B00D4604460B4601220DF1DC
:1022A00007013720FFF71CFD58B99DF8072002F001
:1022B0000303022B1CD009D883B1012B03D10123C6
:1022C000237003B030BD6FF00600FAE7032B02D194
:1022D00003232370F5E76FF00600F2E7D20902D07E
:1022E00000232370EDE729462046FFF79EFFE8E72D
:1022F00002232370E5E74FF0FF30704770B582B0DE
:1023000006460C460DF10700FFF7C2FF054640B92F
:102310009DF8073043B925B9032E11D873B2B3B96C
:10232000DEB9284602B070BD2146FFF79AFD05468A
:102330000028F6D12369616840F6C4109847EAE79F
:10234000042E0ED12046FFF73BFD0546E9E7214666
:102350003046FFF786FD0546E3E76FF006031D46AE
:10236000DFE76FF006031D46DBE710B582B00146DC
:1023700004460DF10700FFF78BFF18B99DF80730F1
:10238000042B01D002B010BD21460020FFF7B6FF9C
:10239000F8E730B583B00023ADF80430002843D00F
:1023A0000D460446C378172B04D80846FFF7DDFF17
:1023B000034638B92B46022201A93620FFF790FCCC
:1023C000034610B1184603B030BD9DF804202378B1
:1023D00003F0070322F0070213438DF804306278FC
:1023E000D20002F0380223F0380313438DF8043092
:1023F000A278920102F0400223F0400313438DF8CB
:1024000004309DF80530E278920002F07C0223F05F
:102410007C0313438DF805302B46022201A9362098
:10242000FFF792FC0346CDE74FF0FF33CAE788B3CE
:1024300030B583B00C46054603780BB9437823B119
:102440002046FFF792FF034650B921460DF10700E1
:10245000FFF71EFF034618B99DF807201AB93BB1D4
:10246000184603B030BD2146FFF748FF0346F6E7A4
:1024700021462846FFF71AFD03460028F0D19DF8B3
:1024800007000028ECD00428EAD02146FFF736FFE9
:102490000346E5E74FF0FF331846704708B500F2F2
:1024A000E7330548A0FB03208009B3F57A7F00D20B
:1024B0000120FEF7C3FF08BDD34D621000B585B003
:1024C0000B4B93F800C04FF0FF33029392B201928E
:1024D0000091012302460CFA03F10648006802F05D
:1024E0005CFA08B905B000BD6FF00100FAE700BF63
:1024F000CE030020D003002000B585B00B4B93F82D
:1025000000C04FF0FF33029392B201920091012379
:1025100002460CFA03F10648006802F00DFB08B908
:1025200005B000BD6FF00100FAE700BFCE03002048
:10253000D003002080B191B10A4A11600A4A4621B5
:1025400011700A4981600A49C1600A49016101218B
:1025500041754260002070474FF0FF3070474FF0E8
:10256000FF307047D0030020CE030020F92400087C
:10257000BD2400089D24000870477047014B0122CC
:102580001A7070474005002008B500231A46194606
:10259000FFF788FA08BD000010B586B04378FF2B1E
:1025A00004D000231C46204606B010BDB0F803300E
:1025B00040F61442934247D040F61B42934260D00B
:1025C00040F60142934269D1B0F80720354B5B8851
:1025D00002339A4207D0334B9B8802339A421AD077
:1025E00000231C46DFE7437B1C4623B1012B0BD0A5
:1025F00001231C46D7E702238DF8043001A8FFF71A
:10260000BBFF01231C46CEE701238DF8043001A84F
:10261000FFF7B2FFC7E7437B1C4623B1012B0BD06A
:1026200001231C46BFE705238DF8043001A8FFF7FE
:10263000A3FF01231C46B6E704238DF804300DEBFD
:102640000300FFF799FFAEE7B0F80720154B5B8852
:1026500001339A4207D0134B9B8801339A4209D029
:1026600000231C469FE7B0F80500FFF78DFF01230C
:102670001C4698E7B0F80500FFF786FF01231C46CB
:1026800091E706238DF80430B0F80530ADF814302A
:1026900001A8FFF771FF00231C4684E700231C46B6
:1026A00081E700BFD40300202DE9F04F8BB06048D4
:1026B00006F064F88F238DF81830E5238DF8193073
:1026C000B3238DF81A30D5238DF81B302E238DF8C7
:1026D0001C307F238DF81D304A238DF81E3098233F
:1026E0008DF81F302A238DF8203048238DF82130B3
:1026F0007A238DF82230CC238DF8233000248DF8F6
:1027000024408DF825408DF826408DF8274006AEF0
:10271000484B00930923012231460220FFF7AAF813
:102720004FF0190B8DF818B0ED258DF819504FF0BA
:10273000820A8DF81AA06FF051038DF81B308DF8C6
:102740001C504FF021028DF81D204FF04C008DF8E9
:102750001E006FF062078DF81F704FF0410C8DF86E
:1027600020C04FF0450E8DF821E04FF022098DF882
:1027700022904FF08E088DF8238001238DF82430AD
:102780008DF825408DF826408DF82740294B33F8E9
:10279000020B0593049410230393072202920194E1
:1027A00013270097244B1B8832460221FFF7B6F807
:1027B0008DF818B08DF819508DF81AA06FF05101EE
:1027C0008DF81B108DF81C504FF021018DF81D1055
:1027D0004FF04C008DF81E006FF062018DF81F1055
:1027E0004FF0410C8DF820C04FF0450E8DF821E0E0
:1027F0008DF822908DF8238002218DF824108DF819
:1028000025408DF826408DF827400A4B33F8040BFD
:1028100005930494102303930722029201940097D6
:10282000064B1B883246FFF779F80BB0BDE8F08FF6
:1028300099250008D4030020160000201400002071
:1028400000B583B018B101280CD0922008E00A48E6
:1028500000910A4B1B78002241880088FFF7C1F8DD
:1028600003B000BD04480091054B1B78002281880D
:102870000088FFF7B6F8F3E7D40300201600002025
:10288000140000202DE9F0438BB005AD0024059421
:1028900006940794089409944FF0B043DA6C42F020
:1028A0000402DA64DA6C02F004020492049ADA6C2C
:1028B00042F00202DA64DA6C02F002020392039A36
:1028C000DA6C42F00102DA64DA6C02F00102029280
:1028D000029ADA6C42F00802DA64DB6C03F0080357
:1028E0000193019B1C4F01224FF40051384601F027
:1028F0000DFEDFF86C9001220221484601F006FE31
:102900004FF400530593012606960796089429462E
:10291000384601F021FD05964FF48818CDF818804F
:1029200007942946384601F017FD022305930696C1
:102930000794032308932946484601F00DFDC02360
:102940000593CDF8188007942946044801F004FD4A
:102950000BB0BDE8F08300BF000800480004004849
:10296000000C004808B520B9054B1B6803B1984717
:1029700008BD034B1B68002BFAD001209847F7E7EE
:10298000DC03002010B584B004460A4805F072FE4E
:10299000094B1C60094805F06DFE094B01221A70B5
:1029A000084B1B6823B10294074A00926846984777
:1029B00004B010BDE0030020E8020020EC0200207B
:1029C000E4020020E80300204D2B000808B50B4668
:1029D0001146094AD2F800C0ACF809008CF80B3057
:1029E0001A460CF10C0008F00CFA044B1B6900218C
:1029F0000846984708BD00BFE8020020E803002011
:102A000010B50C464A68054B1A60054BD86118464C
:102A100000F0B6F82068FFF7B5FF10BDDC0300201A
:102A2000E803002000B585B01A4805F026FE10B96D
:102A3000194B1B7843B9174805F01FFE10B9164B08
:102A40001B781BBB05B000BD03A9124805F045FE6D
:102A5000124BDB698BB1039A029201228DF804209C
:102A600001A898479DF804200B4B1A700A4B1B785D
:102A70003BB1039806F058F8DDE7074B01221A70C6
:102A8000F4E70399034805F004FED4E70148FEF794
:102A9000D3FBD7E7EC020020E4020020E80300208B
:102AA000F0B583B007460020FFF75CFF7D883B88C8
:102AB000C5F3090545EA8325ADB2224B01221A7000
:102AC000BA68397B2846FFF781FF0026002E33D1F4
:102AD00048F2E800FEF7BBFB05E0B4F80D30AB426E
:102AE00016D0237B33BB184805F0C7FD0028EDD175
:102AF00001A9154805F0F1FD019C637A0F2BECD07C
:102B0000A389AB4208D0E37A002BECD00126EAE798
:102B10003B69E27A1A70E4E7A27A033AD2B27B699F
:102B20009A42A8BF1A467A6104F10E01386908F08A
:102B300068F9E8E70126D6E70120FFF713FF002038
:102B400003B0F0BDDA030020E003002008B5014621
:102B5000437A0E3BDBB2012B06D9074805F0A5FDF1
:102B60000548FEF769FB08BD044805F09EFD0020FE
:102B7000FEF768FBF7E700BFEC020020E00300204F
:102B8000024B0360024B0361704700BFA18900083C
:102B9000E989000810B5EFF3108272B6064C63683D
:102BA00043F40023636082F31088044B1B6898474A
:102BB0004FF40023A36010BD000C0058080400204F
:102BC00082B04FF0B043D3F8502142F48012C3F8E2
:102BD0005021D3F8503103F480130193019B0A4B29
:102BE0001A6A42F400721A62D3F8D42042F40072D6
:102BF000C3F8D42040BF20BF044AD36843F4004345
:102C0000D36002B0704700BF0008005800040058AD
:102C100000B583B04FF0B0431A6D42F480121A65CC
:102C20001B6D03F480130193019B084B1A6842F05B
:102C300001021A601A6842F480321A602C2001F0F6
:102C400057FB2D2001F054FB03B000BD000C0058D1
:102C5000EFF3108172B6044A536823F00103536006
:102C600081F31088704700BF000C0058024B4FF4EE
:102C700080329A60704700BF000C005808B5EFF32F
:102C8000108172B6044A536843F40013536081F311
:102C9000108805F0CDFE08BD000C005808B505F001
:102CA000B1FE024B01229A6008BD00BF000C005823
:102CB000EFF3108172B6044A536823F002035360A5
:102CC00081F31088704700BF000C0058064B4FF48A
:102CD00000329A60EFF3108172B65A6822F4003223
:102CE0005A6081F310887047000C005808B5EFF364
:102CF000108172B6044A536843F40033536081F381
:102D0000108805F0C9FE08BD000C005808B5144B2A
:102D1000DB6813F0020F04D1114B5B6813F4003F22
:102D200014D00F4BDB6813F0080F04D10C4B5B6819
:102D300013F4002F0DD00A4BDB6813F0200F04D1E1
:102D4000074B5B6813F4001F06D008BDFFF7CEFFEA
:102D5000FBE7FFF71FFFF8E7FFF790FFF5E700BF7E
:102D6000000C005808B505F0A5FE024B02229A603F
:102D700008BD00BF000C005808B50C4BDB6813F011
:102D8000080F05D18047094B4FF400229A6008BD17
:102D9000074B1860EFF3108172B6044A536823F4AE
:102DA0000023536081F31088F1E700BF000C005846
:102DB00008040020EFF3108172B6044A536823F030
:102DC0000803536081F31088704700BF000C00585F
:102DD00008B505F0C9FE024B08229A6008BD00BF85
:102DE000000C005808B5144BDB6913F0020F0AD130
:102DF000114BDB6913F0010F0DD10F4BDB6913F0A1
:102E0000080F10D108BD0C4B5B6813F0020FEFD117
:102E1000FFF7A8FFF6E7084B5B6813F0010FECD152
:102E2000FFF73CFFEEE7044B5B6813F0080FE9D1B6
:102E3000FFF7CEFFE6E700BF000C005810B5494B86
:102E40001B68CA225A6253225A62474B9A6842F060
:102E500020029A609A6802F00702C2F10402D2B21C
:102E600042490A701B6903F4FE034FF4FE0191FA14
:102E7000A1F1002933D0B1FA81F1CB40DBB20133AB
:102E8000DBB23B490B7038490969C1F30E010131CE
:102E9000DFF8F8C0ACF80010013901FB03F3A3F52B
:102EA000A073D3404FF6FE7293421AD9314B4FF6BE
:102EB000FF721A80304B1A6842F400221A60D3F86D
:102EC000802042F40022C3F8802000283FD12B4B01
:102ED00001221A702A4B4FF0FF321A600EE02021B7
:102EE000CBE79BB2234A1380E4E700EB4002254B7B
:102EF00003EBC20300221A730130C0B20528F4D9D3
:102F0000214B06221A70174C2268936823F48063C1
:102F10009360D368DBB263F49063D360164B4FF4D5
:102F20000022DA60032001F009FA2268936843F472
:102F3000804393600B4B1B68FF225A6200220321DF
:102F4000084601F0C5F9032001F0D2F910BD054B88
:102F50001B68DB6813F4806FECD0032001F0E0F90C
:102F6000E8E700BFEC060020002800401104002024
:102F7000100400200C040020000800581204002057
:102F8000140400201C040020180400200E0400205B
:102F900008B51248124B0360124B43600023836054
:102FA0000122C260036143618361C361036201F076
:102FB00090FC50B90021094801F046FF40B90021BA
:102FC000064801F06EFF30B908BD00F0CFF9F1E717
:102FD00000F0CCF9F3E700F0C9F9F5E7AC04002004
:102FE00000540040B57DB11010B59CB004460021DE
:102FF0001791189119911A911B91502203A807F06B
:1030000081FE2268194B9A4201D01CB010BD0423E6
:1030100003934FF440330B9303A803F088FE10BBD7
:103020004FF0B044E36C43F00203E364E36C03F05D
:1030300002030293029B4FF44073179312231893D9
:10304000002319931A9304231B9317A9084801F02E
:1030500083F9A36D43F40013A365A36D03F4001378
:103060000193019BD1E700F081F9D9E700540040BA
:103070000004004808B50548054B036001F05AFFFD
:1030800000B908BD00F072F9FBE700BF00050020A1
:10309000000C00580268094B9A4200D0704782B079
:1030A0004FF0B0431A6D42F480121A651B6D03F4A1
:1030B00080130193019B02B0704700BF000C0058C1
:1030C00080ED000A002343604FF07E528260C360AF
:1030D00003614261034B8361034BC361034B036292
:1030E000704700BF6F12833AA69B443B8FC2F53CEA
:1030F000D0ED007A90ED015A30EE450A20EE010A3B
:1031000037EE800A80ED000AD0ED027A90ED056A74
:1031100066EE014A90ED037A74EEC75AD0ED046A68
:1031200075EEE65A90ED064A75EE845A65EE815AC0
:1031300077EEA57AC0ED027A37EE647A80ED037AF5
:1031400076EEE46AC0ED046AD0ED075A65EE815A66
:1031500036EE256A80ED056A70EEC00AD0ED084AA9
:1031600077EEA44AC7EEA45A86EEA44A60EEA54ABA
:1031700030EE240A80ED000A60EE840A35EE205A13
:1031800080ED015A27EEA55A37EEC55A80ED025A56
:1031900067EE255A77EE655AC0ED035A67EE847ADA
:1031A00076EEE76AC0ED046A27EE047A36EE476AE7
:1031B00080ED056A7047000010B582B00346084CE8
:1031C0000091084A4FF48071204607F025FD81B236
:1031D000204605F0A9FF0A20FEF730F902B010BD25
:1031E000440500209CD2000830B587B04C494D48BA
:1031F000FFF7A0F9044601464B48FFF7DDFF14B185
:10320000204607B030BDB6238DF80B30454B012268
:103210000DF10B017E20FEF797FD04460146434861
:10322000FFF7CAFF002CEBD10520FEF707F9254672
:10323000022D0DDC3B48FEF7A9FE044601463C4842
:10324000FFF7BAFF24B10A20FEF7F8F80135EFE7DF
:10325000002CD5D133492046FFF750F804460146EB
:103260003448FFF7A9FF002CCAD12E493248FEF797
:103270009AFF044601463148FFF79EFF002CBFD15C
:103280002D480F23C370012383700623037002238C
:1032900043702449FFF77DF8044601462848FFF7AC
:1032A0008BFF002CACD101238DF810308DF811303C
:1032B0008DF812308DF813301A4904A8FFF7B7F8CB
:1032C000044601461F48FFF777FF002C98D1154BA5
:1032D00000930123224619462046FEF711FF0446BB
:1032E00001461948FFF768FF002C89D10394012398
:1032F0008DF80C300B4903A8FEF7C2FE04460146C8
:103300001248FFF759FF002C7FF47AAF05490120DE
:10331000FEF7F4FF044601460D48FFF74DFF6FE747
:10332000AC040020A4060020ACD20008C0D20008E3
:10333000D4D20008E0D20008A0060020F4D2000891
:1033400004D3000814D3000824D3000838D300089D
:103350004CD3000810B50446FCF742FF81B220466A
:1033600005F0E2FE0A20FEF769F810BD72B6FEE72E
:1033700030B59BB008AD48220021284607F0C2FCBA
:1033800000240194029403940494059406940794F1
:1033900002F018FE4FF0B042D2F8903023F018033C
:1033A00043F01003C2F8903002F58062136823F4F2
:1033B000C06343F400731360136803F4C0630093A5
:1033C000009B2F2308934FF48033099301230A9322
:1033D0004FF480720B920F9340220C921094602253
:1033E000119205220D920222139214931594202318
:1033F00016934FF4003317934FF0005319934FF087
:1034000000731893284602F0EDFE88B96F230193EC
:103410000321029103900490059080220692079068
:1034200001A803F06DFA28B903F003FE1BB030BD0C
:10343000FFF79CFFFFF79AFF10B594B050220021D0
:10344000684607F05FFC4FF4405300934FF440434D
:10345000119310231393684603F069FC08B914B064
:1034600010BDFFF783FF00002DE9F0432DED088B21
:103470009BB000F09FFEFDF7B9FFFFF779FFFFF764
:10348000DBFFFFF7F7FDFFF7FDF9FFF781FD00F028
:103490006FFC05F07DFB00F0D1FA00F0CDFA4FF49F
:1034A000FA60FDF7CBFFA248FFF754FFA148FFF7F2
:1034B00051FFA148FFF74EFFA04BA14A07CA83E87E
:1034C00007000B21184605F02FFE0A20FDF7B6FF76
:1034D0000824002501E00134E4B2772C19D80A232E
:1034E00002226100974801F0FBFB0028F3D1934EC4
:1034F0002346954A4FF48071304607F08DFB0C212E
:10350000304605F011FE0A20FDF798FF0135EDB2B7
:10351000E1E7002D4CD0894C2B468C4A4FF480714A
:10352000204607F079FB81B2204605F0FDFD0A2018
:10353000FDF784FF8648FFF70DFF864D864B2B6015
:10354000864B6B6002232B812846FDF7C0FB0346A8
:1035500005220092824A4FF48071204607F05CFBFE
:103560002A21204605F0E0FD0A20FDF767FF2846E6
:10357000FDF7B2FB03467B4A4FF48071204607F00B
:103580004BFB81B2204605F0CFFD0A20FDF756FF28
:103590007548FFF7DFFE00242646DFED749AB0EE93
:1035A00069AAF0EE69AAB0EE69BAF0EE69BA15E060
:1035B000624F3C466E4E0FCE0FC496E8030044F8AF
:1035C000040B21801521384605F0AEFD0A20FDF7D9
:1035D00035FFA0E70220FDF731FF01341F2C38DC56
:1035E00064495C48FDF7BEFB0028F3D1614D95EDC1
:1035F000008A95ED019A29EE090AD5ED028A68EE56
:10360000A88A30EE280A09F05FFCF0EE400AB1EE1D
:10361000480A09F057FC7BEE80BA28EE088A38EE9B
:10362000880A09F051FCF0EE400AB0EE490A09F0B0
:1036300049FC3BEE00BAD5ED037A7AEEA7AAD5EDA8
:10364000047A3AEE27AAD5ED057A79EEA79A0136E3
:10365000C0E7002E44DD07EE906AB8EEE78A8BEEF5
:10366000880ADFED458A20EE280A4448FFF728FD46
:103670008BEE080A20EE280A4148FFF721FDCAEE2A
:10368000887A404BC3ED007ACAEE087A3E4BC3ED10
:10369000007AC9EE887A3D4BC3ED007A3C48FFF7CB
:1036A00059FE3C48FFF756FEFFF79EFD0546C8B39E
:1036B000224C2B46384A4FF48071204607F0ACFA72
:1036C00081B2204605F030FD0A20FDF7B7FE002448
:1036D0006B42A34211DC40F2DC50FDF7AFFEE7E79E
:1036E0009FED228AB0EE480A2448FFF7E9FCB0EECD
:1036F000480A2348FFF7E4FCD0E7284E00224FF4A5
:103700000051304600F002FF6420FDF797FE0122D1
:103710004FF40051304600F0F9FE6420FDF78EFEB4
:103720000134D5E7FDF77CFE1D48FFF713FEF3E0FB
:1037300060D3000880D30008B4D3000844050020FB
:10374000CCD30008AC040020D8D3000800D4000873
:103750001CD40008D806002038070020000C0048C0
:103760003CD400086CD4000888D400080000000095
:10377000E8D30008BC060020E02E65427406002055
:10378000500600204C060020480600204406002079
:10379000ACD40008D0D40008E8D4000800080048E1
:1037A00000D50008844C94ED008AD4ED019A29EEEE
:1037B000A90AD4ED028A68EEA88A30EE280A09F038
:1037C00083FBF0EE400AB1EE480A09F07BFB9FED67
:1037D0007BAA20EE0A9A28EE088A38EE880A09F0B9
:1037E00073FBF0EE400AB0EE690A09F06BFB20EEC5
:1037F0000AAA94ED040ADFED728A724ED6ED007AC1
:10380000B0EE681AF0EE490A30EE670A6E48FFF72C
:103810006FFC10EE105A94ED030A6C4FD7ED007A4E
:10382000B0EE681AF0EE4A0A30EE670A6848FFF711
:103830005FFC10EE100A94ED039AD7ED007A39EE92
:10384000679AD4ED048AD6ED007A78EEE78A94ED93
:10385000058A604BD3ED007A38EE678A2668676880
:10386000D4F80880D4F818905B4CFCF725FECDE91D
:1038700010012846FCF720FECDE90E014846FCF772
:103880001BFECDE90C0118EE100AFCF715FECDE980
:103890000A0118EE900AFCF70FFECDE9080119EEB7
:1038A000100AFCF709FECDE906014046FCF704FECC
:1038B000CDE904013846FCF7FFFDCDE902013046B1
:1038C000FCF7FAFDCDE90001444A4FF4807120462F
:1038D00007F0A2F981B2204605F026FC404B1B7888
:1038E00063B3354B1A6813925A6814929A6815920A
:1038F0008DED169ACDED178A8DED188A9B69199377
:1039000013A90020FEF79CFF18E04FF40051354842
:1039100000F001FEFDF7ACFD00F070FC324B1B68BF
:10392000C01A3128F6D900F069FC2F4B18602249E3
:103930002E48FDF717FA00283FF434AF00238DF826
:103940004B302B490DF14B00FEF7EDFA0028DCD18E
:103950009DF84B3013F0010FD7D0254A2549264852
:10396000FEF748FB0028D0D1234B1D681A4C58683D
:10397000FCF7A2FDCDE902012846FCF79DFDCDE94B
:1039800000011E4A4FF48071204607F045F981B2CC
:10399000204605F0C9FB124B1B78002BB5D0164B07
:1039A0001A6813925B6814930023159313A90120DE
:1039B000FEF746FFA9E700BFBC060020E02E6542E7
:1039C000CDCC4C3D48060020740600204C0600205B
:1039D0005006002044060020440500201CD50008A5
:1039E00040050020000800483C050020D8060020C3
:1039F000A4060020A00600209806002058D5000844
:103A000008B507F0FEF908BD08B507F07BF908BD59
:103A100001460748C3798B4204D0064A904201D040
:103A20000838F7E78B4200D170470020FCE700BF61
:103A3000F873FF1F0070FF1F7047000008B50A48A9
:103A40000A4B0360002343600F22826047F6FF7237
:103A5000C26003618361C361436103F045FB00B948
:103A600008BDFFF783FCFBE7EC06002000280040C0
:103A700010B596B004465022002102A807F042F982
:103A80002268134B9A4201D016B010BD02F09AFA88
:103A90004FF4006302934FF40073129302A803F0F3
:103AA00046F988B94FF0B043D3F8902042F4004271
:103AB000C3F890209A6D42F480629A659B6D03F47E
:103AC00080630193019BDFE7FFF750FCEAE700BF4B
:103AD0000028004000B585B06B4600F10C0237218C
:103AE0004FF6664000F002F99DF80E0005B000BDEB
:103AF00000B585B06B4600F10C020F214FF668400F
:103B000000F0F4F89DF80E0005B000BD00B585B0DA
:103B100002466B4610214FF6754000F0E7F89DF81D
:103B20000E0005B000BD000010B5214BDB6BC3F3E8
:103B30000D039B0003F1005303F540331A6811682D
:103B40001C4B99422CD01369D2F814C0D2F818E05B
:103B5000516892681C0E04701C0C44701C0A84701E
:103B6000C3F30314C47003F00F0303714FEA1C6323
:103B700043714FEA1C4383714FEA1C23C37180F8E1
:103B800008C080F809E00B0E83720B0CC372090A9F
:103B90000173130E4373130C8373C273002010BDA3
:103BA0005369D2F818C0D2F81CE0D1681269D1E785
:103BB00000400058B95646A908B538B9084B1B68EB
:103BC00003B19847074B00221A7008BD054B01222C
:103BD0001A70034B1B68002BF7D010469847F4E788
:103BE000140700202403002010B584B004460B4BBA
:103BF00018600B4804F03EFD0120FFF7DDFF094B84
:103C000001221A70084B1B6833B10394074A0192D2
:103C1000074A029201A8984704B010BD2003002073
:103C2000280300201C03002018070020513D000835
:103C3000353C000810B50146034C204604F035FD24
:103C40002046FDF71CFC10BD2803002010B50C46D3
:103C50004A68054B1A60054BD861184600F07EF89B
:103C60002068FFF7C1FF10BD1407002018070020CF
:103C700000B585B01A4804F000FD10B9194B1B7847
:103C800043B9174804F0F9FC10B9164B1B781BBB5D
:103C900005B000BD03A9124804F01FFD124BDB69FB
:103CA0008BB1039A029201228DF8042001A8984753
:103CB0009DF804200B4B1A700A4B1B783BB10398FC
:103CC00004F032FFDDE7074B01221A70F4E7039995
:103CD000034804F0DEFCD4E70148FDF7D0FBD7E74A
:103CE000280300201C030020180700202DE9F041C4
:103CF00080460C4617461E460020FFF75DFF114D1B
:103D00002868A0F80980C472224639460C3007F0B2
:103D100078F801240C4B1C700C4B1B6900210846E1
:103D2000984748F2E800FDF7B5FB29688A78033226
:103D30003046083007F065F82046FFF73DFFBDE844
:103D4000F08100BF2003002010070020180700208A
:103D500008B50020FDF799FB08BD0000024B036089
:103D6000024B0361704700BF418A00087D8A00084A
:103D700008B51048104B03604FF482734360002372
:103D800083604FF4E062C260036143614FF40072EC
:103D900082610822C2610362436283620721C162B9
:103DA0000363426303F003FB00B908BDFFF7DEFACB
:103DB000FBE700BF380700200030014000B589B0A4
:103DC0000023039304930593069307930268124B11
:103DD0009A4201D009B000BD4FF0B0431A6E42F4D0
:103DE00080521A661A6E02F480520292029ADA6CBB
:103DF00042F00202DA64DB6C03F002030193019BE0
:103E000038230393022304930523079303A903484C
:103E100000F0A2FADEE700BF0030014000040048D5
:103E20000023024A1360024A13607047A007002073
:103E30009C070020EFF3108372B641B1012903D132
:103E400006490A6802430A6083F3108870470349F1
:103E50000A6822EA00020A60F6E700BF9C07002019
:103E6000EFF3108C72B6064A136803431360054AD9
:103E700052F83130034342F831308CF310887047E8
:103E80003C080020A8070020EFF3108172B6044A16
:103E9000136823EA0000106081F31088704700BFA8
:103EA0001C000020EFF3108172B6034A1368184318
:103EB000106081F3108870471C000020EFF3108120
:103EC00072B6034A13681843106081F31088704774
:103ED000380800207047704770477047704728B116
:103EE000B0FA80F0C0F11F00C0B270472020F9E79F
:103EF0002DE9F04F83B0714BD3F8009009EA000030
:103F000018606F4BD3F800806E4B1E686E4B1D68B7
:103F10006E4BD3F800B031E0013238E018466C4BFC
:103F200003EBC2035B681840FFF7D9FF694B1860C9
:103F3000EFF3108272B601241B6804FA03F3D8432E
:103F4000DFF87CC1DCF8001021EA0303CCF8003074
:103F5000002C48D182F31088DFF878A1DAF800004D
:103F6000FFF7BAFFDAF800301F2B04D85A4A52F88C
:103F70002300002869D10020FFF7B0FF08EA0503FD
:103F80004E4A106803426FD016EA0B026CD1504BB8
:103F900053F832302B400342BED04D4951F83230F5
:103FA0002B40034001EBC2014968194205D1484941
:103FB00001EBC2014FF0FF304860414909684448B5
:103FC00000EBC2004068454C276867EA00002060AB
:103FD00021EA000113EA0100A1D100299ED10020AD
:103FE000206018469BE7013C394951F834300340C2
:103FF00041F83430ACE7364901EBC2014D68012687
:104000009E4025EA06054D604D6802A901EB82013C
:1040100041F8045C0132002AEDD08047BCB12D4C40
:104020002068FFF75AFF264BD3F80080254B1E6807
:10403000254B1D68254BD3F800B0236801229A4018
:1040400026490B6813430B6098E72246E3E7204BB1
:1040500003EBC4035A6802A901EB840151F8041C64
:104060000A405A600134D9E71A4B4FF0FF321A6008
:10407000164B1B68334205D0104BC3F8009003B0B9
:10408000BDE8F08FFFF726FFEFF3108472B60C4BFC
:104090001B680C4A11680C4A12681340074A1268E0
:1040A000134203D1094B1B680B4204D084F31088E0
:1040B000FFF711FFE0E7FDF7E1F9F7E7180000204F
:1040C0003C080020380800201C0000203408002094
:1040D000A807002030080020B0070020A407002017
:1040E00008B5C043FFF704FF08BD0000F8B504465B
:1040F000114B1E68B6F1FF3F05D00125B5400F4BAF
:104100001F681C6005E00025F9E721462846FFF7F7
:10411000E7FF0B4B1B682342F7D0074B1E60EFF302
:10412000108172B6064A136823EA0403136081F310
:104130001088024B1F60F8BD3008002034080020B2
:104140003808002038B51546EFF3108472B6FFF733
:10415000C6FE034B43F8205084F3108838BD00BFDF
:10416000B0070020114B1B780BB90120704710B528
:10417000044602F027F80D4B1A784FF47A73B3FB1C
:10418000F2F3B0FBF3F000F0B7F868B90F2C01D9E7
:1041900001200AE0024621464FF0FF3000F098F877
:1041A000034B1C60002000E0012010BD2000002017
:1041B0002400002010B50A4A136843F4807313608A
:1041C000032000F073F80F20FFF7CCFF18B1012394
:1041D0001C46204610BD044600F0CAFEF9E700BFA9
:1041E00000400058034B1B78034A11680B441360CE
:1041F000704700BF2000002040080020014B1868D5
:10420000704700BF40080020014B1868704700BF8E
:1042100024000020014B1878704700BF20000020C8
:10422000002807DB00F01F02400901239340024AE7
:1042300042F82030704700BF00E100E0002808DBB2
:104240000901C9B200F1604000F5614080F8001337
:10425000704700F00F000901C9B2014B19547047B3
:1042600014ED00E000B500F00700A0F1030CBCF174
:10427000040F07D8C0F1070E0430062806D84FF007
:10428000000C03E04FF0040E4FF0000C4FF0FF3332
:1042900003FA0EF021EA000101FA0CF103FA0CF323
:1042A00022EA030241EA020000BD0000074AD36887
:1042B00023F4E0631B041B0C000200F4E0600343E2
:1042C00043F0BF6343F40033D360704700ED00E078
:1042D00010B50446054BD868C0F30220FFF7C2FFB3
:1042E00001462046FFF7AAFF10BD00BF00ED00E029
:1042F00008B5FFF795FF08BD0138B0F1807F0BD2FC
:104300004FF0E0235861054AF02182F82310002085
:10431000986107221A6170470120704700ED00E0A4
:10432000002808DB00F01F024009012393404030C1
:10433000014A42F82030704700E100E0002808DB25
:1043400000F01F024009012393406030014A42F807
:104350002030704700E100E070B58646002367E03A
:10436000DEF808405D000320A84024EA0004C86885
:10437000A8402043CEF80800DEF8044024EA0C04EC
:104380004868C0F3001098402043CEF8040060E075
:10439000DC0808345EF8240003F00705AD004FF098
:1043A0000F0C0CFA05FC20EA0C0C0869A84040EA46
:1043B0000C004EF8240062E0042000E0002000FA27
:1043C0000CF0284302344E4D45F824004D48046853
:1043D000D04324EA02054E6816F4801F01D042EA59
:1043E0000405484C2560646800EA04054E6816F42C
:1043F000001F01D042EA0405424C6560D4F88040B9
:1044000000EA04054E6816F4803F01D042EA040534
:104410003C4CC4F88050D4F8844020404D6815F4DA
:10442000003F01D042EA0400364AC2F8840001335A
:104430000A6832FA03F061D04FF0010C0CFA03FC69
:104440001CEA0202F3D0486800F00300013801289A
:1044500086D9486800F0030003280BD0DEF80C4032
:104460005D000320A84024EA00048868A840204397
:10447000CEF80C00486800F00300022888D0DEF86F
:1044800000005C004FF0030C0CFA04FC20EA0C0C5A
:10449000486800F00300A04040EA0C00CEF800009D
:1044A000486810F4403FC2D09C08A51C144850F83E
:1044B000255003F0030C4FEA8C0C0F2000FA0CF08F
:1044C00025EA0005BEF1904F3FF478AF0E488645CF
:1044D0000ED000F5806086450CD000F580608645E2
:1044E0000AD000F5806086453FF466AF072066E796
:1044F000012064E7022062E7032060E770BD00BF8F
:104500000000014000080058000400480AB1816121
:10451000704781627047436901EA030221EA03019F
:1045200041EA0241816170477047000008B5054BC0
:10453000D8681A6822EA00021A605860FFF7F4FF90
:1045400008BD00BF0015005803689A6912F0020FF9
:1045500001D000229A6203689A6912F0010F03D118
:104560009A6942F001029A617047DDF800C0C1F318
:10457000090141EA0241194341EA0C0121F00041DD
:10458000026853684FEA5C5C0CF4806C4CF07F7CF2
:104590004CF4583C4CF47F7C4CF0030C23EA0C03A5
:1045A0000B43536070472DE9F041044603689E6950
:1045B00016F010067CD00D4690461022DA610026D7
:1045C00037462368986910F0200F30D17FBBB5F1D2
:1045D000FF3FF6D0FFF712FE4346C01AA84201D8AB
:1045E000002DEED121684B6803F4804394F84220FB
:1045F000D2B2886910F4004F02D00BB9202A0ED134
:1046000023689B6913F0200FDBD1FFF7F7FD4346CA
:10461000C01A1928F4D946F020060127D1E74B68C3
:1046200043F480434B60FFF7E9FD8046E8E70FB9AC
:104630002022DA6146F0040601252268936913F40A
:10464000807F05D046F001064FF48071D1610125CD
:1046500013F4806F06D046F0080622684FF480619C
:10466000D161012513F4007F24D046F002062368AF
:104670004FF40072DA6101252046FFF765FF2268DA
:10468000536823F0FF7323F48B3323F4FF7323F079
:1046900001035360636C33436364202384F8413027
:1046A000002384F8423084F840302846BDE8F08189
:1046B0000025C2E7002DF8D0DEE770B504460D46B0
:1046C000164623689B6913F0020F22D13246294611
:1046D0002046FFF768FFF0B9B5F1FF3FF1D0FFF7D3
:1046E0008DFD801BA84201D8002DEAD123689B696B
:1046F00013F0020FE5D1636C43F0200363642023C1
:1047000084F84130002384F8423084F8403001209E
:1047100000E0002070BD0120FCE72DE9F0410446D7
:104720000F4616461D46DDF8188023689B6937EA58
:1047300003030CBF01230023B34227D1424629467D
:104740002046FFF730FF20BBB5F1FF3FEDD0FFF76C
:1047500055FDA0EB0800A84201D8002DE5D1236843
:104760009B6937EA03030CBF01230023B342DCD16A
:10477000636C43F020036364202384F841300023FA
:1047800084F8423084F84030012000E00020BDE889
:10479000F0810120FBE7000070B582B004461646A8
:1047A0001D46184B00934FF08073EAB2FFF7DDFE11
:1047B000079A06992046FFF780FFE0B9012D0DD139
:1047C0002368F2B29A62079B0093069B0022802125
:1047D0002046FFF7A2FF90B902B070BD330A2268ED
:1047E0009362079A06992046FFF767FF28B9236866
:1047F000F2B29A62E7E70120EEE70120ECE7012040
:10480000EAE700BF0020008070B582B0044616467B
:104810001D46174B00930023EAB2FFF7A6FE079A46
:1048200006992046FFF749FFE0B9012D0DD1236815
:10483000F2B29A62079B0093069B00224021204619
:10484000FFF76BFF90B902B070BD330A2268936224
:10485000079A06992046FFF730FF28B92368F2B27D
:104860009A62E7E70120EEE70120ECE70120EAE7A2
:104870000020008070B504460D46164604E023680B
:104880009B6913F0200F12D023689B6913F0200F4F
:104890001BD1324629462046FFF785FEB8B9FFF7FF
:1048A000ADFC801BA842EAD8002DEDD1E7E7636C90
:1048B00043F020036364202384F84130002384F80C
:1048C000423084F84030012000E0002070BD01201B
:1048D000FCE700285FD010B5044690F84130002B6B
:1048E00048D0242384F841302268136823F0010360
:1048F00013606368226823F0706313612268936811
:1049000023F400439360E368012B38D0A368226846
:1049100043F404439360E368022B36D02268536863
:1049200023F4006353602268536843F0007343F438
:10493000004353602268D36823F40043D3602369A3
:1049400062691343A169226843EA0123D360E369E2
:10495000216A22680B4313602268136843F0010345
:10496000136000206064202384F84130206384F8C1
:10497000420010BD80F84030FEF736FBB1E7A36877
:10498000226843F400439360C5E72268536843F408
:1049900000635360C7E7012070472DE9F04383B0FF
:1049A0000E469846BDF82C3090F84110202940F072
:1049B000B7800446174699460A9ABAB1B3B190F83F
:1049C0004030012B00F0B0804FF0010380F8403000
:1049D000FFF714FC05460090192301224FF4004113
:1049E0002046FFF79AFE30B101209AE04FF40073A1
:1049F0006364012095E0212384F84130402384F84A
:104A0000423060640A9A6262A4F82A906063019559
:104A10000C9B009343463A4631462046FFF7BCFEC6
:104A200068B9638D9BB2FF2B0ED9FF2222850090BF
:104A30004FF0807331462046FFF797FD21E00023B9
:104A400084F8403001206CE0628D92B22285002310
:104A500000934FF00073D2B231462046FFF785FD38
:104A60000FE0628D92B22285002300934FF0007315
:104A7000D2B231462046FFF778FD638D9BB2002B02
:104A800032D02A460C992046FFF717FE00284DD158
:104A9000626A236812789A62636A01336362638D83
:104AA0009BB2013B9BB26385238D013B9BB2238567
:104AB000628D92B2002AE0D0002BDED100950C9BD3
:104AC000024680212046FFF728FE88BB638D9BB2FB
:104AD000FF2BC6D9FF22228500904FF0807331460C
:104AE0002046FFF742FDC8E72A460C992046FFF70B
:104AF000C1FEF8B923682022DA6121684B6823F0EF
:104B0000FF7323F48B3323F4FF7323F001034B6013
:104B100084F84120002384F8423084F8403000E0DB
:104B2000022003B0BDE8F0830220FAE70120F8E795
:104B30000120F6E70120F4E72DE9F04383B00E46AB
:104B40009846BDF82C3090F84110202940F0B980EB
:104B50000446174699460A9ABAB1B3B190F8403064
:104B6000012B00F0B2804FF0010380F84030FFF7D6
:104B700045FB05460090192301224FF400412046D1
:104B8000FFF7CBFD30B101209CE04FF4007363646C
:104B9000012097E0222384F84130402384F84230FA
:104BA00060640A9A6262A4F82A90606301950C9B83
:104BB000009343463A4631462046FFF725FE70B93A
:104BC000638D9BB2FF2B0FD9FF222285434B0093AD
:104BD0004FF0807331462046FFF7C7FC21E00023E9
:104BE00084F8403001206DE0628D92B222853B4B0B
:104BF00000934FF00073D2B231462046FFF7B5FC68
:104C00000FE0628D92B22285002300934FF0007373
:104C1000D2B231462046FFF7A8FC638D9BB2002B31
:104C200033D000950C9B002204212046FFF775FD30
:104C300000284CD123685A6A636A1A70636A013388
:104C40006362228D013A92B22285638D9BB2013B51
:104C50009BB26385638D9BB2002BDED0002ADCD132
:104C600000950C9B80212046FFF757FD88BB638D84
:104C70009BB2FF2BC5D9FF22228500904FF0807395
:104C800031462046FFF771FCC7E72A460C992046BB
:104C9000FFF7F0FDF8B923682022DA6121684B683C
:104CA00023F0FF7323F48B3323F4FF7323F001030A
:104CB0004B6084F84120002384F8423084F840306F
:104CC00000E0022003B0BDE8F0830220FAE70120F3
:104CD000F8E70120F6E70120F4E700BF0024008098
:104CE0002DE9F04385B01C460023039390F8413032
:104CF000202B40F0A38005468846174603689B6931
:104D000013F4004F40F09C8090F84030012B00F0ED
:104D10009980012380F84030242380F8413000231B
:104D20004364994645E0C8F3090343F0007343F434
:104D3000005347E02A689369C3F340139269C2F3B2
:104D40000012C3B9BAB9B4F1FF3FF3D0FFF756FA76
:104D5000801BA04201D8002CECD1202385F84130E3
:104D60006B6C43F020036B64002385F84030012016
:104D700005B0BDE8F0832B689A6912F0100F3DD1A1
:104D800000962346002220212846FFF7C6FC60B388
:104D90006B6C042B23D001239946039B01330393AF
:104DA000039BBB4202D24B46002B38D1039BBB4234
:104DB00038D2EB68012BB6D0C8F3090343F0007377
:104DC00043F420532A685360FFF718FA06462A680E
:104DD0009369C3F340139269C2F30012B1E72B68E1
:104DE0002022DA6100236B64D7E72A682023D3618D
:104DF00085F84130002385F84030B9E71022DA61A8
:104E000000962346002220212846FFF786FC18B989
:104E10002B682022DA61C0E701239946BDE7002311
:104E20009946C3E7202385F841306B6C43F020039B
:104E30006B64002385F84030012099E7022097E752
:104E4000022095E7022093E7034690F84120202AAC
:104E500023D190F84020012A21D0012280F840205F
:104E6000242280F841200068026822F001020260DA
:104E70001868026822F480520260186802680A43C7
:104E8000026019680A6842F001020A60202283F871
:104E90004120002083F84000704702207047022024
:104EA0007047034690F84120202A21D190F84020F5
:104EB000012A1FD0012280F84020242280F84120BE
:104EC0000068026822F0010202601868026822F499
:104ED000706242EA0122026019680A6842F0010227
:104EE0000A60202283F84120002083F840007047A8
:104EF000022070470220704770477047002309E086
:104F000000EB8302054951609A1D00EB82020449BF
:104F100051600133052BF3D9704700BFF94E0008EB
:104F2000FB4E0008002303604FF03F1343603F2314
:104F300083607047C0B138B5044690F8383083B10B
:104F40000A4D2846FFF7EEFF2B6843F001132B6054
:104F50002046FFF7D3FF00206063012384F8383038
:104F600038BDFEF797F8EBE701207047000C0058BA
:104F700000B583B04FF0B0431A6D42F400221A65B9
:104F80001B6D03F400230193019B002211462E2088
:104F9000FFF79EF92E20FFF7ABF903B000BD10B567
:104FA00012F4804F45D00468B4F8503091F800C036
:104FB0004FEACC0E1EFA83F32344B3F80244C4F341
:104FC00009048B69A3422AD31B1B8B618B6983B9AC
:104FD000D0F800E03EF82C309BB223F4804323F05D
:104FE000700383F4005343F4004343F080032EF82E
:104FF0002C3012F0400F0FD0026891F800C032F848
:105000002C309BB223F4E04323F0700343F40043BD
:1050100043F0C00322F82C3024B9204610BD0023F1
:105020008B61D3E723460A894969006803F00CFBCA
:10503000F3E70468B4F8503091F800C04FEACC0EA2
:105040001EFA83F32344B3F80644C4F309048B69BE
:10505000A34230D31B1B8B618B6983B9D0F800E06E
:105060003EF82C309BB223F4804323F0700383F48A
:10507000005343F4004343F080032EF82C3012F029
:10508000400F0FD1026891F800C032F82C309BB26B
:1050900023F4E04323F0700343F4004343F0C003E0
:1050A00022F82C30002CB8D023464A894969006880
:1050B00003F0CAFAB1E700238B61CDE7002856D090
:1050C00010B5044690F891323BB1032384F8913235
:1050D000206802F098FB002315E080F8903204F07D
:1050E00047F8F2E703EB830204EBC202012151749B
:1050F00013740021D17411625162013303EB8302F6
:10510000D200A150DBB220799842EBD8002316E000
:1051100003EB830204EBC202002182F8511182F8F2
:10512000503182F85311C2F86011C2F8641103EBD8
:10513000830204EBC202C2F868110133DBB2984269
:10514000E6D8234653F8040B93E8060002F066FB0A
:1051500000232373012384F89132A37A012B01D019
:10516000002010BD204600F016FF0020F9E70120C6
:10517000704790F89032012B0ED010B504460123F1
:1051800080F89032006802F035FB206802F074FF6E
:10519000002084F8900210BD0220704770B50546CB
:1051A0000C46164612F0400F00F01F810268B2F85C
:1051B000503009784FEAC10C1CFA83F31344B3F85A
:1051C0000224C2F30902A36993422CD99B1AA3615A
:1051D000A06958B316F4804F0DD0286830F82130FC
:1051E0009BB223F4E04323F0700343F4404343F0C5
:1051F000800320F8213094F82430012B00F08D80BA
:105200002A68217832F821309BB223F4E04323F05E
:10521000400383F0300343F4004343F0800322F85B
:105220002130002070BD0023A361D1E76378002BFB
:1052300048D12A68B2F8503012FA83F36344B3F8C5
:105240000224C2F30902A3F80224B3F802246FEA8D
:1052500042426FEA524292B2A3F802242A6863786B
:10526000002B3BD1B2F8503012FA83F3227803EBD3
:10527000C203B3F80624C2F30902A3F80624B3F864
:1052800006246FEA42426FEA524292B2A3F8062421
:10529000E378022B2FD02178284603F0D9FF16F4AB
:1052A000804FBED02A68217832F821309BB223F497
:1052B000E04323F0700343F4404343F0800322F8BB
:1052C0002130AEE7012BC9D12A68B2F8503012FA6A
:1052D00083F363440022A3F80224BFE7012BD7D154
:1052E000B2F8503012FA83F3227803EBC2030022A3
:1052F000A3F80624CCE72A68217832F821309BB243
:1053000023F4E04323F0400383F0200343F40043FD
:1053100043F0800322F82130BDE7636913446361E1
:10532000E3691344E361216A236999421DD3C91AD1
:1053300021626278002A43D12968B1F8502011FA1D
:1053400082F2217802EBC102B2F80214C1F3090122
:10535000A2F80214A3B9B2F802146FEA41416FEA4D
:10536000514189B2A2F802142CE019B984F8241032
:105370001346DEE7002384F8243023620B46D8E787
:105380003E2B0DD8590813F0010F00D00131B2F8AF
:10539000020480B2890289B20143A2F8021411E02A
:1053A000580913F01F0F00D10138B2F8021489B266
:1053B000800280B2014341F40041A2F8021401E0EE
:1053C000012A06D09BB222896169286802F063FE37
:1053D00016E72968B1F8502011FA82F2217802EB21
:1053E000C10299B2A2F80214ECE70268B2F8503098
:1053F0000978C80010FA83F31344B3F80624C2F303
:105400000902A369934246D39B1AA361A369002BA7
:1054100044D016F4804F0DD1286830F821309BB26B
:1054200023F4E04323F0700343F4404343F080034C
:1054300020F8213094F82430012B7FF4E1AE636929
:1054400013446361E3691344E361216A2369994268
:10545000C0F09C80C91A216229686278002A40F055
:10546000C080B1F8502011FA82F2217802EBC1021B
:10547000B2F80614C1F30901A2F80614002B40F09B
:105480009080B2F806146FEA41416FEA514189B247
:10549000A2F80614A7E00023A361B7E76378002B06
:1054A00049D12A68B2F8503012FA83F30344B3F8B2
:1054B0000224C2F30902A3F80224B3F802246FEA1B
:1054C00042426FEA524292B2A3F802242A686378F9
:1054D000002B3CD1B2F8503012FA83F3227803EB60
:1054E000C203B3F80624C2F30902A3F80624B3F8F2
:1054F00006246FEA42426FEA524292B2A3F80624AF
:10550000E378022B30D02178284603F0A1FE16F470
:10551000804F7FF486AE2A68217832F821309BB222
:1055200023F4E04323F0700343F4404343F080034B
:1055300022F8213075E6012BC8D12A68B2F8503024
:1055400012FA83F303440022A3F80224BEE7012BDE
:10555000D6D1B2F8503012FA83F3227803EBC203AB
:105560000022A3F80624CBE72A68217832F82130FC
:105570009BB223F4E04323F0400383F0200343F481
:10558000004343F0800322F82130BCE719B984F8C6
:105590002410134660E70023236284F824300B466E
:1055A0005AE73E2B0DD8590813F0010F00D00131F6
:1055B000B2F8060480B2890289B20143A2F8061447
:1055C00011E0580913F01F0F00D10138B2F806148A
:1055D00089B2800280B2014341F40041A2F806146E
:1055E00001E0012A06D09BB262896169286802F055
:1055F00052FD05E6B1F8502011FA82F2217802EB53
:10560000C10299B2A2F80614EDE72DE9F041054672
:1056100053E003889BB223F4E14323F070036FEA65
:1056200043436FEA53439BB203802968B1F850307B
:105630002A7CD20012FA83F30B44B3F80234C3F38A
:105640000903EB626A6A1A446A620021284603F081
:10565000FFFD2B7B8BB3AB6A7BBB2B7B2A6843F0B4
:105660008003A2F84C3000232B7326E003889BB202
:1056700023F4804323F0700383F4805348F28001C5
:105680000B4303802A6813889BB223F4E04323F082
:10569000400383F010030B4313802A6813889BB2E6
:1056A00023F070031B051B0D43F0800313800020C3
:1056B000BDE8F08112F4004F37D12868B0F84430CB
:1056C00013F4004FF3D0B0F84440A3B214F00F0429
:1056D00066D113F0100F9CD003889AB213F4006FB8
:1056E000E8D0B0F8503095F85021D20012FA83F388
:1056F0000344B3F80634C3F30903C5F86C31082B2F
:10570000B4D1B5F8562105F5267102F09DFF2A683F
:1057100013889BB223F070031B051B0D43F080031D
:105720001380284603F080FDC7E703889BB223F06F
:1057300070031B051B0D43F0800303802868B0F83D
:10574000503095F85021D20012FA83F30344B3F895
:105750000634C3F30903C5F86C316BB903889BB2F7
:1057600023F4804323F0700383F4405343F4004355
:1057700043F080030380A0E7D5F8641100299CD092
:10578000B5F8562102F060FFD5F86431D5F86C21E8
:105790001344C5F864310021284603F04DFD8CE721
:1057A00030F824309EB213F4004F4DD116F0800F24
:1057B00083D004EB8401C900103129442A6832F8EF
:1057C00024309BB223F4E14323F070036FEA434398
:1057D0006FEA53439BB222F8243004EB840305EBB9
:1057E000C303DB7C012B00F0F18016F4807F40F0D6
:1057F00088812868B0F8503004EB840205EBC202BF
:10580000167CF20012FA83F30344B3F80234C3F3B4
:105810000903621C02EB820255F832209A4240F2E0
:105820005381671C07EB8707D21A45F83720621CA3
:1058300002EB820255F83220002A40F04C813146BA
:10584000284603F005FD38E730F824309BB223F0FA
:1058500070031B051B0D43F0800320F8243004EB7C
:105860008401C90001F5A87105EB010804EB84036C
:1058700005EBC30393F85C31DBBB2868B0F850300C
:1058800004EB840205EBC20292F85021D20012FA16
:1058900083F30344B3F80674C7F30907EFB904EBC5
:1058A000840305EBC303D3F86C213A44C3F86C219D
:1058B000D3F868313BB104EB840305EBC303D3F8A1
:1058C00060319F4270D204EB840305EBC30393F86D
:1058D0005011284603F0B0FC68E704EB840105EBA7
:1058E000C1013B46B1F85621D1F8641102F0ACFE7B
:1058F000D5E704EB840305EBC30393F85331022B84
:1059000033D0296804EB840205EBC20292F85001FF
:1059100031F820309BB223F4E04323F0700343F4CA
:10592000004343F0C00321F82030286892F850313A
:1059300030F8232012F4804F1ED0B0F85020DB0046
:1059400013FA82F30344B3F80274C7F30907002F74
:10595000A5D004EB840105EBC1013B46B1F8582109
:10596000D1F8641102F070FE99E7324641462846AC
:10597000FFF715FB074692E7B0F85020DB0013FA5B
:1059800082F30344B3F80674C7F30907002F86D0E7
:1059900004EB840105EBC1013B46B1F85A21D1F873
:1059A000641102F051FE7AE704EB840305EBC303B4
:1059B000D3F8642104EB840305EBC3033A44C3F832
:1059C00064214146286802F078FBEFE6631C03EB94
:1059D0008303DB000022EA5004EB840305EBC303DE
:1059E0001B7F1BB316F0400F3BD004EB840305EB89
:1059F000C3035B7C1BBB2A68B2F8503012FA83F3F6
:105A000004EB840205EBC202127C03EBC203B3F881
:105A10000224C2F30902A3F80224B3F802246FEAB5
:105A200042426FEA524292B2A3F8022404EB840489
:105A300005EBC404217C284603F00AFC3DE6012B5B
:105A4000F4D12A68B2F8503012FA83F304EB8402DE
:105A500005EBC202127C03EBC2030022A3F802246E
:105A6000E4E72A6804EB840305EBC3035B7CD3B94A
:105A7000B2F8503012FA83F304EB840205EBC20251
:105A8000127C03EBC203B3F80624C2F30902A3F8A5
:105A90000624B3F806246FEA42426FEA524292B2F9
:105AA000A3F80624C2E7012BC0D1B2F8503012FA95
:105AB00083F304EB840205EBC202127C03EBC20306
:105AC0000022A3F80624B1E7621C02EB8202D20096
:105AD0000027AF50ABE604EB840205EBC202566A26
