:020000040800F2
:1000000000000320397D0008855700088757000845
:10001000895700088B5700088D5700080000000022
:100020000000000000000000000000008F570008E2
:1000300091570008000000009357000895570008EA
:10004000917D0008917D0008917D0008917D000858
:10005000917D0008917D0008917D0008917D000848
:10006000917D0008917D0008917D0008917D000838
:10007000917D0008917D0008917D0008917D000828
:10008000917D0008917D0008917D0008917D000818
:100090009D570008917D0008917D0008917D000822
:1000A000917D0008917D0008917D0008917D0008F8
:1000B000917D0008917D0008917D0008917D0008E8
:1000C000917D0008917D0008917D0008917D0008D8
:1000D000917D0008917D0008917D0008917D0008C8
:1000E000917D0008917D0008917D0008917D0008B8
:1000F000917D0008917D0008917D0008917D0008A8
:10010000917D0008917D0008917D0008917D000897
:10011000917D0008917D0008917D0008917D000887
:10012000917D0008917D0008917D0008917D000877
:0C013000917D0008917D0008917D000881
:1001400001F0FF01102A2BDB10F0070F08D010F888
:10015000013B013A8B422DD010F0070F42B3F6D18C
:10016000F0B441EA012141EA014122F007047FF0A5
:1001700000070023F0E80256083C85EA010586EAFC
:10018000010685FA47F5A3FA87F586FA47F6A5FA38
:1001900087F68EB9EED1F0BC01F0FF0102F0070244
:1001A00032B110F8013B013A83EA010313B1F8D1EF
:1001B0000020704701387047002D06BF35460338D0
:1001C000073815F0010F07D1013015F4807F02BF09
:1001D000013015F4C03F0130F0BC0138704700BF5A
:1001E000034613F8012B002AFBD1181A0138704777
:1001F00081F0004102E000BF83F0004330B54FEAD8
:1002000041044FEA430594EA050F08BF90EA020F44
:100210001FBF54EA000C55EA020C7FEA645C7FEAD7
:10022000655C00F0E2804FEA5454D4EB5555B8BFFA
:100230006D420CDD2C4480EA020281EA030382EA6B
:10024000000083EA010180EA020281EA0303362DFD
:1002500088BF30BD11F0004F4FEA01314FF4801CD0
:100260004CEA113102D0404261EB410113F0004FE2
:100270004FEA03334CEA133302D0524263EB430399
:1002800094EA050F00F0A780A4F10104D5F1200E37
:100290000DDB02FA0EFC22FA05F2801841F1000192
:1002A00003FA0EF2801843FA05F359410EE0A5F166
:1002B00020050EF1200E012A03FA0EFC28BF4CF097
:1002C000020C43FA05F3C01851EBE37101F000454D
:1002D00007D54FF0000EDCF1000C7EEB00006EEB5A
:1002E0000101B1F5801F1BD3B1F5001F0CD34908E4
:1002F0005FEA30004FEA3C0C04F101044FEA44523B
:1003000012F5800F80F09A80BCF1004F08BF5FEAC1
:10031000500C50F1000041EB045141EA050130BDA1
:100320005FEA4C0C404141EB0101013C28BFB1F5B3
:10033000801FE9D291F0000F04BF01460020B1FAFE
:1003400081F308BF2033A3F10B03B3F120020CDAD1
:100350000C3208DD02F1140CC2F10C0201FA0CF0AF
:1003600021FA02F10CE002F11402D8BFC2F1200C14
:1003700001FA02F120FA0CFCDCBF41EA0C019040CA
:10038000E41AA2BF01EB0451294330BD6FEA040413
:100390001F3C1CDA0C340EDC04F11404C4F12002FE
:1003A00020FA04F001FA02F340EA030021FA04F310
:1003B00045EA030130BDC4F10C04C4F1200220FA67
:1003C00002F001FA04F340EA0300294630BD21FAA5
:1003D00004F0294630BD94F0000F83F4801306BF6B
:1003E00081F480110134013D4EE77FEA645C18BF5F
:1003F0007FEA655C29D094EA050F08BF90EA020FF6
:1004000005D054EA000C04BF1946104630BD91EAED
:10041000030F1EBF0021002030BD5FEA545C05D1F0
:100420004000494128BF41F0004130BD14F580042F
:100430003CBF01F5801130BD01F0004545F0FE41A3
:1004400041F470014FF0000030BD7FEA645C1ABFD8
:10045000194610467FEA655C1CBF0B46024650EA0F
:10046000013406BF52EA033591EA030F41F400213B
:1004700030BD00BF90F0000F04BF0021704730B5C1
:100480004FF4806404F132044FF000054FF0000196
:1004900050E700BF90F0000F04BF0021704730B557
:1004A0004FF4806404F1320410F0004548BF40422C
:1004B0004FF000013EE700BF42004FEAE2014FEA81
:1004C00031014FEA02701FBF12F07F4393F07F4F5C
:1004D00081F06051704732F07F4208BF704793F05F
:1004E0007F4F04BF41F40021704730B54FF4607472
:1004F00001F0004521F000411CE700BF50EA010275
:1005000008BF704730B54FF000050AE050EA01021D
:1005100008BF704730B511F0004502D5404261EB8D
:1005200041014FF4806404F132045FEA915C3FF4CE
:10053000D8AE4FF003025FEADC0C18BF03325FEA6B
:10054000DC0C18BF033202EBDC02C2F1200300FA1C
:1005500003FC20FA02F001FA03FE40EA0E0021FA41
:1005600002F11444BDE600BF70B54FF0FF0C4CF42F
:10057000E06C1CEA11541DBF1CEA135594EA0C0FE1
:1005800095EA0C0F00F0DEF82C4481EA030621EA1C
:100590004C5123EA4C5350EA013518BF52EA033557
:1005A00041F4801143F4801338D0A0FB02CE4FF009
:1005B0000005E1FB02E506F00042E0FB03E54FF039
:1005C0000006E1FB03569CF0000F18BF4EF0010E31
:1005D000A4F1FF04B6F5007F64F5407404D25FEA2D
:1005E0004E0E6D4146EB060642EAC62141EA5551E0
:1005F0004FEAC52040EA5E504FEACE2EB4F1FD0C22
:1006000088BFBCF5E06F1ED8BEF1004F08BF5FEA9F
:10061000500E50F1000041EB045170BD06F0004651
:1006200046EA010140EA020081EA0301B4EB5C04FE
:10063000C2BFD4EB0C0541EA045170BD41F48011F6
:100640004FF0000E013C00F3AB8014F1360FDEBF1B
:10065000002001F0004170BDC4F10004203C35DAF7
:100660000C341BDC04F11404C4F1200500FA05F37A
:1006700020FA04F001FA05F240EA020001F000421B
:1006800021F0004110EBD37021FA04F642EB060191
:100690005EEA430E08BF20EAD37070BDC4F10C04BB
:1006A000C4F1200500FA04F320FA05F001FA04F27F
:1006B00040EA020001F0004110EBD37041F100016B
:1006C0005EEA430E08BF20EAD37070BDC4F1200576
:1006D00000FA05F24EEA020E20FA04F301FA05F2DE
:1006E00043EA020321FA04F001F0004121FA04F286
:1006F00020EA020000EBD3705EEA430E08BF20EA56
:10070000D37070BD94F0000F0FD101F0004640008F
:1007100041EB010111F4801F08BF013CF7D041EA11
:10072000060195F0000F18BF704703F00046520015
:1007300043EB030313F4801F08BF013DF7D043EAE6
:100740000603704794EA0C0F0CEA135518BF95EA9C
:100750000C0F0CD050EA410618BF52EA4306D1D123
:1007600081EA030101F000414FF0000070BD50EA42
:10077000410606BF1046194652EA430619D094EACC
:100780000C0F02D150EA013613D195EA0C0F05D1B6
:1007900052EA03361CBF104619460AD181EA03010A
:1007A00001F0004141F0FE4141F470014FF00000C2
:1007B00070BD41F0FE4141F4780170BD70B54FF05D
:1007C000FF0C4CF4E06C1CEA11541DBF1CEA1355DD
:1007D00094EA0C0F95EA0C0F00F0A7F8A4EB0504BF
:1007E00081EA030E52EA03354FEA013100F08880B6
:1007F0004FEA03334FF0805545EA131343EA12637F
:100800004FEA022245EA111545EA10654FEA002633
:100810000EF000419D4208BF964244F1FD0404F5EC
:10082000407402D25B084FEA3202B61A65EB030548
:100830005B084FEA32024FF480104FF4002CB6EB05
:10084000020E75EB030E22BFB61A754640EA0C0085
:100850005B084FEA3202B6EB020E75EB030E22BFC5
:10086000B61A754640EA5C005B084FEA3202B6EB06
:10087000020E75EB030E22BFB61A754640EA9C00C5
:100880005B084FEA3202B6EB020E75EB030E22BF95
:10089000B61A754640EADC0055EA060E18D04FEA53
:1008A000051545EA16754FEA06164FEAC30343EAF3
:1008B00052734FEAC2025FEA1C1CC0D111F4801FC0
:1008C0000BD141EA00014FF000004FF0004CB6E7B9
:1008D00011F4801F04BF01430020B4F1FD0C88BF58
:1008E000BCF5E06F3FF6AFAEB5EB030C04BFB6EB63
:1008F000020C5FEA500C50F1000041EB045170BD56
:100900000EF0004E4EEA113114EB5C04C2BFD4EB82
:100910000C0541EA045170BD41F480114FF0000E06
:10092000013C90E645EA060E8DE60CEA135594EA82
:100930000C0F08BF95EA0C0F3FF43BAF94EA0C0F85
:100940000AD150EA01347FF434AF95EA0C0F7FF4FA
:1009500025AF104619462CE795EA0C0F06D152EA4E
:1009600003353FF4FDAE1046194622E750EA410632
:1009700018BF52EA43067FF4C5AE50EA41047FF443
:100980000DAF52EA43057FF4EBAE12E74FF0FF3CA8
:1009900006E000BF4FF0010C02E000BF4FF0010C79
:1009A0004DF804CD4FEA410C7FEA6C5C4FEA430CF2
:1009B00018BF7FEA6C5C1BD001B050EA410C0CBF41
:1009C00052EA430C91EA030F02BF90EA020F0020A3
:1009D000704710F1000F91EA030F58BF994208BF0A
:1009E00090422CBFD8176FEAE37040F001007047C7
:1009F0004FEA410C7FEA6C5C02D150EA013C07D11E
:100A00004FEA430C7FEA6C5CD6D152EA033CD3D068
:100A10005DF8040B704700BF8446104662468C4662
:100A20001946634600E000BF01B5FFF7B7FF002895
:100A300048BF10F1000F01BD4DF808EDFFF7F4FFBE
:100A40000CBF012000205DF808FB00BF4DF808ED49
:100A5000FFF7EAFF34BF012000205DF808FB00BF6C
:100A60004DF808EDFFF7E0FF94BF012000205DF88E
:100A700008FB00BF4DF808EDFFF7CEFF94BF012043
:100A800000205DF808FB00BF4DF808EDFFF7C4FF3C
:100A900034BF012000205DF808FB00BF4FEA410C85
:100AA0007FEA6C5C02D150EA013C0AD14FEA430C68
:100AB0007FEA6C5C02D152EA033C02D14FF00000A5
:100AC00070474FF0010070474FEA410212F50012E3
:100AD00015D211D56FF47873B3EB625212D94FEA85
:100AE000C12343F0004343EA505311F0004F23FA6F
:100AF00002F018BF404270474FF00000704750EAC4
:100B0000013005D111F0004008BF6FF00040704780
:100B10004FF00000704700BF4FEA4102B2F1E043DE
:100B200024BFB3F5001CDCF1FE5C0DD901F0004CD4
:100B30004FEAC0024CEA5070B2F1004F40EB830024
:100B400008BF20F00100704711F0804F21D113F150
:100B50003872BCBF01F00040704741F480114FEA89
:100B60005252C2F11802C2F1200C10FA0CF320FA12
:100B700002F018BF40F001004FEAC1234FEAD3232F
:100B800003FA0CFC40EA0C0023FA02F34FEA430399
:100B9000CCE77FEA625307D150EA01331EBF4FF022
:100BA000FE4040F44000704701F0004040F0FE403D
:100BB00040F40000704700BF08B5064B1A783AB9F8
:100BC000054A1AB10548AFF30080024B01221A70A2
:100BD00008BD00BFCC0200200000000084AA00086D
:100BE00008B5034B1BB103490348AFF3008008BDB0
:100BF00000000000D002002084AA000830B583B0B5
:100C0000044601F07F018DF804108DF805200122C3
:100C10000189406801F077FC6423022201A9206861
:100C200004F024FB054600222189606801F06BFC7A
:100C300015B9284603B030BD4FF0FF30FAE738B59C
:100C4000837A8B4208D004460D460A467621FFF788
:100C5000D5FF10B9A57200E0002038BD0F2A2FD8AB
:100C60002DE9F0438BB0044688461546994601327B
:100C700006AE17460021304607F024FE68F07F02DA
:100C80008DF8182001222189606801F03CFC642362
:100C900000933B4602AA3146206804F0ECFB06466E
:100CA00000222189606801F02EFC66B92A460DF108
:100CB0000901484607F085FE30460BB0BDE8F083D9
:100CC0004FF0FF3070476FF00100F6E700B583B0DA
:100CD00000238DF807300DF107030122FFF7BEFF57
:100CE0009DF8070003B000BDF8B507460E4615464F
:100CF0001C46FFF7EBFFE3435BB218402A46024372
:100D0000D2B231463846FFF779FFF8BD10B5044638
:100D10000021FFF794FF75212046FFF7D7FF10BD94
:100D2000F8B5054600220189406801F0ECFB00247B
:100D3000AC7201222989686801F0E5FB012001F00D
:100D40006DFA22462989686801F0DDFB012001F077
:100D500065FA21462846FFF7B9FF012001F05EFA47
:100D600021462846FFF76BFF012211212846FFF795
:100D700045FF012001F052FA264695E01121284650
:100D8000FFF7A4FF07462D212846FFF79FFF002FFE
:100D900040F0988010F0100F00F09480472C02D0A3
:100DA000DB2C40F0A1800F224E212846FFF726FFC2
:100DB0001E2001F033FA00212846FFF740FF0722EA
:100DC00014212846FFF71AFF002313224C2128463E
:100DD000FFF78AFF06224F212846FFF70FFF062262
:100DE00050212846FFF70AFF0C23002251212846F4
:100DF000FFF77AFFFF23002252212846FFF774FFF6
:100E00001823002253212846FFF76EFF00230822F3
:100E100063212846FFF768FF10230022642128463B
:100E2000FFF762FF0023082265212846FFF75CFFD9
:100E300001212846FFF703FF032300220B21284648
:100E4000FFF752FF3F230C2211462846FFF74CFFC5
:100E500090220D212846FFF7D1FE80220E21284640
:100E6000FFF7CCFE02212846FFF7E9FE18220321F6
:100E70002846FFF7C3FE902204212846FFF7BEFE56
:100E8000802205212846FFF7B9FE00212846FFF7FA
:100E9000D6FE4FF06853EB60154B2B610020F8BD78
:100EA0000A2001F0BBF90136632E3FF777AF7521B9
:100EB0002846FFF70BFF044647283FF45FAFDB28C7
:100EC0003FF45CAF472CEBD0DB2CE9D076212846F1
:100ED000FFF7FCFE10F0070FE2D0FF23AB720021FA
:100EE0002846FFF7ACFEDBE74FF0FF30D7E700BF47
:100EF00000007A3D70B584B004460E460021FFF72D
:100F00009EFE00238DF80F3001F07CF905469DF818
:100F10000F3013F0080F11D10DF10F0301222D2115
:100F20002046FFF79BFE0028C0F28F8001F06AF98F
:100F3000401B0A28EBD96FF0010084E06B460E22BB
:100F40001D212046FFF78AFE0028C0F281809DF80F
:100F500000301B021BB29DF801201A439DF802309D
:100F60001B021BB29DF803100B4305EE103A9DF8CF
:100F700004301B021BB29DF805100B4305EE903A9E
:100F80009DF806301B021BB29DF807100B4306EEBE
:100F9000103A9DF808301B021BB29DF809100B4354
:100FA00006EE903A9DF80A301B021BB29DF80B101A
:100FB0000B4307EE103A9DF80C301B021BB29DF854
:100FC0000D100B4307EE903AD4ED034AB8EEC55A24
:100FD00025EE245A86ED005A94ED035AF8EEE55AB0
:100FE00065EE855AC6ED015AD4ED035AB8EEC66ACD
:100FF00026EE256A86ED026A94ED046AF8EEE66A4A
:1010000066EE866AC6ED036AD4ED046AB8EEC77A66
:1010100027EE267A86ED047A94ED047AF8EEE77AE4
:1010200067EE877AC6ED057A07EE902AF8EEE77A42
:10103000DFED096A87EEA67AF3EE097A77EE277A72
:10104000C6ED067A002004B070BD4FF0FF30FAE71D
:101050006FF00200F7E700BFE17A044350B1826805
:101060005AB1C26862B103690BB1002070474FF0FA
:10107000FF3070474FF0FF3070474FF0FF30704740
:101080004FF0FF307047A0F15003DBB2012B02D8C4
:101090000870002070476FF0020070472DE9F041A2
:1010A00006460D4690461C461846FFF7D7FF88B9FE
:1010B00007469DB1637D13B946F080031E46636801
:1010C000424629463046A568A847207550B938469B
:1010D000BDE8F0814FF0FF331F46F8E74FF0FF33D4
:1010E0001F46F4E76FF001031F46F0E738B108B57B
:1010F0000B46014601222820FFF7D0FF08BD4FF024
:10110000FF3070472DE9F04781460E4690461D4658
:101110001846FFF7A3FF28BB82463EB36C7D7CB91F
:1011200004EB09006B6801223119C0B2EF68B847BF
:1011300028750134E4B2444506D20028F0D003E01B
:10114000013CE4B2012C05D995F9143093B950460D
:10115000BDE8F087EC686B68424631464846A047D8
:101160002875F1E74FF0FF339A46F0E74FF0FF3371
:101170009A46ECE76FF001039A46E8E710B582B0B3
:101180000346044601220DF107013720FFF786FFD1
:1011900008B102B010BD9DF8073003F07F028DF852
:1011A000072003F0030343F070038DF80730234654
:1011B00001220DF107013720FFF7A4FF0028E8D135
:1011C000234601220DF107013120FFF767FF0028B8
:1011D000DFD19DF8073003F0C0038DF807302346B8
:1011E00001220DF107013120FFF78CFF0028D0D13B
:1011F000234601220DF107011820FFF74FFF0028B9
:10120000C7D19DF8073003F0FC038DF80730234663
:1012100001220DF107011820FFF774FFB9E730B57F
:1012200083B004460B460D4601220DF1070137201D
:10123000FFF734FF08B103B030BD9DF8073043F02D
:1012400080028DF8072023F0030363F07F0304F08E
:10125000030018438DF807002B4601220DF107010A
:101260003720FFF74FFFE6E730B583B004460B4663
:101270000D46022201A93020FFF710FF08B103B08C
:1012800030BD9DF80420A378DB0003F0080322F0B2
:1012900008021A438DF80420E3785B0103F0200371
:1012A00022F020021A438DF8042023799B0003F0DA
:1012B000040322F004021A438DF8042023788DF8E9
:1012C00005306278D20002F0380223F0380313436D
:1012D0008DF805302B46022201A93020FFF712FFBE
:1012E000CDE738B108B50B46014601222720FFF7AC
:1012F000D5FE08BD4FF0FF30704710B582B00446F0
:1013000001460DF10700FFF7F1FE90B99DF8073097
:1013100013F0020F0FD013F0040F0FD121460DF17F
:101320000600FFF7DEFF20B99DF8063013F0100F1E
:1013300007D002B010BD6FF00400FAE76FF00400B0
:10134000F7E76FF00400F4E710B582B00446FFF74A
:1013500085FE034618B92070627D1AB15BB118464C
:1013600002B010BD234601220DF107011046FFF720
:1013700095FE0346F2E7234601220DF106011046D1
:10138000FFF78CFE03460028E9D19DF8063063B1D3
:101390002046FFF7B2FF03460028E0D121469DF822
:1013A0000600FFF770FE0346D9E76FF00303D6E7A8
:1013B00070B582B004460D46134669460020009081
:1013C000ADF8040006221D20FFF768FE0646C8B9E6
:1013D0009DF802309DF80100000240EA03409DF8AC
:1013E0000030184340F31700FFF754F80022114B68
:1013F000FFF7BAF8FFF790FB6060AB78012B04D0E1
:1014000000232360304602B070BD9DF805209DF892
:1014100004301B0243EA02439DF803001843FFF720
:1014200029F80022044BFFF79FF8FFF775FB2060B7
:10143000E8E700BF0000F03E0000903F00283AD0EF
:1014400030B583B00D4604460B4601220DF107016D
:101450001520FFF723FE08B103B030BD9DF807301B
:10146000227802F0010223F001031A438DF80720CD
:1014700063785B0003F0020322F002021A438DF846
:101480000720A3789B0003F0040322F004021A4310
:101490008DF80720E378DB0003F0080322F0080250
:1014A0001A438DF807202B4601220DF10701152064
:1014B000FFF728FED0E74FF0FF307047F0B583B05C
:1014C00004460D4616461F464FF0000C8DF807C027
:1014D0008DF806C08DF805C0089B01220DF10701AB
:1014E0001420FFF7DBFD08B103B0F0BD089B01221B
:1014F0000DF106011520FFF705FE0028F4D1089B29
:1015000001220DF105012720FFF7C8FD0028EBD1CE
:101510009DF8072022F0010204F001031A438DF820
:1015200007206B0003F0020322F002021A438DF839
:101530000720B30003F0040322F004021A438DF8DD
:101540000720FB0003F0080322F008021A438DF87D
:101550000720089B01220DF107011420FFF7D2FD9F
:10156000C2E7D8B110B582B00B460446022201A9E9
:101570003620FFF793FD78B99DF8043003F0070299
:101580002270C3F3C2026270C3F38013A3709DF88C
:101590000530C3F38403E37002B010BD4FF0FF3099
:1015A0007047E8B110B582B00B460446022201A98B
:1015B0003020FFF773FD9DF80430C3F3C002A27022
:1015C000C3F34012E270C3F3800323719DF805302A
:1015D00003F007022270C3F3C203637002B010BDB0
:1015E0004FF0FF30704730B585B005460C460023FC
:1015F00002938DF80C3001930B4601220DF10F017F
:101600001820FFF74BFD9DF80F3003F003038DF812
:101610000F3080B19DF80730182B0AD99DF80F3094
:101620003BB99DF8083023B99DF809300BB9042364
:101630002B7005B030BD214601A8FFF792FF0028AE
:10164000E8D1214602A8FFF7ACFFE3E788B330B545
:1016500083B00D4604460B4601220DF107013720E9
:10166000FFF71CFD58B99DF8072002F00303022B79
:101670001CD009D883B1012B03D10123237003B0FF
:1016800030BD6FF00600FAE7032B02D1032323706D
:10169000F5E76FF00600F2E7D20902D000232370CD
:1016A000EDE729462046FFF79EFFE8E70223237077
:1016B000E5E74FF0FF30704770B582B006460C4644
:1016C0000DF10700FFF7C2FF054640B99DF807304E
:1016D00043B925B9032E11D873B2B3B9DEB9284680
:1016E00002B070BD2146FFF79AFD05460028F6D1ED
:1016F0002369616840F6C4109847EAE7042E0ED1CA
:101700002046FFF73BFD0546E9E721463046FFF757
:1017100086FD0546E3E76FF006031D46DFE76FF041
:1017200006031D46DBE710B582B0014604460DF105
:101730000700FFF78BFF18B99DF80730042B01D085
:1017400002B010BD21460020FFF7B6FFF8E730B524
:1017500083B00023ADF80430002843D00D46044682
:10176000C378172B04D80846FFF7DDFF034638B9C6
:101770002B46022201A93620FFF790FC034610B148
:10178000184603B030BD9DF80420237803F007030A
:1017900022F0070213438DF804306278D20002F081
:1017A000380223F0380313438DF80430A2789201F5
:1017B00002F0400223F0400313438DF804309DF8FB
:1017C0000530E278920002F07C0223F07C031343A0
:1017D0008DF805302B46022201A93620FFF792FC36
:1017E0000346CDE74FF0FF33CAE788B330B583B087
:1017F0000C46054603780BB9437823B12046FFF722
:1018000092FF034650B921460DF10700FFF71EFF76
:10181000034618B99DF807201AB93BB1184603B022
:1018200030BD2146FFF748FF0346F6E7214628462C
:10183000FFF71AFD03460028F0D19DF807000028A5
:10184000ECD00428EAD02146FFF736FF0346E5E74F
:101850004FF0FF331846704708B500F2E7330548EC
:10186000A0FB03208009B3F57A7F00D2012000F0AD
:10187000D5FC08BDD34D621000B585B00B4B93F875
:1018800000C04FF0FF33029392B201920091012306
:1018900002460CFA03F10648006801F06AF808B93C
:1018A00005B000BD6FF00100FAE700BFE8020020BC
:1018B000EC02002000B585B00B4B93F800C04FF050
:1018C000FF33029392B201920091012302460CFA77
:1018D00003F10648006801F01BF908B905B000BD26
:1018E0006FF00100FAE700BFE8020020EC020020E0
:1018F00080B191B10A4A11600A4A462111700A4921
:1019000081600A49C1600A49016101214175426053
:10191000002070474FF0FF3070474FF0FF307047A6
:10192000EC020020E8020020B51800087918000831
:10193000591800082DE9F0438BB005AD002405943B
:1019400006940794089409944FF0B043DA6C42F07F
:101950000402DA64DA6C02F004020492049ADA6C8B
:1019600042F00202DA64DA6C02F002020392039A95
:10197000DA6C42F00102DA64DA6C02F001020292DF
:10198000029ADA6C42F00802DA64DB6C03F00803B6
:101990000193019B1C4F01224FF40051384600F087
:1019A000B2FDDFF86C9001220221484600F0ABFD49
:1019B0004FF400530593012606960796089429468E
:1019C000384600F0BFFC05964FF48818CDF8188013
:1019D00007942946384600F0B5FC02230593069685
:1019E0000794032308932946484600F0ABFCC02324
:1019F0000593CDF8188007942946044800F0A2FC0E
:101A00000BB0BDE8F08300BF0008004800040048A8
:101A1000000C004808B51248124B0360124B43609B
:101A2000002383600122C260036143618361C3615B
:101A3000036200F03AFF50B90021094801F0F0F9C3
:101A400040B90021064801F018FA30B908BD00F08D
:101A500021F9F1E700F01EF9F3E700F01BF9F5E7D3
:101A6000F002002000540040B57DB11010B59CB0CC
:101A7000044600211791189119911A911B91502237
:101A800003A806F01FFF2268194B9A4201D01CB030
:101A900010BD042303934FF440330B9303A803F0CA
:101AA000E0F810BB4FF0B044E36C43F00203E36492
:101AB000E36C03F002030293029B4FF4407317930D
:101AC00012231893002319931A9304231B9317A925
:101AD000084800F037FCA36D43F40013A365A36D21
:101AE00003F400130193019BD1E700F0D3F8D9E789
:101AF000005400400004004810B582B00346084C72
:101B00000091084A4FF48071204606F065FE81B2CC
:101B1000204605F0E9F80A2000F080FB02B010BD75
:101B200044030020CCAA000830B587B04C494D488A
:101B3000FFF7DEFE044601464B48FFF7DDFF14B118
:101B4000204607B030BDB6238DF80B30454B01223F
:101B50000DF10B017E20FFF7D5FA044601464348FC
:101B6000FFF7CAFF002CEBD1052000F057FB2546FC
:101B7000022D0DDC3B48FFF7E7FB044601463C48DD
:101B8000FFF7BAFF24B10A2000F048FB0135EFE768
:101B9000002CD5D133492046FFF78EFD044601467F
:101BA0003448FFF7A9FF002CCAD12E493248FFF76D
:101BB000D8FC044601463148FFF79EFF002CBFD1F8
:101BC0002D480F23C3700123837006230370022363
:101BD00043702449FFF7BBFD044601462848FFF740
:101BE0008BFF002CACD101238DF810308DF8113013
:101BF0008DF812308DF813301A4904A8FFF7F5FD5F
:101C0000044601461F48FFF777FF002C98D1154B7B
:101C100000930123224619462046FFF74FFC044655
:101C200001461948FFF768FF002C89D1039401236E
:101C30008DF80C300B4903A8FFF700FC0446014661
:101C40001248FFF759FF002C7FF47AAF05490120B5
:101C5000FFF732FD044601460D48FFF74DFF6FE7E1
:101C6000F002002050040020DCAA0008F0AA0008BE
:101C700004AB000810AB00084C04002024AB0008A3
:101C800034AB000844AB000854AB000868AB000854
:101C90007CAB000872B6FEE730B59BB008AD4822B9
:101CA0000021284606F00EFE0024019402940394BD
:101CB000049405940694079402F01EF94FF0B04284
:101CC000D2F8903023F0180343F01003C2F890309C
:101CD00002F58062136823F4C06343F40073136059
:101CE000136803F4C0630093009B272308934FF409
:101CF0008033099301230A934FF480720B920F9360
:101D000040220C921094602211920222139214939A
:101D10001594202316934FF4003317934FF000537C
:101D200019934FF000731893284602F0F5F988B91B
:101D30006F23019303210291039004900590802268
:101D40000692079001A802F075FD28B903F00BF97F
:101D50001BB030BDFFF79EFFFFF79CFF10B594B09E
:101D600050220021684606F0ADFD4FF40053009369
:101D700010231393684602F074FF08B914B010BD25
:101D8000FFF788FF2DE9F04186B000F017FAFFF762
:101D900083FFFFF7E3FFFFF7CDFDFFF73BFE00F00A
:101DA0008DF904F0D5FC4FF4FA6000F037FAAD4B32
:101DB000AD4A07CA83E807000B21184604F094FFD8
:101DC0000A2000F02BFA0824002501E00134E4B2D7
:101DD000772C19D80A2302226100A44800F06CFF76
:101DE0000028F3D19F4E2346A14A4FF4807130461C
:101DF00006F0F2FC0C21304604F076FF0A2000F0D9
:101E00000DFA0135EDB2E1E7002D00F09B80954C15
:101E10002B46984A4FF48071204606F0DDFC81B2D3
:101E2000204604F061FF0A2000F0F8F9924FDFF835
:101E30008882C7F80080914E7E6002253D81F5239F
:101E4000ADF810304FF6FF73ADF81430002229467C
:101E5000304600F058FB642300932B4605AA04A9E2
:101E6000404603F008FB804601222946304600F038
:101E70004AFB9DF810309DF811209DF814109DF834
:101E80001500039002910192009343467C4A4FF45F
:101E90008071204606F0A0FC81B2204604F024FFA9
:101EA0000A2000F0BBF900222946304600F02BFB47
:101EB000012000F0B3F91021724800F01DFB8046AC
:101EC00001222946304600F01EFB43466E4A4FF47D
:101ED0008071204606F080FC81B2204604F004FFA9
:101EE0000A2000F09BF93846FEF71AFF0546002845
:101EF0003AD03846FEF70AFF06465A4C00962B4663
:101F0000624A4FF48071204606F066FC81B220469A
:101F100004F0EAFE0A2000F081F95D4C00224FF443
:101F20000051204600F0EFFA642000F077F901221A
:101F30004FF40051204600F0E6FA40F2DC5000F089
:101F40006DF9DAE7474F3C46524E0FCE0FC496E884
:101F5000030044F8040B21801521384604F0C4FE28
:101F60000A2000F05BF952E73E4E4B4B34460FCB54
:101F700007C423800D21304604F0B6FE0A2000F08D
:101F80004DF9FFF7D1FD0646C8B3364C3346434AF8
:101F90004FF48071204606F01FFC81B2204604F009
:101FA000A3FE0A2000F03AF92C467342A34204DC57
:101FB00040F2DC5000F032F9E7E7354F00224FF4F1
:101FC0000051384600F09FFA642000F027F9012202
:101FD0004FF40051384600F096FA642000F01EF9E4
:101FE0000134E2E716212E4804F07EFE0DE04FF4A6
:101FF0000051274800F08CFA642000F00FF92949BD
:102000001D48FEF777FF0028ECD000238DF8143030
:10201000254905A8FFF765F90028E8D19DF8143097
:1020200013F0010FE3D0204A20492148FFF7C0F9FF
:102030000028DCD11E4B1D680A4C5868FEF73CFA9C
:10204000CDE902012846FEF737FACDE90001194A29
:102050004FF48071204606F0BFFB81B2204604F0A9
:1020600043FEC4E74403002090AB0008F0020020C8
:102070009CAB0008C4AB000884040020000C00489E
:10208000E0AB0008000400481CAC00083CAC0008B1
:1020900000080048ACAB000868AC000878AC000849
:1020A00090AC000868040020500400204C0400207C
:1020B00044040020A8AC00089804002008B510488B
:1020C000104B03604FF482734360002383604FF42E
:1020D000E062C260036143614FF4007282610822D2
:1020E000C2610362436283620721C1620363426388
:1020F00003F04DF800B908BDFFF7CCFDFBE700BFCA
:10210000980400200030014000B589B000230393FB
:1021100004930593069307930268124B9A4201D0E9
:1021200009B000BD4FF0B0431A6E42F480521A66F7
:102130001A6E02F480520292029ADA6C42F00202A3
:10214000DA64DB6C03F002030193019B38230393F1
:10215000022304930523079303A9034800F0F2F830
:10216000DEE700BF0030014000040048114B1B783F
:102170000BB90120704710B5044601F0BDFF0D4BAF
:102180001A784FF47A73B3FBF2F3B0FBF3F000F07C
:10219000C5F868B90F2C01D901200AE00246214692
:1021A0004FF0FF3000F0A6F8034B1C60002000E069
:1021B000012010BD080000200C00002010B50A4AC4
:1021C000136843F480731360032000F081F80F203C
:1021D000FFF7CCFF18B101231C46204610BD044672
:1021E00000F076FEF9E700BF00400058034B1B7873
:1021F000034A11680B441360704700BF08000020B9
:10220000FC040020014B1868704700BFFC0400204C
:10221000014B1868704700BF0C00002038B5044619
:10222000FFF7F0FF0546B4F1FF3F02D0044B1B78E7
:102230001C44FFF7E7FF401BA042FAD338BD00BFA4
:1022400008000020002807DB00F01F0240090123DE
:102250009340024A42F82030704700BF00E100E09E
:10226000002808DB0901C9B200F1604000F56140B7
:1022700080F80013704700F00F000901C9B2014B4C
:102280001954704714ED00E000B500F00700A0F10C
:10229000030CBCF1040F07D8C0F1070E0430062868
:1022A00006D84FF0000C03E04FF0040E4FF0000C86
:1022B0004FF0FF3303FA0EF021EA000101FA0CF1AE
:1022C00003FA0CF322EA030241EA020000BD000017
:1022D000074AD36823F4E0631B041B0C000200F4DC
:1022E000E060034343F0BF6343F40033D3607047BF
:1022F00000ED00E010B50446054BD868C0F302209D
:10230000FFF7C2FF01462046FFF7AAFF10BD00BF3E
:1023100000ED00E008B5FFF795FF08BD0138B0F10A
:10232000807F0BD24FF0E0235861054AF02182F8FC
:1023300023100020986107221A617047012070471E
:1023400000ED00E070B58646002367E0DEF8084047
:102350005D000320A84024EA0004C868A840204388
:10236000CEF80800DEF8044024EA0C044868C0F304
:10237000001098402043CEF8040060E0DC080834E8
:102380005EF8240003F00705AD004FF00F0C0CFAC7
:1023900005FC20EA0C0C0869A84040EA0C004EF845
:1023A000240062E0042000E0002000FA0CF0284342
:1023B00002344E4D45F824004D480468D04324EAC9
:1023C00002054E6816F4801F01D042EA0405484C0D
:1023D0002560646800EA04054E6816F4001F01D009
:1023E00042EA0405424C6560D4F8804000EA0405E6
:1023F0004E6816F4803F01D042EA04053C4CC4F814
:102400008050D4F8844020404D6815F4003F01D03E
:1024100042EA0400364AC2F8840001330A6832FAFC
:1024200003F061D04FF0010C0CFA03FC1CEA02022D
:10243000F3D0486800F003000138012886D94868C5
:1024400000F0030003280BD0DEF80C405D000320F1
:10245000A84024EA00048868A8402043CEF80C0075
:10246000486800F00300022888D0DEF800005C0015
:102470004FF0030C0CFA04FC20EA0C0C486800F046
:102480000300A04040EA0C00CEF80000486810F4B9
:10249000403FC2D09C08A51C144850F8255003F0BA
:1024A000030C4FEA8C0C0F2000FA0CF025EA000513
:1024B000BEF1904F3FF478AF0E4886450ED000F540
:1024C000806086450CD000F5806086450AD000F516
:1024D000806086453FF466AF072066E7012064E729
:1024E000022062E7032060E770BD00BF00000140EA
:1024F00000080058000400480369194201D0012077
:102500007047002070470AB181617047816270474F
:10251000436901EA030221EA030141EA02418161C0
:10252000704703689A6912F0020F01D000229A6284
:1025300003689A6912F0010F03D19A6942F001020F
:102540009A617047DDF800C0C1F3090141EA024118
:10255000194341EA0C0121F00041026853684FEA37
:102560005C5C0CF4806C4CF07F7C4CF4583C4CF47C
:102570007F7C4CF0030C23EA0C030B435360704741
:102580002DE9F041044603689E6916F010067CD0E0
:102590000D4690461022DA61002637462368986976
:1025A00010F0200F30D17FBBB5F1FF3FF6D0FFF721
:1025B00029FE4346C01AA84201D8002DEED1216859
:1025C0004B6803F4804394F84220D2B2886910F437
:1025D000004F02D00BB9202A0ED123689B6913F05B
:1025E000200FDBD1FFF70EFE4346C01A1928F4D99D
:1025F00046F020060127D1E74B6843F480434B6047
:10260000FFF700FE8046E8E70FB92022DA6146F0C6
:10261000040601252268936913F4807F05D046F0F3
:1026200001064FF48071D161012513F4806F06D04B
:1026300046F0080622684FF48061D161012513F449
:10264000007F24D046F0020623684FF40072DA615E
:1026500001252046FFF765FF2268536823F0FF73CA
:1026600023F48B3323F4FF7323F001035360636C73
:1026700033436364202384F84130002384F84230DC
:1026800084F840302846BDE8F0810025C2E7002DDF
:10269000F8D0DEE770B504460D46164623689B6900
:1026A00013F0020F22D1324629462046FFF768FF79
:1026B000F0B9B5F1FF3FF1D0FFF7A4FD801BA842B0
:1026C00001D8002DEAD123689B6913F0020FE5D1F0
:1026D000636C43F020036364202384F841300023BB
:1026E00084F8423084F84030012000E0002070BDC2
:1026F0000120FCE72DE9F04104460F4616461D4631
:10270000DDF8188023689B6937EA03030CBF0123B7
:102710000023B34227D1424629462046FFF730FF27
:1027200020BBB5F1FF3FEDD0FFF76CFDA0EB08003B
:10273000A84201D8002DE5D123689B6937EA03033D
:102740000CBF01230023B342DCD1636C43F02003B0
:102750006364202384F84130002384F8423084F8F5
:102760004030012000E00020BDE8F0810120FBE7BF
:1027700070B582B0044616461D46184B00934FF0C4
:102780008073EAB2FFF7DEFE079A06992046FFF74C
:1027900081FFE0B9012D0DD12368F2B29A62079B47
:1027A0000093069B002280212046FFF7A3FF90B9EB
:1027B00002B070BD330A22689362079A06992046D8
:1027C000FFF768FF28B92368F2B29A62E7E70120B1
:1027D000EEE70120ECE70120EAE700BF00200080DF
:1027E00070B582B0044616461D46174B0093002371
:1027F000EAB2FFF7A7FE079A06992046FFF74AFFBD
:10280000E0B9012D0DD12368F2B29A62079B0093C3
:10281000069B002240212046FFF76CFF90B902B0D2
:1028200070BD330A22689362079A06992046FFF723
:1028300031FF28B92368F2B29A62E7E70120EEE798
:102840000120ECE70120EAE70020008070B5044693
:102850000D46164604E023689B6913F0200F12D042
:1028600023689B6913F0200F1BD13246294620466E
:10287000FFF786FEB8B9FFF7C5FC801BA842EAD86F
:10288000002DEDD1E7E7636C43F020036364202360
:1028900084F84130002384F8423084F8403001202D
:1028A00000E0002070BD0120FCE700285FD010B5DB
:1028B000044690F84130002B48D0242384F841305E
:1028C0002268136823F0010313606368226823F011
:1028D000706313612268936823F400439360E36894
:1028E000012B38D0A368226843F404439360E36863
:1028F000022B36D02268536823F4006353602268A9
:10290000536843F0007343F4004353602268D36874
:1029100023F40043D360236962691343A1692268E9
:1029200043EA0123D360E369216A22680B43136001
:102930002268136843F001031360002060642023C1
:1029400084F84130206384F8420010BD80F84030A4
:10295000FFF78CF8B1E7A368226843F40043936063
:10296000C5E72268536843F400635360C7E701205A
:1029700070472DE9F04383B00E469846BDF82C30E1
:1029800090F84110202940F0B78004461746994638
:102990000A9ABAB1B3B190F84030012B00F0B08080
:1029A0004FF0010380F84030FFF72CFC0546009003
:1029B000192301224FF400412046FFF79BFE30B15E
:1029C00001209AE04FF400736364012095E0212315
:1029D00084F84130402384F8423060640A9A62628D
:1029E000A4F82A90606301950C9B009343463A46F5
:1029F00031462046FFF7BCFE68B9638D9BB2FF2BC2
:102A00000ED9FF22228500904FF080733146204678
:102A1000FFF798FD21E0002384F8403001206CE0AE
:102A2000628D92B22285002300934FF00073D2B2E0
:102A300031462046FFF786FD0FE0628D92B2228577
:102A4000002300934FF00073D2B231462046FFF7C7
:102A500079FD638D9BB2002B32D02A460C9920461B
:102A6000FFF718FE00284DD1626A236812789A6237
:102A7000636A01336362638D9BB2013B9BB26385E2
:102A8000238D013B9BB22385628D92B2002AE0D058
:102A9000002BDED100950C9B024680212046FFF7DB
:102AA00029FE88BB638D9BB2FF2BC6D9FF222285EE
:102AB00000904FF0807331462046FFF743FDC8E792
:102AC0002A460C992046FFF7C1FEF8B92368202258
:102AD000DA6121684B6823F0FF7323F48B3323F40E
:102AE000FF7323F001034B6084F84120002384F836
:102AF000423084F8403000E0022003B0BDE8F083AB
:102B00000220FAE70120F8E70120F6E70120F4E7C8
:102B10002DE9F04383B00E469846BDF82C3090F86E
:102B20004110202940F0B9800446174699460A9A78
:102B3000BAB1B3B190F84030012B00F0B2804FF041
:102B4000010380F84030FFF75DFB05460090192334
:102B500001224FF400412046FFF7CCFD30B10120A7
:102B60009CE04FF400736364012097E0222384F813
:102B70004130402384F8423060640A9A6262A4F8CB
:102B80002A90606301950C9B009343463A46314678
:102B90002046FFF725FE70B9638D9BB2FF2B0FD93E
:102BA000FF222285434B00934FF08073314620462D
:102BB000FFF7C8FC21E0002384F8403001206DE0DD
:102BC000628D92B222853B4B00934FF00073D2B2DC
:102BD00031462046FFF7B6FC0FE0628D92B22285A7
:102BE000002300934FF00073D2B231462046FFF726
:102BF000A9FC638D9BB2002B33D000950C9B002267
:102C000004212046FFF776FD00284CD123685A6A3C
:102C1000636A1A70636A01336362228D013A92B269
:102C20002285638D9BB2013B9BB26385638D9BB212
:102C3000002BDED0002ADCD100950C9B80212046A1
:102C4000FFF758FD88BB638D9BB2FF2BC5D9FF22D0
:102C5000228500904FF0807331462046FFF772FCCA
:102C6000C7E72A460C992046FFF7F0FDF8B923681C
:102C70002022DA6121684B6823F0FF7323F48B3341
:102C800023F4FF7323F001034B6084F841200023F9
:102C900084F8423084F8403000E0022003B0BDE800
:102CA000F0830220FAE70120F8E70120F6E701208F
:102CB000F4E700BF002400802DE9F04385B01C46F6
:102CC0000023039390F84130202B40F0A380054669
:102CD0008846174603689B6913F4004F40F09C80B8
:102CE00090F84030012B00F09980012380F84030AB
:102CF000242380F8413000234364994645E0C8F31B
:102D0000090343F0007343F4005347E02A689369D2
:102D1000C3F340139269C2F30012C3B9BAB9B4F154
:102D2000FF3FF3D0FFF76EFA801BA04201D8002CC2
:102D3000ECD1202385F841306B6C43F020036B64A9
:102D4000002385F84030012005B0BDE8F0832B68F2
:102D50009A6912F0100F3DD10096234600222021DF
:102D60002846FFF7C7FC60B36B6C042B23D001230C
:102D70009946039B01330393039BBB4202D24B460C
:102D8000002B38D1039BBB4238D2EB68012BB6D065
:102D9000C8F3090343F0007343F420532A685360D7
:102DA000FFF730FA06462A689369C3F34013926925
:102DB000C2F30012B1E72B682022DA6100236B64B2
:102DC000D7E72A682023D36185F84130002385F8AE
:102DD0004030B9E71022DA61009623460022202114
:102DE0002846FFF787FC18B92B682022DA61C0E774
:102DF00001239946BDE700239946C3E7202385F8C0
:102E000041306B6C43F020036B64002385F8403045
:102E1000012099E7022097E7022095E7022093E737
:102E2000034690F84120202A23D190F84020012A1F
:102E300021D0012280F84020242280F8412000681F
:102E4000026822F0010202601868026822F48052CF
:102E50000260186802680A43026019680A6842F052
:102E600001020A60202283F84120002083F84000FC
:102E700070470220704702207047034690F84120B7
:102E8000202A21D190F84020012A1FD0012280F869
:102E90004020242280F841200068026822F00102CC
:102EA00002601868026822F4706242EA012202603D
:102EB00019680A6842F001020A60202283F8412062
:102EC000002083F8400070470220704702207047BE
:102ED000704710B512F4804F45D00468B4F85030F4
:102EE00091F800C04FEACC0E1EFA83F32344B3F8E6
:102EF0000244C4F309048B69A3422AD31B1B8B61D0
:102F00008B6983B9D0F800E03EF82C309BB223F4F3
:102F1000804323F0700383F4005343F4004343F0F1
:102F200080032EF82C3012F0400F0FD0026891F879
:102F300000C032F82C309BB223F4E04323F070033E
:102F400043F4004343F0C00322F82C3024B9204658
:102F500010BD00238B61D3E723460A8949690068C5
:102F600003F04EFBF3E70468B4F8503091F800C06A
:102F70004FEACC0E1EFA83F32344B3F80644C4F39D
:102F800009048B69A34230D31B1B8B618B6983B906
:102F9000D0F800E03EF82C309BB223F4804323F0BD
:102FA000700383F4005343F4004343F080032EF88E
:102FB0002C3012F0400F0FD1026891F800C032F8A7
:102FC0002C309BB223F4E04323F0700343F400431E
:102FD00043F0C00322F82C30002CB8D023464A8995
:102FE0004969006803F00CFBB1E700238B61CDE772
:102FF000002856D010B5044690F891323BB1032317
:1030000084F89132206802F0DAFB002315E080F8A2
:10301000903203F08DFEF2E703EB830204EBC20271
:103020000121517413740021D17411625162013372
:1030300003EB8302D200A150DBB220799842EBD897
:10304000002316E003EB830204EBC202002182F8A6
:10305000511182F8503182F85311C2F86011C2F850
:10306000641103EB830204EBC202C2F8681101335E
:10307000DBB29842E6D8234653F8040B93E80600E7
:1030800002F0A8FB00232373012384F89132A37A72
:10309000012B01D0002010BD204600F016FF0020BB
:1030A000F9E70120704790F89032012B0ED010B54F
:1030B0000446012380F89032006802F077FB206814
:1030C00002F0B6FF002084F8900210BD0220704785
:1030D00070B505460C46164612F0400F00F01F81F1
:1030E0000268B2F8503009784FEAC10C1CFA83F339
:1030F0001344B3F80224C2F30902A36993422CD902
:103100009B1AA361A06958B316F4804F0DD02868AC
:1031100030F821309BB223F4E04323F0700343F4F2
:10312000404343F0800320F8213094F82430012BF1
:1031300000F08D802A68217832F821309BB223F488
:10314000E04323F0400383F0300343F4004343F0B3
:10315000800322F82130002070BD0023A361D1E755
:103160006378002B48D12A68B2F8503012FA83F302
:103170006344B3F80224C2F30902A3F80224B3F8AB
:1031800002246FEA42426FEA524292B2A3F802244A
:103190002A686378002B3BD1B2F8503012FA83F3DF
:1031A000227803EBC203B3F80624C2F30902A3F8A2
:1031B0000624B3F806246FEA42426FEA524292B202
:1031C000A3F80624E378022B2FD02178284603F0B9
:1031D0001FFE16F4804FBED02A68217832F82130C5
:1031E0009BB223F4E04323F0700343F4404343F0E5
:1031F000800322F82130AEE7012BC9D12A68B2F84A
:10320000503012FA83F363440022A3F80224BFE78C
:10321000012BD7D1B2F8503012FA83F3227803EBA6
:10322000C2030022A3F80624CCE72A68217832F8EA
:1032300021309BB223F4E04323F0400383F02003CA
:1032400043F4004343F0800322F82130BDE7636973
:1032500013446361E3691344E361216A236999427A
:103260001DD3C91A21626278002A43D12968B1F8B6
:10327000502011FA82F2217802EBC102B2F8021456
:10328000C1F30901A2F80214A3B9B2F802146FEA5B
:1032900041416FEA514189B2A2F802142CE019B9F8
:1032A00084F824101346DEE7002384F824302362D8
:1032B0000B46D8E73E2B0DD8590813F0010F00D06C
:1032C0000131B2F8020480B2890289B20143A2F846
:1032D000021411E0580913F01F0F00D10138B2F8A1
:1032E000021489B2800280B2014341F40041A2F885
:1032F000021401E0012A06D09BB222896169286884
:1033000002F0A5FE16E72968B1F8502011FA82F202
:10331000217802EBC10299B2A2F80214ECE702682C
:10332000B2F850300978C80010FA83F31344B3F8A8
:103330000624C2F30902A369934246D39B1AA361F0
:10334000A369002B44D016F4804F0DD1286830F8C3
:1033500021309BB223F4E04323F0700343F4404355
:1033600043F0800320F8213094F82430012B7FF4BF
:10337000E1AE636913446361E3691344E361216A65
:1033800023699942C0F09C80C91A21622968627839
:10339000002A40F0C080B1F8502011FA82F2217862
:1033A00002EBC102B2F80614C1F30901A2F8061437
:1033B000002B40F09080B2F806146FEA41416FEAAA
:1033C000514189B2A2F80614A7E00023A361B7E730
:1033D0006378002B49D12A68B2F8503012FA83F38F
:1033E0000344B3F80224C2F30902A3F80224B3F899
:1033F00002246FEA42426FEA524292B2A3F80224D8
:103400002A686378002B3CD1B2F8503012FA83F36B
:10341000227803EBC203B3F80624C2F30902A3F82F
:103420000624B3F806246FEA42426FEA524292B28F
:10343000A3F80624E378022B30D02178284603F045
:10344000E7FC16F4804F7FF486AE2A68217832F8C4
:1034500021309BB223F4E04323F0700343F4404354
:1034600043F0800322F8213075E6012BC8D12A6889
:10347000B2F8503012FA83F303440022A3F8022476
:10348000BEE7012BD6D1B2F8503012FA83F322787E
:1034900003EBC2030022A3F80624CBE72A682178B5
:1034A00032F821309BB223F4E04323F0400383F051
:1034B000200343F4004343F0800322F82130BCE7AB
:1034C00019B984F82410134660E70023236284F8B6
:1034D00024300B465AE73E2B0DD8590813F0010F44
:1034E00000D00131B2F8060480B2890289B20143EA
:1034F000A2F8061411E0580913F01F0F00D101388B
:10350000B2F8061489B2800280B2014341F400414E
:10351000A2F8061401E0012A06D09BB26289616913
:10352000286802F094FD05E6B1F8502011FA82F205
:10353000217802EBC10299B2A2F80614EDE72DE959
:10354000F041054653E003889BB223F4E14323F0A6
:1035500070036FEA43436FEA53439BB203802968C9
:10356000B1F850302A7CD20012FA83F30B44B3F83E
:103570000234C3F30903EB626A6A1A446A620021E7
:10358000284603F045FC2B7B8BB3AB6A7BBB2B7BC4
:103590002A6843F08003A2F84C3000232B7326E006
:1035A00003889BB223F4804323F0700383F4805399
:1035B00048F280010B4303802A6813889BB223F4EE
:1035C000E04323F0400383F010030B4313802A6889
:1035D00013889BB223F070031B051B0D43F080037F
:1035E00013800020BDE8F08112F4004F37D1286825
:1035F000B0F8443013F4004FF3D0B0F84440A3B215
:1036000014F00F0466D113F0100F9CD003889AB207
:1036100013F4006FE8D0B0F8503095F85021D20084
:1036200012FA83F30344B3F80634C3F30903C5F86D
:103630006C31082BB4D1B5F8562105F5267102F08E
:10364000DFFF2A6813889BB223F070031B051B0D54
:1036500043F080031380284603F0C6FBC7E70388C6
:103660009BB223F070031B051B0D43F08003038006
:103670002868B0F8503095F85021D20012FA83F340
:103680000344B3F80634C3F30903C5F86C316BB9CE
:1036900003889BB223F4804323F0700383F44053E8
:1036A00043F4004343F080030380A0E7D5F864119E
:1036B00000299CD0B5F8562102F0A2FFD5F864315C
:1036C000D5F86C211344C5F864310021284603F075
:1036D00093FB8CE730F824309EB213F4004F4DD1A9
:1036E00016F0800F83D004EB8401C9001031294407
:1036F0002A6832F824309BB223F4E14323F07003AC
:103700006FEA43436FEA53439BB222F8243004EB41
:10371000840305EBC303DB7C012B00F0F18016F47E
:10372000807F40F088812868B0F8503004EB840234
:1037300005EBC202167CF20012FA83F30344B3F8DD
:103740000234C3F30903621C02EB820255F83220F3
:103750009A4240F25381671C07EB8707D21A45F85B
:103760003720621C02EB820255F83220002A40F01A
:103770004C813146284603F04BFB38E730F82430C3
:103780009BB223F070031B051B0D43F0800320F850
:10379000243004EB8401C90001F5A87105EB010890
:1037A00004EB840305EBC30393F85C31DBBB2868AF
:1037B000B0F8503004EB840205EBC20292F85021BD
:1037C000D20012FA83F30344B3F80674C7F309076F
:1037D000EFB904EB840305EBC303D3F86C213A443F
:1037E000C3F86C21D3F868313BB104EB840305EBDB
:1037F000C303D3F860319F4270D204EB840305EB1E
:10380000C30393F85011284603F0F6FA68E704EB77
:10381000840105EBC1013B46B1F85621D1F8641192
:1038200002F0EEFED5E704EB840305EBC30393F847
:103830005331022B33D0296804EB840205EBC2021A
:1038400092F8500131F820309BB223F4E04323F08A
:10385000700343F4004343F0C00321F8203028688C
:1038600092F8503130F8232012F4804F1ED0B0F877
:103870005020DB0013FA82F30344B3F80274C7F359
:103880000907002FA5D004EB840105EBC1013B46DD
:10389000B1F85821D1F8641102F0B2FE99E732462E
:1038A00041462846FFF715FB074692E7B0F850203F
:1038B000DB0013FA82F30344B3F80674C7F3090775
:1038C000002F86D004EB840105EBC1013B46B1F823
:1038D0005A21D1F8641102F093FE7AE704EB8403D5
:1038E00005EBC303D3F8642104EB840305EBC303A6
:1038F0003A44C3F864214146286802F0BAFBEFE677
:10390000631C03EB8303DB000022EA5004EB840317
:1039100005EBC3031B7F1BB316F0400F3BD004EB3A
:10392000840305EBC3035B7C1BBB2A68B2F85030F1
:1039300012FA83F304EB840205EBC202127C03EB60
:10394000C203B3F80224C2F30902A3F80224B3F8B5
:1039500002246FEA42426FEA524292B2A3F8022472
:1039600004EB840405EBC404217C284603F050FAE0
:103970003DE6012BF4D12A68B2F8503012FA83F3F5
:1039800004EB840205EBC202127C03EBC2030022AB
:10399000A3F80224E4E72A6804EB840305EBC303DD
:1039A0005B7CD3B9B2F8503012FA83F304EB840293
:1039B00005EBC202127C03EBC203B3F80624C2F388
:1039C0000902A3F80624B3F806246FEA42426FEA1C
:1039D000524292B2A3F80624C2E7012BC0D1B2F83A
:1039E000503012FA83F304EB840205EBC202127C1E
:1039F00003EBC2030022A3F80624B1E7621C02EB2A
:103A00008202D2000027AF50ABE604EB840205EB44
:103A1000C202566A1E445662013404EB840205EB6E
:103A2000C202526804EB840405EBC40413446360CF
:103A300002F01FFBDBE532462846FFF749FBD6E5DF
:103A400090F89032012B0CD010B50446012380F879
:103A500090320173006802F0E5FA002084F89002C9
:103A600010BD0220704710B50446006802F0EBFA62
:103A700010F4004F23D110F4806F24D110F4804F44
:103A800032D110F4005F39D110F4805F40D110F4CE
:103A9000006F67D110F0800F40F0818010F4007F3C
:103AA00040F0AD8010F4807F27D02268B2F8443017
:103AB0009BB223F480739BB2A2F844301DE02046F1
:103AC000FFF73DFD19E02268B2F844309BB223F4C1
:103AD00080639BB2A2F84430204603F0AAF900218B
:103AE0002046FFF7ADFF08E02268B2F844309BB2F1
:103AF00023F480439BB2A2F8443010BD2268B2F890
:103B000044309BB223F400539BB2A2F84430F4E754
:103B10002268B2F840309BB223F004039BB2A2F8B3
:103B200040302268B2F840309BB223F008039BB2C9
:103B3000A2F8403094F8C832012B0CD0204603F094
:103B40009BF92268B2F844309BB223F480539BB2B5
:103B5000A2F84430D1E7002184F8C812204603F0CF
:103B600047FAEBE72268B2F840309BB243F0080313
:103B7000A2F840302268B2F844309BB223F40063CC
:103B80009BB2A2F844302268B2F840309BB243F0B6
:103B90000403A2F84030204603F05EF9ADE7226846
:103BA000B2F844309BB223F080039BB2A2F84430B9
:103BB00094F8C832FBB92268B2F840309BB243F0A7
:103BC0000403A2F840302268B2F840309BB243F0C0
:103BD0000803A2F84030012184F8C8122368B3F822
:103BE0005430C3F38D0303F03C03C4F8CC322046B9
:103BF00003F0FEF981E7204603F02EF97DE7226805
:103C0000B2F844309BB223F400739BB2A2F8443064
:103C1000204603F008F970E710B50446084611F095
:103C2000800F27D101F0070C0CEB8C01C90001F5C6
:103C3000A87E04EB0E010CEB8C0C04EBCC0C4FF0CB
:103C4000000E8CF851E100F007000870C2F30A0280
:103C50000A61CB70022B1DD094F89032012B1CD03E
:103C6000012384F89032206801F0C5FD002084F81B
:103C7000900210BD01F0070C0CEB8C01C900103153
:103C800021440CEB8C0C04EBCC0C4FF0010E8CF8A7
:103C900011E0D8E700230B71DEE70220E9E710B559
:103CA00004460A4611F0800F1FD101F0070000EB17
:103CB0008003DB0003F5A873E11800EB800004EB40
:103CC000C000002380F8513102F007020A7094F816
:103CD0009032012B17D0012384F89032206802F033
:103CE00043F8002084F8900210BD01F0070000EBBB
:103CF0008003DB001033E11800EB800004EBC00010
:103D000001234374E0E70220EEE710B501F0070C51
:103D10000CEB8C01C90001F5A8710CEB8C0E00EBCB
:103D2000CE0ECEF86421CEF868310024CEF86C4176
:103D30008EF851418EF850C10144006802F099F9A3
:103D4000204610BD01F0070101EB810100EBC1002D
:103D5000D0F86C01704738B501F0070C0CEB8C0102
:103D6000C90010310CEB8C0E00EBCE0ECEF82420E7
:103D70000CF1010202EB820440F8343001258EF888
:103D80003450CEF8303000EBC402002454608EF87A
:103D900011508EF810C00144006802F06AF9204604
:103DA00038BD0B4601F00702017991422ED310B5C0
:103DB000044613F0800F1DD103EB8301C90001F508
:103DC000A871014403EB830300EBC303002083F8D5
:103DD000510101238B700A7094F89032012B17D097
:103DE000012384F89032206802F0A9F8002084F8BA
:103DF000900210BD02EB8201C9001031014402EBB8
:103E0000820300EBC30301205874E2E701207047EE
:103E10000220EEE70B46017903F00F02914234D302
:103E200010B5044613F0800F21D103F0070202EB16
:103E30008201C90001F5A871014402EB820200EB86
:103E4000C202002082F8510100228A7003F00703A9
:103E50000B7094F89032012B19D0012384F8903222
:103E6000206802F091F8002084F8900210BD03F061
:103E7000070202EB8201C9001031014402EB820209
:103E800000EBC20201205074DEE7012070470220DF
:103E9000ECE711F0800F0BD001F0070101EB81017D
:103EA000C9001031084452B90273C3800020704722
:103EB00001EB8101C90001F5A8710844F3E7012273
:103EC000027303811B0C4381F0E703460268012162
:103ED000C0F8D012002083F8C802B2F854309BB268
:103EE0000B43A2F85430B2F854309BB243F00203B3
:103EF000A2F8543070470000024A136843F48073FC
:103F00001360704700040058024B186800F4C0604A
:103F1000704700BF00040058024A536843F48063AE
:103F2000536070470004005830B58DB004468E468B
:103F3000DFF8B0C09CE80F000CAD05E90F0005AB41
:103F40000CF1100207CA83E8070001AD0CF11C0C4C
:103F50009CE80F0085E80F00BEF5007F07D0002326
:103F600014E00CAA02EB830353F82C5C1EE0002340
:103F7000032B08D80CAA02EB830252F8102CA242A1
:103F8000EFD20133F4E7002510E00133022B0CD807
:103F90000CAA02EB830252F81C2CA242F5D30CAA05
:103FA00002EB830353F82C5C00E000250C4A1368F5
:103FB00023F007032B431360FEF724F90446084B54
:103FC0001B6803F00703AB4206D0FEF71BF9001B8A
:103FD0000228F4D9032000E000200DB030BD00BF5E
:103FE00000400058A0AA000810B5B02818D90F4BFF
:103FF000DB6A4FF0B042D2F8082102F00F020C4900
:1040000051F82220B3FBF2F30A4AA2FB03239B0CD4
:104010001C46FFF779FF01462046FFF785FF10BDDC
:10402000C0F30310014B53F82030E2E708AD00085D
:1040300048AD000883DE1B434FF0B0439B6813F08C
:104040000C030DD14FF0B0431B6803F0F003B02B0D
:1040500004D81B09254A52F823007047B023F8E71B
:10406000042B3ED0082B10D04FF0B043DB6803F098
:104070000303022B31D0032B0FD14FF0B0431B6849
:1040800013F4801F2BD11A4812E04FF0B0431B6885
:1040900013F4801F27D0174870474FF0B0431B68B8
:1040A00003F0F003B02B16D81B09104A52F8230076
:1040B0004FF0B042D368C3F3062303FB00F0D3688C
:1040C000C3F302130133B0FBF3F0D3685B0F01338A
:1040D000B0FBF3F07047B023E6E70648E8E7054891
:1040E000E6E7044870470248704700BF08AD000883
:1040F0000048E8010024F40008B5FFF79DFF4FF0E9
:10410000B0439B68C3F30313024A52F82330B0FB59
:10411000F3F008BD48AD0008002800F0758338B5FD
:104120000446036813F0200F2DD04FF0B04293687F
:10413000D26802F0030213F00C0358D00C2B54D0B9
:10414000E369002B00F0A0804FF0B042136843F009
:1041500001031360FEF756F805464FF0B0431B68A5
:1041600013F0020F00F08880636A4FF0B0421168CC
:1041700021F0F0010B431360216A536823F47F435D
:1041800043EA01235360236813F0010F00F09A8083
:104190004FF0B042936803F00C03D26802F00302C0
:1041A000082B00F08B800C2B00F085806368B3F542
:1041B000803F00F0B0804FF0B042136823F48033AA
:1041C00013606368002B00F0AD80FEF71BF8054616
:1041D0004FF0B0431B6813F4003F73D1FEF712F8A1
:1041E000401B6428F4D9032019E3012AA8D1E3690C
:1041F000002B00F00B83606A4FF0B0431B6803F0A4
:10420000F003B02B21D8984221D9FFF7EDFE00280A
:1042100040F0FE82636A4FF0B042116821F0F00175
:104220000B431360216A536823F47F4343EA01235D
:104230005360FFF761FFBD4B1860BD4B1868FDF779
:1042400095FF00289FD00120E9E2B023DBE74FF083
:10425000B042136823F0F00318431060216A5368DA
:1042600023F47F4343EA01235360606AFFF7BCFEF7
:104270000028DED00120D2E2FDF7C4FF401B022857
:104280007FF66BAF0320CAE24FF0B042136823F011
:1042900001031360FDF7B6FF05464FF0B0431B68FE
:1042A00013F0020F3FF46FAFFDF7ACFF401B022885
:1042B000F3D90320B3E2032A7FF478AF6368002BBD
:1042C00000F0A882236813F0020F54D04FF0B042E0
:1042D000936803F00C03D26802F00302042B33D07E
:1042E0000C2B2FD0E368002B74D04FF0B042136832
:1042F00043F480731360FDF785FF05464FF0B0432C
:104300001B6813F4806F2DD1FDF77CFF401B022842
:10431000F4D9032083E24FF0B042136843F48033B2
:1043200013604EE7FDF76EFF05464FF0B0431B6884
:1043300013F4003FC6D0FDF765FF401B6428F4D995
:1043400003206CE2022ACDD1E368002B00F06482E6
:1043500021694FF0B042536823F0FE4343EA016302
:10436000536008E021694FF0B042536823F0FE43E8
:1043700043EA01635360236813F0080F03D113F07D
:10438000100F00F0DE806269002A00F0A38013F0B5
:10439000100F70D04FF0B043D3F8943013F0020FE9
:1043A0002ED14FF0B042D2F8943043F00103C2F85E
:1043B0009430FDF727FF05464FF0B043D3F8943013
:1043C00013F0020F1CD1FDF71DFF401B0228F3D98B
:1043D000032024E24FF0B042136823F4807313608B
:1043E000FDF710FF05464FF0B0431B6813F4806FD4
:1043F000C1D0FDF707FF401B0228F4D903200EE2CD
:104400004FF0B042D2F8943043F00403C2F8943035
:10441000FDF7F8FE05464FF0B043D3F8943013F0A3
:10442000080F06D1FDF7EEFE401B0328F3D9032049
:10443000F5E1A1694FF0B042D2F8943023F47063F3
:1044400043EA0123C2F89430D2F8943023F00103F8
:10445000C2F89430FDF7D6FE05464FF0B043D3F8CE
:10446000943013F0020F6CD0FDF7CCFE401B0228F5
:10447000F3D90320D3E14FF0B042D2F8943043F0A7
:104480000103C2F89430FDF7BDFE05464FF0B0437E
:10449000D3F8943013F0020F06D1FDF7B3FE401BA2
:1044A0000228F3D90320BAE14FF0B042D2F8943099
:1044B00023F00403C2F894304FF0B043D3F89430A3
:1044C00013F0080F3DD0FDF79DFE401B0328F3D9E4
:1044D0000320A4E14FF0B042D2F8943023F004035B
:1044E000C2F89430FDF78EFE05464FF0B043D3F886
:1044F000943013F0080F1DD14FF0B042D2F8943031
:1045000023F00103C2F89430FDF77CFE05464FF01E
:10451000B043D3F8943013F0020F12D0FDF772FEBF
:10452000401B0228F3D9032079E100BF10000020CE
:104530000C000020FDF766FE401B0328D5D90320A0
:104540006DE1236813F0040F68D0B64B1B6813F4B9
:10455000807F27D0A368012B35D0052B3CD04FF0AE
:10456000B043D3F8902022F00102C3F89020D3F892
:10457000902022F00402C3F89020A368DBB3FDF77B
:1045800041FE05464FF0B043D3F8903013F0020FD0
:1045900044D1FDF737FE401B41F288339842F1D9F0
:1045A00003203CE1FFF7A8FCFDF72CFE05469D4BE0
:1045B0001B6813F4807FCDD1FDF724FE401B022839
:1045C000F5D903202BE14FF0B042D2F8903043F000
:1045D0000103C2F89030D0E74FF0B043D3F89020F9
:1045E00042F00402C3F89020D3F8902042F0010278
:1045F000C3F89020C1E7FDF705FE05464FF0B04334
:10460000D3F8903013F0020F08D0FDF7FBFD401BEC
:1046100041F288339842F1D9032000E1236813F076
:10462000400F33D0A36AC3B14FF0B042D2F89830F4
:1046300043F00103C2F89830FDF7E4FD05464FF062
:10464000B043D3F8983013F0020F1FD1FDF7DAFD15
:10465000401B0228F3D90320E1E04FF0B042D2F82A
:10466000983023F00103C2F89830FDF7CBFD0546E2
:104670004FF0B043D3F8983013F0020F06D0FDF797
:10468000C1FD401B0228F3D90320C8E0E36A002BD8
:1046900000F0C4804FF0B042916801F00C01D26884
:1046A000022B19D00C2900F0C3804FF0B0421368E0
:1046B00023F080731360FDF7A5FD04464FF0B0436F
:1046C0001B6813F0007F00F09780FDF79BFD001B37
:1046D0000228F3D90320A2E002F00303206B8342F7
:1046E0000AD00C2900F09C804FF0B0431B6813F0F7
:1046F000806F22D0012092E002F07003606B834251
:10470000EFD1C2F30623A06B8342EAD102F47813FF
:10471000E06B8342E5D102F06063206C8342E0D11C
:1047200002F06042636C9A42DBD14FF0B0431B68E9
:1047300013F0007F44D0002071E04FF0B0421368C6
:1047400023F080731360FDF75DFD05464FF0B04325
:104750001B6813F0007F06D0FDF754FD401B0228B4
:10476000F4D903205BE04FF0B042D3682E491940E2
:10477000236B606B0343A06B43EA0023E06B0343AE
:10478000206C0343606C03431943D160136843F00A
:1047900080731360D36843F08053D360FDF732FD1C
:1047A00004464FF0B0431B6813F0007F06D1FDF7BD
:1047B00029FD001B0228F4D9032030E000202EE060
:1047C0004FF0B0431A6842F080721A60DA6842F023
:1047D0008052DA60FDF716FD04464FF0B0431B68C7
:1047E00013F0007F06D1FDF70DFD031B022BF4D95A
:1047F000032014E0002012E04FF0B042D1680B4BD0
:104800000B40D36000200AE001207047012006E041
:10481000012004E0012002E0012000E0184638BD3C
:104820000120FCE7000400588C80C111FCFFFEEE63
:104830000120F4E7002800F0278170B50C460546FA
:10484000934B1B6803F007038B422DD32B6813F0A7
:10485000020F3FD12B6813F0200F53D12B6813F0B8
:10486000400F6AD12B6813F0040F40F083802B684F
:1048700013F0080F40F097802B6813F0010F00F041
:10488000DE806B68022B00F0A880032B00F0AD8067
:10489000002B40F0B2804FF0B042126812F0020FCD
:1048A00040F0B1800120EEE0794A136823F007035D
:1048B0000B431360FDF7A6FC0646754B1B6803F01F
:1048C0000703A342C2D0FDF79DFC801B0228F4D948
:1048D0000320D8E0AB684FF0B0418A6822F0F002C4
:1048E00013438B60FDF78EFC06464FF0B0439B6888
:1048F00013F4803FAED1FDF785FC801B0228F4D96C
:104900000320C0E06B694FF0B041D1F8082122F0DC
:10491000F0021343C1F80831FDF774FC06464FF06E
:10492000B043D3F8083113F4003F97D1FDF76AFC88
:10493000801B0228F3D90320A5E0A9694FF0B042FB
:10494000D2F8083123F00F0343EA1113C2F80831FB
:10495000FDF758FC06464FF0B043D3F8083113F486
:10496000803F7FF47FAFFDF74DFC801B0228F2D91A
:10497000032088E0EB684FF0B0418A6822F4E062DF
:1049800013438B60FDF73EFC06464FF0B0439B6837
:1049900013F4003F7FF46BAFFDF734FC801B02285B
:1049A000F3D903206FE029694FF0B042936823F4F4
:1049B000605343EAC1039360FDF724FC06464FF0C1
:1049C000B0439B6813F4802F7FF456AFFDF71AFCB9
:1049D000801B0228F3D9032055E04FF0B042126843
:1049E00012F4003F0FD101204DE04FF0B0421268A9
:1049F00012F0007F07D1012045E04FF0B04212686D
:104A000012F4806F42D04FF0B0418A6822F0030266
:104A100013438B60FDF7F6FB06464FF0B0439B68EF
:104A200003F00C036A68B3EB820F08D0FDF7EAFBD2
:104A3000801B41F288339842EFD9032023E0144BC6
:104A40001B6803F00703A34215D9114A136823F02A
:104A5000070323431360FDF7D5FB05460C4B1B688A
:104A600003F00703A34206D0FDF7CCFB401B02284E
:104A7000F4D9032007E0FFF73FFB064B1860FDF772
:104A8000C7FBFDF773FB70BD012070470120FAE7FB
:104A900000400058100000204FF0B041D1F888309D
:104AA000020902F47F2223EA0203000100F47F20BE
:104AB0000343C1F88830704770B505464FF0B042E7
:104AC000136823F080631360FDF79CFB04464FF0EE
:104AD000B0431B6813F0006F06D0FDF793FB001B7B
:104AE0000228F4D9032400E000240CB1204670BD54
:104AF0004FF0B0431A6922F4FE42296842EA0122CB
:104B00001A611A6922F4781269680A431A611A68EC
:104B100042F080621A60FDF775FB06464FF0B04325
:104B20001B6813F0006F05D1FDF76CFB801B02289A
:104B3000F4D90324002CD9D14FF0B042136929696C
:104B40000B431361D2E770B505464FF0B0421368CE
:104B500023F080631360FDF755FB04464FF0B0432C
:104B60001B6813F0006F06D0FDF74CFB001B0228FA
:104B7000F4D9032400E000240CB1204670BD4FF0AE
:104B8000B0431A6922F4FE42296842EA01221A61FE
:104B90001A6922F06062A9680A431A611A6842F031
:104BA00080621A60FDF72EFB06464FF0B0431B688B
:104BB00013F0006F05D1FDF725FB801B0228F4D907
:104BC0000324002CD9D14FF0B042136929690B435B
:104BD0001361D2E770B505464FF0B042136823F079
:104BE00080631360FDF70EFB04464FF0B0431B6873
:104BF00013F0006F06D0FDF705FB001B0228F4D967
:104C0000032400E000240CB1204670BD4FF0B043F7
:104C10001A6922F4FE42296842EA01221A611A69DD
:104C200022F06042E9680A431A611A6842F0806221
:104C30001A60FDF7E7FA06464FF0B0431B6813F021
:104C4000006F05D1FDF7DEFA801B0228F4D903249A
:104C5000002CD9D14FF0B042136929690B4313617D
:104C6000D2E770B50446036813F0400F35D0036BEC
:104C7000B3F5800F16D00BD833B90430FFF71CFF03
:104C80000646B8B105462BE001231D461E4627E027
:104C9000B3F5000F1BD0B3F5400F1BD001231D4609
:104CA0001E461DE04FF0B042D36843F48033D3601A
:104CB00000231E46236B4FF0B041D1F8882022F428
:104CC00040021343C1F8883000231D4608E000234A
:104CD0001E46EFE700231E46ECE700231D461E4656
:104CE000236813F4006F0BD04FF0B043D3F890302B
:104CF00003F440731D46236CAB4240F0B780354649
:104D0000236813F0010F09D0A3694FF0B041D1F827
:104D1000882022F003021343C1F88830236813F07F
:104D2000020F09D0E3694FF0B041D1F8882022F496
:104D300040621343C1F88830236813F0100F0CD081
:104D4000A16A4FF0B042D2F88830080C000423EA80
:104D5000000343EA0143C2F88830236813F0200FB0
:104D60000CD0E16A4FF0B042D2F88830080C000451
:104D700023EA000343EA0143C2F88830236813F0B2
:104D8000040F40F0B580236813F0080F40F0B480A2
:104D9000236813F4807F13D0636B4FF0B041D1F8D8
:104DA000882022F040621343C1F88830636BB3F16E
:104DB000006F00F0A580636BB3F1806F00F0A580F9
:104DC000236813F4007F17D0A36BB3F1804F05D095
:104DD000B3F1004F02D0002B40F09F804FF0B04164
:104DE000D1F8882022F040421343C1F88830A36BE9
:104DF000B3F1C05F00F0A380236813F4806F13D079
:104E0000E36B4FF0B041D1F8882022F040521343B9
:104E1000C1F88830E36BB3F1005F00F09780E36B7B
:104E2000B3F1805F00F09780236813F4805F09D0AE
:104E3000636C4FF0B041D1F8942022F44042134308
:104E4000C1F89430236813F4005F0DD0E26C4FF08A
:104E5000B043596A21F030010A435A62A26C596A80
:104E600021F003010A435A62284670BDFFF744F857
:104E70005DB9236C4FF0B041D1F8902022F440721C
:104E80001343C1F8903035463AE74FF0B043D3F8BA
:104E90009020D3F8901041F48031C3F89010D3F8EB
:104EA000901021F48031C3F8901022F44072216CEC
:104EB0000A43C3F89020D3F8903013F0010F13D0B9
:104EC000FDF7A0F905464FF0B043D3F8903013F04A
:104ED000020F0BD1FDF796F9401B41F2883398423F
:104EE000F1D903231D460BE7354609E7354607E7A9
:104EF000206AFFF7D1FD46E7606AFFF7CDFD47E77F
:104F0000CB6843F08073CB6055E7201DFFF71BFE95
:104F100000283FF455AF054652E723F080534FF089
:104F2000B042D2F8881021F04041C2F88810D2F87F
:104F3000881021F040610B43C2F8883057E74FF0EA
:104F4000B042D36843F08073D36055E7CB6843F435
:104F50008033CB6063E7201DFFF73CFE00283FF461
:104F600063AF054660E74FF0B042136843F00403B7
:104F7000136070472DE9F04383B004460F46164690
:104F80001D46FDF73FF90A9B1B1A03EB0508FDF7C9
:104F900039F98146284B1B68C3F3CB3308FB03F375
:104FA000019323689B6837EA03030CBF01230023A6
:104FB000B3423DD0B5F1FF3FF3D0FDF723F94B46A7
:104FC000C01A404503D2019B73BB9846E9E72268AB
:104FD000536823F0E00353606368B3F5827F0BD01E
:104FE000A36AB3F5005F14D0012384F85D30002379
:104FF00084F85C3003201CE0A368B3F5004F02D0B6
:10500000B3F5806FECD12268136823F0400313607E
:10501000E6E72268136823F40053136022681368DC
:1050200043F400531360DFE7019B013B0193B8E7B2
:10503000002003B0BDE8F083100000202DE9F04708
:1050400082B006460C4615461F4600238DF80330F5
:10505000FDF7D8F80A9B1B1A03EB0708FDF7D2F8F7
:105060008246D6F80090304B1B6803EB8303C3EBFA
:10507000C3031B0D08FB03F3019302E0B7F1FF3FED
:1050800012D133689B6803EA040CAC4547D0B4F5F1
:10509000C06FF3D1002DF1D199F80C30DBB28DF84F
:1050A00003309DF80330E9E7FDF7ACF85346C01A2A
:1050B000404503D2019B73BB9846E2E732685368D0
:1050C00023F0E00353607368B3F5827F0BD0B36ABB
:1050D000B3F5005F14D0012386F85D30002386F815
:1050E0005C3003201CE0B368B3F5004F02D0B3F589
:1050F000806FECD13268136823F040031360E6E759
:105100003268136823F4005313603268136843F461
:1051100000531360DFE7019B013B0193B1E70020DF
:1051200002B0BDE8F08700BF1000002070B582B06B
:1051300004460B460E461546009200224FF4C0511D
:10514000FFF77CFFB0B90095334602468021204628
:10515000FFF710FFA8B90095334602464FF4C0612F
:105160002046FFF76BFF50B1236E43F02003236608
:10517000032004E0236E43F020032366032002B0E3
:1051800070BD236E43F0200323660320F7E7002859
:105190006AD010B50446436A33B94368B3F5827FD9
:1051A00005D00023C36102E00023036143610023B3
:1051B000A36294F85D30002B4DD0022384F85D305B
:1051C0002268136823F040031360E368B3F5E06FCF
:1051D00047D90022B3F5706F04D0B3F5E06F01D06A
:1051E0000023A362636803F48273A16801F404419D
:1051F0000B43216901F002010B43616901F00101D8
:105200000B43A16901F400710B43E16901F038011E
:105210000B43216A01F080010B43A16A01F40051A4
:1052200020680B430360638B03F00403616A01F0A1
:1052300010010B43616B01F008010B43E16801F4BD
:1052400070610B43216813434B60002020660123EB
:1052500084F85D3010BD84F85C302046FCF754FFC4
:10526000ABE74FF48052B5E7012070472DE9F043DA
:1052700083B00446894690461D46FCF7C3FF94F868
:105280005D30012B40F0F0800646DFB24946002930
:1052900000F0EB804246002A00F0E78094F85C3092
:1052A000012B00F0E680012384F85C30032384F8AE
:1052B0005D3000232366C4F83890A4F83C80A4F83D
:1052C0003E802364A4F84430A4F846302365E364A8
:1052D000A368B3F5004F1ED023681A6812F0400F80
:1052E00003D11A6842F040021A60E368B3F5E06F38
:1052F00047D9636813B14346012B20D1A26B2368C1
:105300001288DA60A36B0233A363E38F9BB2013B85
:105310009BB2E38713E02268136823F04003136015
:105320002268136843F480431360D5E7FCF76AFFF3
:10533000801BA84202D3B5F1FF3F1AD1CDB1E38F54
:105340009BB2002B75D023689A6812F0020FEDD043
:10535000A26B1288DA60A36B0233A363B4F83EC079
:105360001FFA8CFC0CF1FF3C1FFA8CFCA4F83EC029
:10537000E5E7012384F85D30002384F85C300327DF
:1053800073E0636813B14346012B28D1E38F9BB2CE
:10539000012B0CD9A26B23681288DA60A36B02334D
:1053A000A363E38F9BB2023B9BB2E38717E0A26B40
:1053B000236812781A73A36B0133A363E38F9BB244
:1053C000013B9BB2E3870AE0A36B1B88D360A36B0E
:1053D0000233A363E38F9BB2023B9BB2E387E38F6D
:1053E0009BB233B32268936813F0020F0FD0E38FA0
:1053F0009BB2012BE8D8A36B1B781373A36B01330B
:10540000A363E38F9BB2013B9BB2E387E7E7FCF723
:10541000F9FE801BA84202D3B5F1FF3F01D1002D58
:10542000DDD1012384F85D30002384F85C3003274C
:105430001BE0324629462046FFF778FE08B12023BC
:105440002366A36833B901932368DA6801929B68E5
:105450000193019B012384F85D30002384F85C30C4
:10546000236E13B91F4600E00227384603B0BDE89B
:10547000F0830227F9E72DE9F84304460F469146E9
:105480009846089DFCF7BEFE064694F85D306268BB
:10549000012B0BD0D9B2B2F5827F40F06481A368B2
:1054A000002B40F06381042940F06281002F00F05E
:1054B00061814B46002B00F05F814346002B00F0DA
:1054C0005D8194F85C30012B00F05A81012384F84F
:1054D0005C3094F85D30042B02D0052384F85D30F5
:1054E00000232366C4F840904246A4F84680A4F8FE
:1054F0004480A763A4F83E80A4F83C80E36423655D
:10550000E368B3F5E06F01D8012A25D92268536812
:1055100023F48053536023681A6812F0400F03D1BC
:105520001A6842F040021A60E368B3F5E06F62D98E
:10553000636813B14346012B0BD1A26B2368128819
:10554000DA60A36B0233A363E38F9BB2013B9BB290
:10555000E38701231F4631E02268536843F48053F8
:105560005360D8E7A26B1288DA60A36B0233A3639F
:10557000E38F9BB2013B9BB2E38700231F46226867
:10558000936813F0010311D0B4F8461089B269B1E1
:10559000D168226C1180226C02322264B4F8462059
:1055A00092B2013A92B2A4F846201F46FCF72AFEB6
:1055B000831BAB4202D3B5F1FF3F14D1E38F9BB203
:1055C0002BB9B4F846309BB2002B00F0B5802368AD
:1055D0009A6812F0020FD2D0E28F92B2002ACED097
:1055E000002FCCD0BEE7012384F85D30002384F87F
:1055F0005C300320B8E0636813B14346012B0FD140
:10560000E38F9BB2012B0ED9A26B23681288DA605C
:10561000A36B0233A363E38F9BB2023B9BB2E3878E
:1056200001231F464BE0A26B236812781A73A36B09
:105630000133A363E38F9BB2013B9BB2E387EFE7A8
:10564000E28F92B2012A0DD9A26B1288DA60A36BA5
:105650000233A363E38F9BB2023B9BB2E387002339
:105660001F463EE0A26B12781A73A36B0133A3634B
:10567000E38F9BB2013B9BB2E38700231F4630E0E0
:1056800021684A6842F480524A601F460DE0216C4E
:10569000127B0A70226C01322264B4F8462092B266
:1056A000013A92B2A4F846201F46FCF7ABFD801BDE
:1056B000A84202D3B5F1FF3F36D1002D34D0E38F9D
:1056C0009BB223B9B4F846309BB2002B34D0236888
:1056D0009A6812F0020F04D0E28F92B20AB1002F42
:1056E000AED12268936813F00103DED0B4F84610FF
:1056F00089B20029D9D0B4F8461089B20129C6D997
:10570000D168226C1180226C02322264B4F84620E7
:1057100092B2023A92B2A4F84620B4F8462092B26D
:10572000012AADD91F46C0E7012384F85D3000236C
:1057300084F85C30032017E0324629462046FFF704
:10574000F5FC48B9012384F85D30002384F85C300F
:10575000236E4BB1012007E020232366002384F849
:105760005C30012000E00220BDE8F8830220FBE766
:105770000220F9E70120F7E70120F5E70120F3E730
:105780000220F1E7FEE7FEE7FEE7FEE7FEE77047EF
:105790007047704708B5FCF729FD08BD08B50248F9
:1057A000FEF761F908BD00BF001A00200346002083
:1057B000A3F844004BF68072A3F840207047B0F87D
:1057C00040309BB223F47E535B045B0CA0F8403066
:1057D0000020704782B0034602A800E906000122BB
:1057E000A3F840200020A3F84000A3F84400A3F849
:1057F000500002B0704700B5034691F800C030F881
:105800002C2092B222F4EC4222F0700292B2C878BC
:10581000022867D008D878B1012803D142F4806209
:1058200000200BE0012009E0032803D142F4C0620C
:10583000002003E0012001E042F4007248F2800EF3
:1058400042EA0E0223F82C2091F800C033F82C20F5
:1058500092B222F4E04222F070024CEA020242EAE2
:105860000E0223F82C200A7B002A40F0DC804A78C4
:10587000002A48D0B3F8502013FA82F291F800C001
:1058800002EBCC02B1F806C04FEA5C0C4FEA4C0CBC
:10589000A2F800C491F800C033F82C2012F0400F99
:1058A0000CD033F82C2092B222F4E04222F07002A5
:1058B00042F4004242F0C00223F82C20CA78012AA8
:1058C00012D0097833F8212092B222F4E04222F07B
:1058D000400282F0200242F4004242F0800223F8AB
:1058E0002120D8E10020A9E7097833F8212092B2DD
:1058F00022F4E04222F0400242F4004242F08002F0
:1059000023F82120C7E1B3F8502013FA82F291F86E
:1059100000C002EBCC02B1F806C04FEA5C0C4FEAC3
:105920004C0CA2F804C4B3F8502013FA82F291F898
:1059300000C002EBCC02B2F806C4CCF3090CA2F80A
:1059400006C4D1F810C0BCF1000F2FD1B2F806C4C4
:105950006FEA4C4C6FEA5C4C1FFA8CFCA2F806C450
:1059600091F800C033F82C2012F4804F0CD033F89B
:105970002C2092B222F4E04222F0700242F4404223
:1059800042F0800223F82C200978E1BB33F8212073
:1059900092B222F4804222F0700282F4405242F429
:1059A000004242F0800223F8212074E1BCF13E0F56
:1059B00013D84FEA5C0E1CF0010F01D00EF1010E5E
:1059C000B2F806C41FFA8CFC4FEA8E2E1FFA8EFE28
:1059D0004CEA0E0CA2F806C4C2E74FEA5C1E1CF0AB
:1059E0001F0F01D10EF1FF3EB2F806C41FFA8CFC66
:1059F0004FEA8E2E1FFA8EFE4CEA0E0C4CF4004C31
:105A0000A2F806C4ACE733F8212092B222F4804217
:105A100022F0700282F4005242F4004242F080020E
:105A200023F8212037E1CA78022A7BD091F800C000
:105A300033F82C2092B222F4E24222F0700242F4B7
:105A4000004242F0800223F82C20B3F8502013FAD1
:105A500082F291F800C002EBCC02B1F808C04FEA24
:105A60005C0C4FEA4C0CA2F800C4B3F8502013FAB7
:105A700082F291F800C002EBCC02B1F80AC04FEA02
:105A80005C0C4FEA4C0CA2F804C44A78002A40F09F
:105A9000108191F800C033F82C2012F4804F0CD004
:105AA00033F82C2092B222F4E04222F0700242F449
:105AB000404242F0800223F82C2091F800C033F8D5
:105AC0002C2012F0400F0CD033F82C2092B222F48C
:105AD000E04222F0700242F4004242F0C00223F899
